:020000040000FA
:100000000C94DA000C9465150C943E150C940201C6
:100010000C9402010C9402010C9402010C94020154
:100020000C9402010C9402010C9402010C94020144
:100030000C9402010C9402010C9402010C94020134
:100040000C94F4140C9402010C94C2140C949C149F
:100050000C9402010C9402010C9402010C94020114
:100060000C948C150C94020100407A10F35A00A0F5
:10007000724E18090010A5D4E80000E87648170071
:1000800000E40B54020000CA9A3B000000E1F505B1
:10009000000080969800000040420F000000A086FB
:1000A00001000000102700000000E803000000002D
:1000B0006400000000000A000000000001000000D1
:1000C00000002C76D888DC674F0823DFC1DFAE59EB
:1000D000E1B1B796E5E3E453C63AE651997696E87E
:1000E000E6C28426EB898C9B62ED407C6FFCEFBC02
:1000F0009C9F40F2BAA56FA5F490055A2AF75C932D
:100100006B6CF9676DC11BFCE0E40D47FEF520E662
:10011000B500D0ED902E0300943577050080841E45
:10012000080000204E0A000000C80C333333330FA0
:10013000986E12831141EF8D2114893BE65516CF3D
:10014000FEE6DB18D1844B381BF77C1D901DA4BB49
:10015000E424203284725E228100C9F124ECA1E5FE
:100160003D2700000000240027002A0000000000B6
:10017000250028002B0004040404040404040202E3
:100180000202020203030303030301020408102016
:100190004080010204081020010204081020000021
:1001A0000008000201000003040700000000000036
:1001B0000000AB1611241FBECFEFD8E0DEBFCDBFCD
:1001C00013E0A0E0B1E0ECE1F9E402C005900D928B
:1001D000A838B107D9F729E0A8E8B3E001C01D921B
:1001E000A030B207E1F710E0CAEDD0E004C02197DB
:1001F000FE010E949B22C93DD107C9F70E94361912
:100200000C948C240C9400008091B4059091B50559
:10021000A091B605B091B7050196A11DB11D8093BF
:10022000B4059093B505A093B605B093B7050895AE
:100230008091600590916105A0916205B091630580
:100240000196A11DB11D8093600590936105A09357
:100250006205B09363050895089508950895AF92D7
:10026000BF92CF92DF92EF92FF920F931F93CF93A3
:10027000DF936C017B018B01040F151FEB015E0105
:10028000AE18BF08C017D10759F06991D601ED919A
:10029000FC910190F081E02DC6010995892B79F739
:1002A000C501DF91CF911F910F91FF90EF90DF90EB
:1002B000CF90BF90AF900895FC01538D448D252FB2
:1002C00030E0842F90E0821B930B541710F0CF96F0
:1002D000089501970895FC01918D828D981761F022
:1002E000A28DAE0FBF2FB11D5D968C91928D9F5F39
:1002F0009F73928F90E008958FEF9FEF0895FC0118
:10030000918D828D981731F0828DE80FF11D858DCA
:1003100090E008958FEF9FEF0895FC01918D228D5D
:10032000892F90E0805C9F4F821B91098F739927E2
:10033000089587E594E00E948D0121E0892B09F45E
:1003400020E0822F089580E090E0892B29F00E9420
:10035000990181110C9400000895FC01A48DA80F4F
:10036000B92FB11DA35ABF4F2C91848D90E00196F7
:100370008F739927848FA689B7892C93A089B18917
:100380008C91837080648C93938D848D981306C0B8
:100390000288F389E02D80818F7D80830895EF921C
:1003A000FF920F931F93CF93DF93EC0181E0888F2F
:1003B0009B8D8C8D98131AC0E889F989808185FFFF
:1003C00015C09FB7F894EE89FF896083E889F989A1
:1003D00080818370806480839FBF81E090E0DF91A3
:1003E000CF911F910F91FF90EF900895F62E0B8DF6
:1003F00010E00F5F1F4F0F731127E02E8C8D8E11B1
:100400000CC00FB607FCFACFE889F989808185FF17
:10041000F5CFCE010E94AD01F1CFEB8DEC0FFD2F9A
:10042000F11DE35AFF4FF0829FB7F8940B8FEA89D2
:10043000FB8980818062CFCFCF93DF93EC01888DE1
:100440008823B9F0AA89BB89E889F9898C9185FD4F
:1004500003C0808186FD0DC00FB607FCF7CF8C91DD
:1004600085FFF2CF808185FFEDCFCE010E94AD01E7
:10047000E9CFDF91CF91089590E0FC01E256FE4F65
:100480002491FC01E657FE4F3491FC01EA58FE4FDF
:10049000E491EE23C9F0222339F0233001F1A8F4CE
:1004A000213019F1223029F1F0E0EE0FFF1FE4595D
:1004B000FE4FA591B4918FB7F894EC91611126C0CD
:1004C00030953E233C938FBF08952730A9F0283004
:1004D000C9F0243049F7809180008F7D03C080915E
:1004E00080008F7780938000DFCF84B58F7784BDC5
:1004F000DBCF84B58F7DFBCF8091B0008F77809369
:10050000B000D2CF8091B0008F7DF9CF3E2BDACFF3
:100510003FB7F8948091D1039091D203A091D30377
:10052000B091D40326B5A89B05C02F3F19F00196C2
:10053000A11DB11D3FBFBA2FA92F982F8827BC013D
:10054000CD01620F711D811D911D42E0660F771F65
:10055000881F991F4A95D1F708958F929F92AF9265
:10056000BF92CF92DF92EF92FF924B015C010E940B
:1005700088026B017C010E9488026C197D098E093A
:100580009F09683E734081059105A8F321E0821A16
:100590009108A108B10888EEC80E83E0D81EE11CBE
:1005A000F11C81149104A104B10429F7FF90EF908C
:1005B000DF90CF90BF90AF909F908F9008952FB70E
:1005C000F8946091CD037091CE038091CF03909108
:1005D000D0032FBF089508954F925F926F927F923C
:1005E0008F929F92AF92BF92CF92DF92EF92FF9243
:1005F0000F931F93CF93DF93EC010E94DF020E94C1
:100600003F216B017C012A853B854C855D850E94DD
:1006100025204B015C0120E030E048E452E40E94D8
:10062000F12187FD40C00A811B81F8014081518181
:10063000628173818E819F81481B590BBA01550FCE
:10064000880B990B0E9441212B013C016E857F850F
:10065000888999890E943F219B01AC01C301B201A5
:100660000E9497202B013C0120E030E04AE754E44F
:10067000C501B4010E9497209B01AC01C301B201E6
:100680000E9497206A8B7B8B8C8B9D8BCA86DB8626
:10069000EC86FD86F80180819181A281B3818E83F1
:1006A0009F83A887B987DF91CF911F910F91FF900A
:1006B000EF90DF90CF90BF90AF909F908F907F9002
:1006C0006F905F904F900895CF93DF93DC012D9151
:1006D0003C9111973327F901E657FE4F94912A5820
:1006E0003E4FF90124912223C9F030E0220F331F3D
:1006F000F901EE59FE4F45915491F901E459FE4F2D
:10070000C591D4912FB7F894FA013081892F809543
:1007100083238083E8819E2B98832FBF14968D912D
:100720009C9115972D913C912230310589F0233011
:10073000310559F49093030180930201809169007F
:10074000837F846080936900E99ADF91CF91089557
:100750009093010180930001809169008C7F8160FA
:1007600080936900E89AF1CF2091A903260F3327DF
:10077000331F21323105ECF420912104FC0190E07B
:1007800080E0243069F082E00895A091A9032191CE
:10079000AC0147575C4FA40FB52FB11D2C930196A8
:1007A000861798F38091A903680F6093A90380E0EE
:1007B000089581E008951092210481E0809320043F
:1007C0001092FB0361E082E10E943C0261E083E160
:1007D0000E943C02E9EBF0E080818E7F8083808183
:1007E0008D7F808388E48093B80085E48093BC008B
:1007F0000895CF93DF9391E0909388038823B9F015
:10080000C091B800D091BA008091BC008A7B8093DF
:10081000BC0060E082E10E943C0260E083E10E9453
:100820003C020E94DB03D093BA00C093B800DF9172
:10083000CF9108958F929F92AF92BF92CF92DF9205
:10084000EF92FF920F931F93CF93DF93D0914A04BF
:10085000D13208F0D7C0182FC09149040E948802F5
:100860006B017C018091210481116BC082E0809337
:100870002104109320048FEF80931F0410921E0414
:10088000D0931D04A9E2B4E0EDEFF3E080E0D813CB
:1008900091C01092FC038091FC03CC0FC82BC09335
:1008A000FC038091FB03813009F088C01092FB03A8
:1008B0000E9488026B017C018091FC038093BB0045
:1008C0008091230490912404A0912504B0912604E2
:1008D000892B8A2B8B2BA1F00E9488020091230484
:1008E0001091240420912504309126046C197D096F
:1008F0008E099F09061717072807390708F442C011
:100900008091BC0083FDD8CF85EC8093BC000E9411
:1009100088026B017C0180912104823009F450C06F
:1009200080911F048F3F09F46FC080911F048032B3
:1009300009F46CC080911F04803309F469C084E01D
:1009400026C08091230490912404A0912504B091A5
:100950002604892B8A2B8B2B09F484CF0E948802D2
:100960008090230490902404A0902504B090260445
:100970006C197D098E099F0986169706A806B90687
:1009800008F070CF809122040E94F90385E0109254
:10099000280410924A0410922704DF91CF911F91EE
:1009A0000F91FF90EF90DF90CF90BF90AF909F900E
:1009B0008F9008959D9191938F5F69CF85EEA5CF1C
:1009C0008091230490912404A0912504B0912604E1
:1009D000892B8A2B8B2B09F49ECF0E9488020091D1
:1009E00023041091240420912504309126046C19CD
:1009F0007D098E099F09061717072807390708F090
:100A00008ACFC0CF81E0C3CF80E0C1CF82E0BFCF2B
:100A100083E0BDCFE091FA038091F903E81730F449
:100A2000F0E0EB52FC4F808190E008958FEF9FEF54
:100A300008959091FA038091F9032FEF3FEF9817F3
:100A400048F4E92FF0E0EB52FC4F208130E09F5F4B
:100A50009093FA03C90108958091F9039091FA03E4
:100A6000891B990B0895CF92DF92EF92FF920F931B
:100A70001F93CF93DF937C01CB018A012091270440
:100A8000222389F0EB016B01C40ED51ECC15DD05C8
:100A900069F06991D701ED91FC910190F081E02D11
:100AA000C7010995F3CF642F0E94B403C801DF91F9
:100AB000CF911F910F91FF90EF90DF90CF9008950D
:100AC000CF93DF931F92CDB7DEB7698320912704C0
:100AD0002223F9F020914A04203258F021E030E03E
:100AE000FC013383228390E080E00F90DF91CF916F
:100AF000089580912804E82FF0E0E75DFB4F99818D
:100B000090838F5F8093280480934A0481E090E073
:100B1000ECCF61E0CE0101960E94B403F7CF682FBD
:100B20008BE494E00C946005CF93C62F90910F0650
:100B300021E02093270490934904109228041092F6
:100B40004A04682F8BE494E00E9460056C2F8BE4CC
:100B500094E00E94600581E0CF910C941A0490E02B
:100B600080E008950F931F93CF93DF93042FD52F29
:100B7000122FC32FFC01808191E090932704809372
:100B800049041092280410924A04F4E06F9FB001C7
:100B900011246A5F7F4F8BE494E00E946005802FF0
:100BA0009D2F0E948F058D2F90E00E948F05812F31
:100BB0009C2F0E948F058C2F90E00E948F0581E072
:100BC000DF91CF911F910F910C941A049A0150E07C
:100BD00040E0CD960C94B2058A549D4FFC01808173
:100BE00008958CEB91E008958DED91E00895FC015E
:100BF00086A197A108950F931F93CF93DF93CDB74D
:100C0000DEB72A970FB6F894DEBF0FBECDBF8C01BA
:100C10008AE491E09A8389831B821C821D821E8252
:100C20001F82188619861A86D801ED91FC910190D1
:100C3000F081E02DAE014F5F5F4F6AE070E0C801C8
:100C400009950E94DF02F801608771878287938788
:100C50002A960FB6F894DEBF0FBECDBFDF91CF91BD
:100C60001F910F910895CF93DF9300D000D01F9272
:100C7000CDB7DEB72EE331E03A8329836B835D8302
:100C80004C83DC01ED91FC910190F081E02DAE01EF
:100C90004F5F5F4F67E070E009950F900F900F90E6
:100CA0000F900F90DF91CF9108950F931F93CF93E3
:100CB000DF93643671054CF0FC01EA54FD4F20814E
:100CC00010E000E0222309F44DC0DA018B01EC01B1
:100CD000BC01695C7E4FED91FC910190F081E02DAB
:100CE000CA010995BE01605D7E4F2FEFDB012C9399
:100CF000FE01EF5CFE4F2EEF20833196808331960C
:100D000090833196292F280F2095208331960083D8
:100D100016961C9345E050E030E020E08C010A5F1D
:100D20001F4F0417150734F0A1912A0F311D4F5F93
:100D30005F4FF7CF8C01085F1F4F8C0F9D1FFC0189
:100D4000E95CFE4F209520830931B1E01B0784F454
:100D50008A819B81DC01ED91FC910280F381E02D81
:100D6000A8010995C801DF91CF911F910F910895B6
:100D700041EF51E063E0CE010E9433060FEF1FEF19
:100D8000F1CF8F929F92AF92BF92CF92DF92EF926C
:100D9000FF92CF93DF93EC01E889F989C080D1807D
:100DA000E280F380C88ED98EEA8EFB8EEE85FF85B9
:100DB00080819181A281B3818C8F9D8FAE8FBF8FF7
:100DC0008CA09DA0AEA0BFA0A5019401C701B60153
:100DD0000E94F12118162CF4888E998EAA8EBB8E53
:100DE0000CC088A099A0AAA0BBA0A5019401C7012E
:100DF000B6010E94922087FDEFCFDF91CF91FF9047
:100E0000EF90DF90CF90BF90AF909F908F9008951C
:100E10002F923F924F925F926F927F928F929F920A
:100E2000AF92BF92CF92DF92EF92FF920F931F93F8
:100E3000CF93DF93CDB7DEB72F970FB6F894DEBF11
:100E40000FBECDBFDC01D096BC91B987B1111BC0DC
:100E5000198689852F960FB6F894DEBF0FBECDBFD9
:100E6000DF91CF911F910F91FF90EF90DF90CF9086
:100E7000BF90AF909F908F907F906F905F904F90BA
:100E80003F902F9008959F878E870E94DF026A8788
:100E90007B878C879D87EE85FF8584899589A689C8
:100EA000B7892A853B854C855D85281B390B4A0B04
:100EB0005B0BDA01C901C297A105B10548F20684AE
:100EC000F785E02D80819181A281B3818D839E83FE
:100ED000AF83B887AE85BF855296ED91FC912D8189
:100EE0003E814F81588560817181828193810E940A
:100EF00025204B015C01EE85FF85248135814681EB
:100F000057810E94F621AE85BF8558962D913D915F
:100F10004D915C915B970E9426206B017C01EE85D0
:100F2000FF85C08ED18EE28EF38EF4A1F983AE855B
:100F3000BF859596BC91BA83EE85FF85F6A1FB83AC
:100F4000AE85BF859796BC91BC8329813A814F2F8E
:100F50005B2F0E94F12118160CF0CFC089819A8175
:100F6000AB81BC81EE85FF85808F918FA28FB38F7F
:100F7000AE85BF852D913D914D915C91C501B40128
:100F80000E94F621EE85FF85208D318D428D538D97
:100F90000E9426206B017C01AE85BF855C962D9159
:100FA0003D914D915C915F976D817E818F81988598
:100FB0000E942520EE85FF85208531854285538559
:100FC0000E94F6219B01AC01C701B6010E942520B9
:100FD0001B018C019B01AC0169817A818B819C8111
:100FE0000E94922087FDA0C0AE85BF859096CC90D0
:100FF00090979196DC9091979296EC909297939619
:10100000FC909101A801B601C7010E94F1211816B8
:1010100014F416018701EE85FF8581A9882309F460
:101020004AC060A571A582A593A50E9409214B0124
:101030005C01AE85BF8590966D917D918D919C915F
:1010400093970E9409212B013C01EE85FF8564A541
:1010500075A586A597A50E9409216B017C01C8187A
:10106000D908EA08FB08B101C8010E9409216419E6
:10107000750986099709A70196010E9463226B01F1
:101080007C0169817A818B819C810E9409219B016D
:10109000AC012419350946095709C701B6010E9458
:1010A000931FCA01B901680D791D8A1D9B1D0E94FD
:1010B00041211B018C01AE85BF855096ED91FC91BD
:1010C000C101D80180839183A283B3832D813E81A6
:1010D0004F815885AE85BF855C962D933D934D938A
:1010E0005C935F972A853B854C855D8554962D934F
:1010F0003D934D935C935797ACCEAE85BF8590964C
:101100004D905D906D907C909397A3019201C701E3
:10111000B6010E94922087FF2BCFEE85FF85408E7F
:10112000518E628E738E24CF29803A800B811C8170
:1011300072CFCF92DF92EF92FF92DC011D921D924F
:101140001D921C921397FB0130E020E0419150E08A
:10115000022E02C0440F551F0A94E2F7052E000C20
:10116000660B770BCD90DD90ED90FC9013974C299A
:101170005D296E297F294D935D936D937C93139721
:10118000285F3F4F2032310509F7FF90EF90DF9045
:10119000CF900895FC0140835183128213820895F9
:1011A0008AE292E008958BE492E0089585E692E069
:1011B000089586E892E008958CE992E0089582E12E
:1011C00091E008958DEB92E008958EED92E0089500
:1011D0004F925F926F927F928F929F92AF92BF9247
:1011E000EF92FF920F931F93CF93DF9300D000D025
:1011F000CDB7DEB77C018B01FB018191BF01F70107
:101200008283CE0101960E94990889819A81AB81DF
:10121000BC814C015D01F5E08F0E911CA11CB11C3D
:10122000A8014C5F5F4FFA0125E030E02901712CE5
:10123000612C481459046A047B0428F46181619389
:101240002F5F3F4FF3CFF801E80FF91F1482F7012A
:101250005483438305960F900F900F900F90DF916A
:10126000CF911F910F91FF90EF90BF90AF909F9003
:101270008F907F906F905F904F90089581EF92E0F4
:10128000089582E193E008954F925F926F927F926A
:101290008F929F92AF92BF92CF92DF92EF92FF9286
:1012A0000F931F93CF93DF93CDB7DEB72C970FB675
:1012B000F894DEBF0FBECDBF7C018B01DB018C91AA
:1012C00090E0F7019383828311962C91922B938364
:1012D00082836E5F7F4FCE0101960E9499088980BC
:1012E0009A80AB80BC8024013501F6E04F0E511C82
:1012F000611C711C98012B5F3F4FF90186E090E063
:10130000AC0170E060E0441555056605770520F4F2
:10131000418141930196F4CFB4016A5F7F4FF80198
:10132000E80DF91D1582D70115963C932E9314975D
:10133000600F711FCE0105960E949908BAE08B0ECE
:10134000911C4D805E806F807884C401092C000C54
:10135000AA0BBB0B5C016D01A40CB51CC61CD71CF1
:10136000F801E80DF91DAF01401B510B70E060E082
:101370004A155B056C057D0538F42191AF0142509B
:101380005109DA012C93EFCF480C591CB801640DB8
:10139000751DFB0131971082C4010197800F911FC9
:1013A000F70197838683CE0109960E9499089201DE
:1013B0002C5F3F4F89849A84AB84BC84A901032E9F
:1013C000000C660B770B480D591D6A1D7B1DF8013B
:1013D000E20FF31FCF01801B910BB0E0A0E0841758
:1013E0009507A607B70728F48191DF0112978C9320
:1013F000F1CFC901880D991DF801E80FF91FDF0130
:1014000011971C9221503109020F131FD701199611
:101410001C930E9318972181428150E070E060E0A8
:10142000BA0155274427522B2081422B2381722B4E
:10143000F701428753876487758704962C960FB609
:10144000F894DEBF0FBECDBFDF91CF911F910F91FA
:10145000FF90EF90DF90CF90BF90AF909F908F90D4
:101460007F906F905F904F9008958BE293E0089586
:101470008CE493E00895FC01DB014C9150E070E0B6
:1014800060E0428353836483758311968C91119736
:10149000582B428353836483758312968C911297E1
:1014A000682B428353836483758313968C911397BF
:1014B000782B428353836483758314964C911497DD
:1014C00050E070E060E0468357836087718715962F
:1014D0008C911597582B4683578360877187169692
:1014E0008C911697682B4683578360877187179670
:1014F0008C91782B468357836087718788E090E0D2
:101500000895DC01FB0112968C911297808313964B
:101510008C911397818314968C91149782831596DE
:101520008C911597838316968C91169784831796C2
:101530008C911797858318968C91189786831996A6
:101540008C91878388E090E00895CF92DF92EF92AC
:10155000FF920F931F93DC01FB0113960C911397DD
:1015600010E030E020E084E0369527951795079548
:101570008A95D1F714964C91149750E070E060E092
:1015800094E0440F551F661F771F9A95D1F7042BDF
:10159000152B262B372B15969C911597492F50E02C
:1015A00070E060E08CE0440F551F661F771F8A953E
:1015B000D1F7042B152B262B372B1696CC9016978C
:1015C000D12CF12CE12CB701A60194E1440F551F59
:1015D000661F771F9A95D1F744275527607F772795
:1015E000402B512B622B732B17960C9180E1089F97
:1015F00090011124207F3770D701C60114E0B69501
:10160000A795979587951A95D1F7822B932B8F3FA6
:1016100027E0920709F454C08F3724E0920708F0BE
:1016200052C0813823E09207C4F1805893404F3F65
:101630002FEF52076207710509F04AC010E030E051
:1016400020E0302F222711270027002711272227EB
:1016500030787695679557954795402B512B622B9F
:10166000732B092E000CAA0BBB0B17E1880F991FD7
:10167000AA1FBB1F1A95D1F7842B952BA62BB72B2E
:1016800080839183A283B38388E090E01F910F91C0
:10169000FF90EF90DF90CF900895893623E0920776
:1016A00064F0716021E833E0281B390B04C07695A3
:1016B0006795579547952A95D2F790E080E0B7CF88
:1016C0008FEF90E0B4CF40E050E0BA018FEF90E0B0
:1016D0004F5F5F4F6F4F7F4FB1CFEF92FF920F93EE
:1016E0001F93CF93DF93EC017B01BC016E5F7F4FB3
:1016F000C7010E94A50A8C01BE016A5F7F4FC70126
:10170000800F911F0E94A50A800F911FDF91CF913A
:101710001F910F91FF90EF900895EF92FF920F931A
:101720001F93CF93DF938C017B01BC016E5F7F4FD2
:10173000C7010E94A50AEC01B8016A5F7F4FC7018B
:101740008C0F9D1F0E94A50AC80FD91FB801665FA4
:101750007F4FC7018C0F9D1F0E94A50A8C0F9D1FF4
:10176000DF91CF911F910F91FF90EF900895EF922D
:10177000FF920F931F93CF93DF937C01EB010296AF
:101780000E948D0B8C01BE01680F791FC701409626
:101790000E948D0B800F911FDF91CF911F910F91B0
:1017A000FF90EF9008950F931F93CF93DF938C01D9
:1017B000EC012696CE010E94B70BD8019496ED91CC
:1017C000FC91CE01DF91CF911F910F9109948F92DF
:1017D0009F92AF92BF92CF92DF92EF92FF921F93B0
:1017E000CF93DF93EC016A017B01DB01CA0117E1B2
:1017F000B595A795979587951A95D1F799276F77FE
:1018000077278F3F910509F463C0009709F449C019
:1018100080589C4F188219821A82242F2295220FF9
:10182000207E2B834A015B0123E0B694A794979412
:1018300087942A95D1F78C824A015B013BE0B694EC
:10184000A794979487943A95D1F78D82282F229563
:10185000207FE3E17695679557954795EA95D1F70F
:10186000422B4E83F4E095958795FA95E1F7182F72
:101870001F7720E030E0A901C701B6010E94922045
:1018800087FD29C01F8388E090E0DF91CF911F91F1
:10189000FF90EF90DF90CF90BF90AF909F908F9090
:1018A0000895411551056105710509F4B3CF440F41
:1018B000551F661F771F80E893E067FD06C0440F41
:1018C000551F661F771F0197F8CF6F777727A2CF35
:1018D0008FEF97E09FCF812F80688F83D4CFEF92D7
:1018E000FF920F931F93CF93DF937C018B01FC0139
:1018F0004281538164817581C8010E94E70BEC012C
:10190000F7014681578160857185C8018C0F9D1F45
:101910000E94E70B8C0F9D1FDF91CF911F910F91BC
:10192000FF90EF900895EF92FF920F931F93CF9344
:10193000DF937C018B01FC014281538164817581BD
:10194000C8010E94E70BEC01F701468157816085D1
:101950007185C8018C0F9D1F0E94E70BC80FD91F0E
:10196000F7014285538564857585C8018C0F9D1FDD
:101970000E94E70B8C0F9D1FDF91CF911F910F915C
:10198000FF90EF900895EF92FF920F931F93CF93E4
:10199000DF937C01EB0102960E94930C8C01BE0147
:1019A000680F791FC70140960E94930C800F911F0A
:1019B000DF91CF911F910F91FF90EF900895CF92FB
:1019C000DF92EF92FF920F931F93CF93DF93EC017F
:1019D000670178017F876E87598B488B3B8B2A8BF9
:1019E00018AA18A219A21AA21BA280E090E0AFE7E1
:1019F000B3E48CA39DA3AEA3BFA319AA1D861C8626
:101A000020E030E0A901C801B6010E94922087FDC4
:101A10000CC0C882D982EA82FB821C821D821E828F
:101A20001F82188619861A861B860E94DF0262535F
:101A30007109810991096C8B7D8B8E8B9F8BCE01F7
:101A40000E94C10688A9811103C0CE010E94C1066F
:101A500081E088ABDF91CF911F910F91FF90EF90C4
:101A6000DF90CF900895CF93DF93EC018B819C8121
:101A700030E020E050E040E06A81CD960E94B2055F
:101A80008B819C8130E020E040E050E16981CD967F
:101A9000DF91CF910C94B205CF93DF93EC016230CC
:101AA00041F06430E1F0613059F5DF91CF910C9451
:101AB000330D8B819C8130E020E050E040E0698173
:101AC000CD960E94B2058B819C8130E020E040E001
:101AD00050E16A81CD96DF91CF910C94B2058B8154
:101AE0009C8130E020E050E040E06981CD960E948A
:101AF000B2058B819C8130E020E050E040E0E9CFEE
:101B0000DF91CF9108958F929F92AF92BF92CF9223
:101B1000DF92EF92FF920F931F93CF93DF936B01AE
:101B20007C0149015A01E80120E030E0A9010E944E
:101B3000F1211816E4F4C8010E94330DC501B40167
:101B40000E94102180E1689FA001112468818B818F
:101B50009C81DF91CF911F910F91FF90EF90DF90CB
:101B6000CF90BF90AF909F908F900C94E60520E0AF
:101B700030E0A901C701B6010E94922062E087FF10
:101B800064E0CE010E944C0DD9CF85ED8093BC005E
:101B90008091230490912404A0912504B0912604FF
:101BA0000796A11DB11D23E0B695A795979587953A
:101BB0002A95D1F72091BC0024FD03C01092210486
:101BC000089540912304509124046091250470915C
:101BD0002604452B462B472B69F30097A105B10539
:101BE00041F025E32A95F1F700000197A109B10919
:101BF000E1CF809122040C94F9030F931F93CF93AC
:101C0000DF9300D000D01F92CDB7DEB78E010F5FFB
:101C10001F4F23E049E00E943E1DA80161E080E1E2
:101C200096E00E9433060F900F900F900F900F9048
:101C3000DF91CF911F910F9108952F923F924F9274
:101C40005F926F927F928F929F92AF92BF92CF924C
:101C5000DF92EF92FF920F931F93CF93DF93CDB755
:101C6000DEB72E970FB6F894DEBF0FBECDBF8C0146
:101C70006B01DB018D909D90AD90BC90FC01828149
:101C80009381A481B58188159905AA05BB0570F4D7
:101C9000B401660F771F660F771F828593850E94B8
:101CA000A122D8011B969C938E931A97F8018282E9
:101CB0009382A482B582C60140E050E0BA01A4E05C
:101CC000EA2EF12C98012A5F3F4FDC011596EC912A
:101CD000159716964C901697512C712C612C320149
:101CE000552444245E2A1496EC9114974E2A179694
:101CF000EC917E2AD7011701E4E02E0E311C710110
:101D00000496F80182809380A480B5804815590517
:101D10006A057B05A8F4468257826086718614970F
:101D2000A284B384AA0DBB1DE4E0BE2EF90101908C
:101D30000D92BA94E1F74F5F5F4F6F4F7F4FC5CF62
:101D400084859585A685B78584159505A605B7056F
:101D500070F4B201660F771F660F771F848995892B
:101D60000E94A122D80155969C938E935497F80116
:101D70004486558666867786C601820D931D412C62
:101D8000512C32011C019801205F3F4FDC0111965C
:101D90006C91119712968C901297912CB12CA12CCA
:101DA000540199248824962A6C91862A13966C9162
:101DB000B62AB4E0EB0EF11CF80144855585668522
:101DC00077854416550666067706C0F4808A918AA0
:101DD000A28AB38ABC0162197309A489B589A60FC6
:101DE000B71F64E0F90101900D926A95E1F7BFEF2A
:101DF0004B1A5B0A6B0A7B0A0496C8CF86899789BF
:101E0000A08DB18D88159905AA05BB0560F4B401B4
:101E1000660F771F848D958D0E94A122D8015D9653
:101E20009C938E935C97F801868A978AA08EB18ED8
:101E3000412C512C32011801FAE12F0E311CF8010E
:101E400086899789A08DB18D481659066A067B064A
:101E500008F05CC0B6016E0D7F1DCE0101960E9498
:101E6000990897012C5F3F4F3E872D8789809A8084
:101E7000AB80BC80C901032E000CAA0BBB0BAC01CC
:101E8000BD01480D591D6A1D7B1D49875A876B8707
:101E90007C87F901EC0DFD1D9F012C193D09B9014D
:101EA00090E080E029853A854B855C856217730751
:101EB0008407950728F42191DF0112972C93ECCF2A
:101EC000ED84FE84E80CF91CF601EE0DFF1D319740
:101ED00010828D859E8501978C0D9D1DD8015B9686
:101EE0009C938E935A97C201880F991F5C96ED912F
:101EF000FC91E80FF91FD1018D919C919183808312
:101F0000BFEF4B1A5B0A6B0A7B0A99CFC7012E966B
:101F10000FB6F894DEBF0FBECDBFDF91CF911F91FA
:101F20000F91FF90EF90DF90CF90BF90AF909F9078
:101F30008F907F906F905F904F903F902F9008957B
:101F40002F923F924F925F926F927F928F929F92C9
:101F5000AF92BF92CF92DF92EF92FF920F931F93B7
:101F6000CF93DF93CDB7DEB7A6970FB6F894DEBF59
:101F70000FBECDBF8C010E94DF024B015C019801B6
:101F800025543D4F3E8B2D8BF90180819181A2819B
:101F9000B38175016401C81AD90AEA0AFB0AD7019C
:101FA000C601893F9A42A105B10510F0359710820C
:101FB000180134E5231A3DEF330AD1018D919C912C
:101FC000892B79F0F801E154FD4F80819181A28144
:101FD000B38188159905AA05BB0518F4F101118292
:101FE000108298012C543D4F3A8B298BA801405503
:101FF0005D4F5C8B4B8BC8014896988F8F8BD801B7
:10200000AA54BD4FBC8FAB8FF801EC53FD4FFE8F30
:10201000ED8F215F3F4F38A32F8F42505109588BCE
:102020004F8786569D4F9A8F898F1996BAA3A9A379
:10203000A50194012C5E3F4F4F4F5F4F2BA33CA354
:102040004DA35EA3F80184899589A689B789892B58
:102050008A2B8B2BB9F5D80112968D919C91DC01BE
:10206000ED91FC910284F385E02D09959C0197FF89
:102070003DC0F801EA54FD4F8081882301F17801C9
:10208000B9E4EB1ABDEFFB0AF70180819181A281CF
:10209000B381A5019401281B390B4A0B5B0BDA01B4
:1020A000C901853C9940A105B10548F0C8010E94CD
:1020B000FB05D7018D929D92AD92BC92139790E053
:1020C00080E0B8C10E94DF02681979098A099B097A
:1020D000F801C488D588E688F788C616D706E806CA
:1020E000F90608F0B8CF8EEF9FEFA4C1A989BA898D
:1020F0008D919C911197820F931F8D939C93F10169
:102100004081518147305105F9F4A98DBA8D8D91E7
:102110009C911197AC014F5F5F4F4D935C93800F83
:10212000911FFC01208FAF85B8898D919C911197EB
:1021300001978D939C93892B09F084CF88E090E0E0
:10214000F101918380837ECF4115510521F52F3F09
:10215000310581F481E090E091838083CBA0DCA005
:10216000EDA0FEA0A9A1BAA1CD92DD92ED92FC92C4
:10217000139768CF0E94DF02681979098A099B09C1
:10218000693873418105910508F45CCFF801EA5480
:10219000FD4F1082A8CF4130510589F42E3F310503
:1021A00019F482E090E0CCCF11821082EB8DFC8D8F
:1021B0008081811147CFC8010E94FB0543CF423087
:1021C000510591F4AF85B8892D933C93E98DFA8D33
:1021D0001182108283E090E0D1018D939C93E98974
:1021E000FA89318320832ECF4330510571F4322F89
:1021F0002227AF85B8898D919C911197280F391F9F
:102200002D933C9384E090E09BCF4430510579F4CA
:1022100060E071E00E9473228F3F910529F485E010
:1022200090E0918380830ECF118210820BCF4530D6
:10223000510569F4AB89BC892D933C9386E090E00D
:1022400091838083A989BA892D933C93FBCE463034
:102250005105A1F4322F2227EB89FC8980819181DD
:10226000280F391F3183208387E090E0D1018D93BF
:102270009C93EF85F889808191815DCF483051052D
:1022800009F0E0CE1182108260E071E00E947322BA
:102290008F3F910509F0D6CEAB89BC89ED91FC91B9
:1022A000309709F0E0C0C8010E94FB0582E391E08D
:1022B0009A8389831C821B8289E292E09E838D83AC
:1022C00098878F839A8789871B861C861D861E8622
:1022D0006801B8EBCB1ABDEFDB0A7801E6E8EE1A2D
:1022E000EDEFFE0A28E1422E55245394612C712C07
:1022F000D601ED91FC913097A9F1848195819C8361
:102300008B83808191819E838D8382819381DC0187
:10231000ED91FC910480F581E02D099598878F83DC
:10232000D601ED91FC9182819381DC01ED91FC91CC
:102330000680F781E02D09959A8789874B865C8610
:102340006D867E86D601ED91FC9160857185D80100
:10235000ED91FC910190F081E02DAE014F5F5F4F58
:10236000C8010995B2E0CB0ED11CEC14FD0409F0B4
:10237000BFCF98E1492E55245394612C712CF7015D
:10238000A081B1811097E1F112968D919C911397E4
:102390009C838B8314968D919C9115979E838D833E
:1023A000ED91FC9111970480F581E02DCD01099507
:1023B00098878F83D7018D919C91DC01ED91FC91E1
:1023C0000680F781E02D09959A8789874B865C8680
:1023D0006D867E86D801ED91FC91C080D180F70199
:1023E00080819181DC01ED91FC910280F381E02DEF
:1023F0000995AE014F5F5F4FBC01C801F601099519
:10240000F2E0EF0EF11CE214F30409F0B8CFF8018A
:10241000EA54FD4F81E08083319680829182A282CE
:10242000B382AD89BE898D929D92AD92BC92139775
:102430008FEF9FEFA6960FB6F894DEBF0FBECDBF0D
:10244000DF91CF911F910F91FF90EF90DF90CF9090
:10245000BF90AF909F908F907F906F905F904F90C4
:102460003F902F900895EA30F10509F0A1C08AE469
:1024700091E09A8389831B821C821D821E821F82A7
:10248000188619861A860E94DF02F801C084D1845A
:10249000E284F3849B01AC012C193D094E095F09CC
:1024A00069017A016F89788DCE0101960E943B0AFD
:1024B000C701B60128EE33E040E050E00E94F41F6F
:1024C00069017A019B01AC018B819C81AD81BE8148
:1024D0008C0D9D1DAE1DBF1D8B839C83AD83BE8364
:1024E00060E472E48FE090E00E946322CF80D884A1
:1024F000E984FA84DC01CB018C0D9D1DAE1DBF1D4E
:102500008F839887A987BA870E94DF02CF80D884FB
:10251000E984FA8436E3D31A35E6E30A34ECF30AA5
:1025200028EE33E040E050E00E94F41F29013A0118
:102530009B01AC0160E472E48FE090E00E946322B2
:10254000A7019601261B370B480B590BCA01B9018D
:102550002B813C814D815E81215031094109510916
:1025600069017A01C418D508E608F7082601370181
:1025700020E03AEC4AE95BE30E94F41F420E531E4E
:10258000641E751ED8011C964D925D926D927C92D0
:102590001F97F801608B718B828B938B0E94DF02F7
:1025A000AD89BE896D937D938D939C9313974ACD8E
:1025B000E630F10559F46F89788D8D8D9E8D0E94DE
:1025C0001D0E81E0EF8DF8A180833CCDEB30F1054D
:1025D00021F4AB8DBC8D1C9235CDE752FF4FEE0F31
:1025E000FF1FE00FF11F80819181009709F42ACD30
:1025F000DC01ED91FC910190F081E02D6F89788DE7
:10260000099520CD4F925F926F927F928F929F9209
:10261000AF92BF92CF92DF92EF92FF920F931F93F0
:10262000CF93DF93EC017B018A81FB0180838B8157
:1026300081838C8182838D8183833496412C512CBC
:10264000320104E010E09F012F5F3F4FCF0102965F
:10265000DF011396A8010C5F1F4F8A809B80AC801E
:10266000BD80481459046A047B04C8F4AA85BB855C
:10267000A40FB51F14974C9111962C911197129697
:102680009C91129713968C9140832183928383832C
:102690008FEF481A580A680A780A3496D4CF4C85C6
:1026A00040834D85F90140832E85FC0120838F8571
:1026B0008C93F701E00FF11F412C512C3201AF0137
:1026C0009F012F5F3F4FCF010296DF0113960C5FF2
:1026D0001F4F8C849D84AE84BF84481459046A04BF
:1026E0007B04D8F4CF01841B950BAC89BD89A80F5E
:1026F000B91F3C9111962C91119712969C911297AB
:1027000013968C9130832183928383838FEF481AB1
:10271000580A680A780A3496D3CF4E8940834F8985
:10272000F9014083288DFC012083898D8C93412CF5
:10273000512C32018E899F89A88DB98D4816590672
:102740006A067B0680F55201AA0CBB1CEC8DFD8D40
:10275000EA0DFB1DA081B181FD0101900020E9F788
:1027600031976F01CA1ADB0AA60170E060E0C70169
:10277000800F911F0E94CA080C5F1F4F8C8D9D8D8A
:10278000A80EB91EF50160817181A601C701800FF5
:10279000911F0E945E230C0D1D1DFFEF4F1A5F0A53
:1027A0006F0A7F0AC7CFC801DF91CF911F910F91A8
:1027B000FF90EF90DF90CF90BF90AF909F908F9061
:1027C0007F906F905F904F900895EF92FF920F93DC
:1027D0001F93CF93DF938C017B01DC0112962C9128
:1027E0001297FB012193CF011396ED91FC91EF011C
:1027F00009900020E9F72197CE1BDF0BAE0170E0B6
:1028000060E00E94CA08D80113966D917C91AE01D8
:10281000C70105960E945E23CE010596DF91CF91F8
:102820001F910F91FF90EF900895CF92DF92EF925A
:10283000FF920F931F93CF93DF936C01EB01DC01A9
:1028400012968C911297888313968C911397898393
:102850001496ED91FC91DF010D900020E9F78D01B8
:10286000015011090E1B1F0BA80170E060E0CE01A2
:1028700002960E94CA08F60164817581A801CE0102
:1028800006960E945E23C8010696F601A681B781CE
:10289000FD0101900020E9F731977F01EA1AFB0A58
:1028A000A70170E060E08C0F9D1F0E94CA08065FC0
:1028B0001F4FD60116966D917C91A701CE01800F16
:1028C000911F0E945E230E0D1F1DF601A085B1858C
:1028D000FD0101900020E9F731977F01EA1AFB0A18
:1028E000A70170E060E0CE01800F911F0E94CA082E
:1028F0000C5F1F4FD60118966D917C91A701CE01F8
:10290000800F911F0E945E23C701800F911FF60167
:102910006285438534852585C80FD91F688349831F
:102920003A832B830496DF91CF911F910F91FF90F3
:10293000EF90DF90CF9008951F920F920FB60F92F5
:1029400011242F933F934F935F936F937F938F93B4
:102950009F93AF93BF93EF93FF9387E594E00E941B
:10296000AD01FF91EF91BF91AF919F918F917F91B9
:102970006F915F914F913F912F910F900FBE0F90EC
:102980001F9018951F920F920FB60F9211242F933C
:102990008F939F93EF93FF93E0916704F091680406
:1029A0008081E0916D04F0916E0482FD1BC09081E6
:1029B000809170048F5F8F7320917104821741F0B2
:1029C000E0917004F0E0E95AFB4F958F809370041A
:1029D000FF91EF919F918F912F910F900FBE0F90CC
:1029E0001F9018958081F4CF1F920F920FB60F920F
:1029F00011242F933F938F939F93AF93BF93809115
:102A0000CD039091CE03A091CF03B091D00330912C
:102A1000CC0323E0230F2D3758F50196A11DB11DDE
:102A20002093CC038093CD039093CE03A093CF0348
:102A3000B093D0038091D1039091D203A091D3039E
:102A4000B091D4030196A11DB11D8093D103909341
:102A5000D203A093D303B093D403BF91AF919F91BE
:102A60008F913F912F910F900FBE0F901F9018954F
:102A700026E8230F0296A11DB11DD2CF1F920F92FF
:102A80000FB60F9211242F933F934F935F936F9341
:102A90007F938F939F93AF93BF93EF93FF93E091B7
:102AA0000201F09103010995FF91EF91BF91AF9160
:102AB0009F918F917F916F915F914F913F912F9156
:102AC0000F900FBE0F901F9018951F920F920FB688
:102AD0000F9211242F933F934F935F936F937F93A4
:102AE0008F939F93AF93BF93EF93FF93E091000178
:102AF000F09101010995FF91EF91BF91AF919F91E5
:102B00008F917F916F915F914F913F912F910F9096
:102B10000FBE0F901F9018951F920F920FB60F9235
:102B200011242F933F934F935F936F937F938F93D2
:102B30009F93AF93BF93EF93FF938091B900887FEA
:102B4000803609F44AC0F0F5883209F4A7C018F5B8
:102B5000803109F49BC0B8F4882309F4F9C08830A7
:102B600009F494C0FF91EF91BF91AF919F918F9124
:102B70007F916F915F914F913F912F910F900FBE79
:102B80000F901F901895883109F488C0803251F752
:102B900080931F0414C0803409F49DC040F4803336
:102BA000B9F38833F9F680931F0485ECB0C0803503
:102BB00009F485C0883509F496C0883499F60E94D6
:102BC000C50DD0CF883909F48CC038F5883729F085
:102BD00050F4883611F0803729F683E08093210481
:102BE0001092CB0357C0883809F47BC0803919F0A4
:102BF000803809F0B7CF8091CB03803208F071C0E4
:102C0000E091CB0381E08E0F8093CB038091BB00DA
:102C1000F0E0E555FC4F80833DC0803B39F0E0F4A7
:102C2000803A09F479C0883A09F09CCF84E0809317
:102C300021041092AA031092A903E091F503F091E8
:102C4000F60309958091A90381110FC081E080935B
:102C5000A9031092890309C0803C09F4A6CF883CDF
:102C600009F4A3CF883B09F07DCFE091AA0381E06E
:102C70008E0F8093AA03F0E0E757FC4F808180938A
:102C8000BB009091AA038091A90329C08091FC0305
:102C90008093BB0085EC8093BC0064CF90911E04B0
:102CA00080911D04981758F5E0911E0481E08E0F65
:102CB00080931E04F0E0E350FC4F8081E9CFE09167
:102CC0001E0481E08E0F80931E048091BB00F0E013
:102CD000E350FC4F808390911E0480911D0498174F
:102CE000C8F285E8D8CFE0911E0481E08E0F809372
:102CF0001E048091BB00F0E0E350FC4F8083809184
:102D0000200481115CCF81E08093FB0384EA8093EF
:102D1000BC001092210426CF85EC8093BC00109259
:102D200021048091CB03803230F4E091CB03F0E0BA
:102D3000E555FC4F10826091CB0370E0E091F70302
:102D4000F091F8038BEA93E009951092CB030ACF38
:102D500010921F0434CF8F929F92AF92BF92EF9246
:102D6000FF920F931F9310925A041092590488EE09
:102D700093E0A0E0B0E080935B0490935C04A093A8
:102D80005D04B0935E0426E531E03093580420934F
:102D9000570425EC30E0309364042093630424EC62
:102DA00030E0309366042093650420EC30E03093EB
:102DB00068042093670421EC30E030936A04209388
:102DC000690422EC30E030936C0420936B0426EC11
:102DD00030E030936E0420936D04109270041092D2
:102DE0007104109272041092730410924E041092A7
:102DF0004D0480934F0490935004A0935104B093DA
:102E0000520488E691E090934C0480934B0488EA46
:102E100091E09093F3088093F2081092F4081092D6
:102E2000F5081092F6081092F7081092F808109220
:102E3000F9081092FA081092FB088EE991E090933D
:102E400011068093100687E594E090931306809313
:102E5000120680E091EEA0E0B0E08093140690931B
:102E60001506A0931606B093170610921806109236
:102E7000190610921A0610921B0610921C06109248
:102E80001D0610921E0610921F0610922006109228
:102E90002106109222061092230610922406109208
:102EA0002506109226061092270688E191E0E8E2B6
:102EB000F6E0DF019C011D9221503040E1F7E0E493
:102EC000F7E0DF019C011D9221503040E1F782E3E1
:102ED000E8E5F8E0DF01282F1D922A95E9F7EAE8F6
:102EE000F8E0DF011D928A95E9F71092BD08109273
:102EF000BC081092BF081092BE081092C108109230
:102F0000C0081092C3081092C2081092C50810920F
:102F1000C4081092C6081092C7081092C8081092F0
:102F2000C9081092CA081092CB081092CC081092CF
:102F3000CD081092CE081092CF081092D0081092AF
:102F4000D1081092D2081092D30882E991E09093B0
:102F5000D5088093D4081092D6081092D708109202
:102F6000D8081092D9081092DA081092DB08109253
:102F7000DC081092DD081092DF081092DE08109233
:102F8000E0081092E1081092E2081092E308109213
:102F9000E4081092E5081092E6081092E7081092F3
:102FA000E9081092E8081092EA081092EB081092D3
:102FB000EC081092ED081092EF081092EE081092B3
:102FC000F1081092F008E7EDF5E08FEE95E014823D
:102FD0001382158212821182108236968E179F07F5
:102FE000B1F71092FB051092FE051092FA051092AF
:102FF000F90510920B0610920E0610920A06109216
:10300000090680E68093D40580930F068091E2053F
:10301000882309F418C18DED95E09093D105809334
:10302000D0058091DC0581110FC082ED95E0909371
:10303000DB058093DA0588E08093D7058AE08093EA
:10304000D80589E08093D90587ED95E09093CF0569
:103050008093CE051092BE051092BF051092C00558
:103060001092C10583E090E09093B9058093B80574
:1030700084EB95E09093BB058093BA0584E091E0E2
:103080009093BD058093BC0587E0882E9924939486
:10309000A12CB12C8092C6059092C705A092C805BC
:1030A000B092C9050E94DF0262537109810991093A
:1030B0000E943F216093C2057093C3058093C405AD
:1030C0009093C505E12CF12C00E010E428E031E0FC
:1030D0004AE755E06EE775E082E895E00E94DF0C74
:1030E00010926A0510926B0510926C0510926D0596
:1030F00082E090E0909365058093640580E695E01A
:10310000909367058093660588E191E09093690547
:10311000809368058092720590927305A092740561
:10312000B09275050E94DF0262537109810991090D
:103130000E943F2160936E0570936F058093700528
:10314000909371051AE9E12E19E9F12E09E11EE3C8
:1031500024E031E046E255E06AE275E08EE295E077
:103160000E94DF0C8AE593E090931D0580931C0577
:1031700082EF98E090931F0580931E05109225051D
:103180001092240584EB91E09093F5048093F4046D
:1031900086E891E09093FB048093FA048AE791E03B
:1031A0009093FD048093FC041092FE041092FF049F
:1031B000109200051092010510920205109203056D
:1031C000109204051092050510920605109207054D
:1031D000109208051092090590930B0580930A053B
:1031E00010920C0510920D0510920E0510920F050D
:1031F00010921005109211051092120510921305ED
:1032000010921405109215051092160510921705CC
:103210008CE291E0909319058093180581E090E08D
:1032200090931B0580931A058BE693E09093F90425
:103230008093F8041F910F91FF90EF90BF90AF9093
:103240009F908F90089581E08093E20582ED95E054
:103250009093E1058093E0058DE08093DD058BE0A0
:103260008093DE058CE08093DF05D5CE789484B51D
:10327000826084BD84B5816084BD85B5826085BD72
:1032800085B5816085BD80916E00816080936E0000
:1032900010928100809181008260809381008091F2
:1032A00081008160809381008091800081608093A3
:1032B00080008091B10084608093B1008091B00063
:1032C00081608093B00080917A00846080937A005E
:1032D00080917A00826080937A0080917A00816088
:1032E00080937A0080917A00806880937A001092AF
:1032F000C100C0911206D0911306C0901406D09060
:103300001506E0901606F090170660E079E08DE370
:1033100090E0A70196010E94F41F21503109410954
:1033200051095695479537952795E889F98982E09F
:103330008083C11481EED806E104F10421F0211547
:10334000A0E13A0798F0E889F989108260E874E80A
:103350008EE190E0A70196010E94F41F21503109EF
:10336000410951095695479537952795EC85FD8577
:103370003083EE85FF852083188EEC89FD8986E0F9
:103380008083EA89FB89808180618083EA89FB8967
:10339000808188608083EA89FB898081806880835E
:1033A000EA89FB8980818F7D80831092BD0810920D
:1033B000BC081092BF081092BE081092C308109269
:1033C000C2081092C1081092C008E8E5F8E090E049
:1033D00080E021913191232B09F073C0FC01EE0FA5
:1033E000FF1FE85AF74F2CE135E0318320838358E3
:1033F0009F4F909321058093200580E196E0909364
:1034000023058093220584E695E00E94640388EBFF
:1034100095E00E94640380915E05811104C08EE2F4
:1034200095E00E94C10681E080935E0510924E05F2
:1034300010924F051092500510925105812C912C3D
:1034400090E8A92E9FE3B92E8092520590925305E1
:10345000A0925405B0925505C0913E05D0913F050C
:10346000C880D980EA80FB80A5019401C701B6011C
:103470000E94F12118165CF588829982AA82BB828B
:103480008090460590904705A0904805B09049056A
:10349000C0905205D0905305E0905405F09055052A
:1034A000A7019601C501B4010E94F1211816ECF4A0
:1034B000C0924605D0924705E0924805F092490532
:1034C00024C001968931910509F083CF9CCF20E07B
:1034D00030E0A901C701B6010E94922087FFD0CF3A
:1034E000188219821A821B82CBCFC0904E05D090D1
:1034F0004F05E0905005F0905105A7019601C501D8
:10350000B4010E94922087FDD3CF109256051092ED
:103510005705109258051092590580E090E0AFE7EA
:10352000B3E480935A0590935B05A0935C05B09338
:103530005D0581E080935F058091B205811104C033
:1035400082E895E00E94C10681E08093B205109266
:10355000A2051092A3051092A4051092A505812C36
:10356000912C80E8A82E8FE3B82E8092A605909229
:10357000A705A092A805B092A905C0919205D09187
:103580009305C880D980EA80FB80A5019401C7011A
:10359000B6010E94F12118162CF588829982AA8220
:1035A000BB8280909A0590909B05A0909C05B0905E
:1035B0009D05C090A605D090A705E090A805F090C5
:1035C000A905A7019601C501B4010E94F1211816B1
:1035D000BCF4C0929A05D0929B05E0929C05F092B3
:1035E0009D051EC020E030E0A901C701B6010E9480
:1035F000922087FFD6CF188219821A821B82D1CFE0
:10360000C090A205D090A305E090A405F090A50578
:10361000A7019601C501B4010E94922087FDD9CF70
:103620001092AA051092AB051092AC051092AD0550
:1036300080E090E0AFE7B3E48093AE059093AF05F0
:10364000A093B005B093B105C1E0C093B3058BE47E
:1036500094E09093D3058093D2051092FA031092D0
:10366000F9031092280410924A040E94DB038DE2B1
:1036700091E09093F6038093F5038EE291E09093AE
:10368000F8038093F7030E94DB0360E080E00E9470
:10369000940580E496E09093D6058093D5058091BB
:1036A0000F06C093270480934904109228041092B7
:1036B0004A0460E08BE494E00E94600581E00E948F
:1036C0001A04C0910F060E9488026B017C01809150
:1036D0002104811164C081E080932104809320043F
:1036E0009FEF90931F0410921E0410921D0480936C
:1036F000FC038091FC03CC0FC82BC093FC0380918A
:10370000FB03813009F094C11092FB030E948802F0
:103710006B017C018091FC038093BB0080912304AA
:1037200090912404A0912504B0912604892B8A2B22
:103730008B2BA1F00E948802009123041091240495
:1037400020912504309126046C197D098E099F096A
:10375000061717072807390708F442C08091BC00F4
:1037600083FDD8CF85EC8093BC000E9488026B015A
:103770007C0180912104813009F45CC180911E0498
:1037800081117AC180911E04ADEFB3E0E5EDF3E065
:1037900090E0981751F12D9121939F5FFACF80917E
:1037A000230490912404A0912504B0912604892B30
:1037B0008A2B8B2B09F48BCF0E9488020091230463
:1037C0001091240420912504309126046C197D0960
:1037D0008E099F09061717072807390708F077CFC2
:1037E000809122040E94F90380E01092FA038093F2
:1037F000F9038BE494E00E941905C82F682F6F76B7
:10380000606180E00E94940563E08EEF0E94940561
:103810006C2F80E00E94940565E070E080E090E00D
:103820000E94AD026C2F616A80E00E949405C0E0A6
:1038300030E020E050E040E06C2F8FE096E00E9406
:10384000B205CF5FC031A1F7C091D005D091D105AD
:103850006091260570912705809128059091290592
:103860000E941021B0E16B9FA001112468818B811F
:103870009C810E94E60561E0CE010E944C0D64E04F
:10388000CE010E944C0DC091CE05D091CF05609124
:103890007A0570917B0580917C0590917D050E9451
:1038A000102180E1689FA001112468818B819C8197
:1038B0000E94E60561E0CE010E944C0D64E0CE015D
:1038C0000E944C0DC0E0D0E084E695E00E94EC023E
:1038D00088EB95E00E94EC0282E895E00E940807E0
:1038E0008EE295E00E94080743E753E061E080E143
:1038F00096E00E94330660917A0570917B05809175
:103900007C0590917D050E94FD0D4EE753E061E03E
:1039100080E196E00E9433066091260570912705AC
:1039200080912805909129050E94FD0D0091CE05FA
:103930001091CF0520917A0530917B0540917C054F
:1039400050917D05609108017091090180910A01F3
:1039500090910B010E94830D0091D0051091D1052B
:103960002091260530912705409128055091290581
:103970006091040170910501809106019091070109
:103980000E94830D409176055091770560917805EE
:103990007091790540932A0550932B0560932C056F
:1039A00070932D058091CA059091CB05A091CC050F
:1039B000B091CD0580937E0590937F05A0938005FF
:1039C000B09381054093F4085093F5086093F6088E
:1039D0007093F7088093F8089093F908A093FA0879
:1039E000B093FB08809122059091230560912005FA
:1039F00070912105DC01ED91FC910190F081E02DA9
:103A000042EF58E0099580E196E00E94A00F63E044
:103A100070E080E090E00E94AD02209709F454CF5E
:103A20000E949901882309F44FCF0E9400004CCFD7
:103A300085EE99CE8091230490912404A0912504D1
:103A4000B0912604892B8A2B8B2B09F492CE0E94ED
:103A500088020091230410912404209125043091C0
:103A600026046C197D098E099F0906171707280778
:103A7000390708F07ECEB4CE81E086CEEF920F9368
:103A80001F93CF93DF93E80134E047FD34E1042E28
:103A9000000C550B57FF03C0519541955109E32E7A
:103AA000022F242FAE010E945C1DCE01DF91CF9129
:103AB0001F910F91EF900895A9E0B0E0E2E6FDE1DB
:103AC0000C94C31F6A01F22EB02E102FFBE3AF2E11
:103AD000A01608F41BE31F5F012F27E0AE014F5F24
:103AE0005F4F0E94BB1EBC018981982F9970913055
:103AF00009F43FC09BE2E1FC04C09E2D9170E0FC04
:103B00003AC05E2D5071E82FE87083FF46C084E014
:103B1000911101C083E0EF2DE81B8F1508F0E0E064
:103B2000D6018E2F20E2552351F1992329F0D60199
:103B30009C93C60101966C0196012D5F3F4FE2FEFA
:103B400024C08EE4D6018C9391E411969C93119736
:103B500012968C93D9018E2F90E281111BC0E20F37
:103B6000F32FF11D10828EEF9FEF2996ECE00C945D
:103B7000DF1F9DE2C6CF90E2C4CF2D93815081110B
:103B8000FCCFCE0ED11CE0E0D0CF8EE6D6018C93D8
:103B900091E6DBCF9D938150E0CF482F447082FFA8
:103BA0003DC084E0911101C083E08F1510F4EF2D2A
:103BB000E81BD6018E2F20E2552309F1992329F025
:103BC000D6019C93C60101966C0196012D5F3F4F73
:103BD000E2FE1BC089E4D6018C938EE411968C938F
:103BE000119786E412968C93D9018E2F90E2882348
:103BF00009F4B5CF9D938150FACF2D938150811157
:103C0000FCCFCE0ED11CE0E0D9CF89E6D6018C9353
:103C10008EE611968C93119786E6E4CF9B0177FF91
:103C200002C030E020E0A1E0B0E0911102C0B0E0BD
:103C3000A0E0F9013196AE0FBF1F8B2C912CBB2059
:103C400009F461C05401EFEFAE1ABE0AAA0DBB1D04
:103C5000FA161B0619F014F04F2D4A1B511188C09B
:103C6000E3FC59C07601A42FB0E2A1114FC0C40EED
:103C7000D11C992309F45BC040E0D6011196F601EE
:103C800090836D01552309F448C0012F060F9A81D6
:103C9000582F507184FF03C0913309F4015010165E
:103CA0000CF047C0093008F008E0EEE2FE2E5B01A0
:103CB000A01AB10885019194819491082F3F320791
:103CC00029F4D601FC92F60131966F016217730751
:103CD00094F1021713077CF5DB01A21BB30BAA2496
:103CE000A394B12CAC0EBD1EAA0DBB1D11968C91D8
:103CF00021503109D601119628153905F4F0F60145
:103D000080836D01DBCFB12CA12CA0CFF701B19343
:103D10007F01A150AACF9111B0CFD601942F50E3CB
:103D200002C05D9391509111FCCFC40ED11C40E0B4
:103D3000ACCF01E0BACF80E3DBCF6217730731F479
:103D4000963388F4953311F4552369F0F601808396
:103D5000FD01842F90E2811108C0A40FB11D1C92B7
:103D600090E080E002CF81E3F1CF91938150F3CFD7
:103D7000911183CF8ACF283008F027E03327DA016A
:103D8000990F311D87FD916000966105710539F429
:103D900032602E5F3D9330E32A95E1F708959F3F0F
:103DA00030F080387105610509F03C5F3C5F3D9360
:103DB000913008F08068911DDF93CF931F930F938C
:103DC000FF92EF92192F987F9695E92F96959695E9
:103DD000E90FFF27EE53FF4F99273327EE24FF24E7
:103DE000A701E70105900894079428F4360FE71E11
:103DF000F81E491F511D660F771F881F991F0694D3
:103E0000A1F70590079428F4E70EF81E491F561FE6
:103E1000C11D770F881F991F661F0694A1F7059093
:103E2000079428F4F80E491F561FC71FD11D880F8D
:103E3000991F661F771F0694A1F70590079420F439
:103E4000490F561FC71FD81F990F661F771F881F5E
:103E50000694A9F784911095177041F0D695C795EF
:103E600057954795F794E7941A95C1F7E8E6F0E07F
:103E700068941590159135916591959105907FE223
:103E80007395E118F10A430B560BC90BD009C0F723
:103E9000E10CF11E431F561FC91FD01D7EF4703365
:103EA00011F48A95E6CFE894015030F0080F0AF437
:103EB0000027021708F4202F2395022F7A3328F0C9
:103EC00079E37D932A95E9F710C07D932A9589F6C9
:103ED000069497956795379517951794E118F10A09
:103EE000430B560BC90BD00998F023957E9173951F
:103EF0007A3308F070E37C932013B8F77E917061F9
:103F00007D9330F0839571E37D9370E32A95E1F71B
:103F10001124EF90FF900F911F91CF91DF9199277E
:103F200087FD90950895052E97FB1EF400940E943E
:103F3000AA1F57FD07D00E94F41F07FC03D04EF4C0
:103F40000C94AA1F50954095309521953F4F4F4FA7
:103F50005F4F089590958095709561957F4F8F4F35
:103F60009F4F08950E941620A59F900DB49F900D1D
:103F7000A49F800D911D112408952F923F924F927E
:103F80005F926F927F928F929F92AF92BF92CF92E9
:103F9000DF92EF92FF920F931F93CF93DF93CDB7F2
:103FA000DEB7CA1BDB0B0FB6F894DEBF0FBECDBF6A
:103FB00009942A88398848885F846E847D848C843B
:103FC0009B84AA84B984C884DF80EE80FD800C8144
:103FD0001B81AA81B981CE0FD11D0FB6F894DEBF27
:103FE0000FBECDBFED010895A1E21A2EAA1BBB1B87
:103FF000FD010DC0AA1FBB1FEE1FFF1FA217B307B5
:10400000E407F50720F0A21BB30BE40BF50B661FCA
:10401000771F881F991F1A9469F76095709580958E
:1040200090959B01AC01BD01CF010895A29FB00105
:10403000B39FC001A39F700D811D1124911DB29FDC
:10404000700D811D1124911D08955058BB27AA277A
:104050000E943D200C94B7210E94A92138F00E94B3
:10406000B02120F039F49F3F19F426F40C94A621D6
:104070000EF4E095E7FB0C94A021E92F0E94C821E3
:1040800058F3BA17620773078407950720F079F48D
:10409000A6F50C94EA210EF4E0950B2EBA2FA02D74
:1040A0000B01B90190010C01CA01A0011124FF27E5
:1040B000591B99F0593F50F4503E68F11A16F040E0
:1040C000A22F232F342F4427585FF3CF46953795DF
:1040D0002795A795F0405395C9F77EF41F16BA0BA4
:1040E000620B730B840BBAF09150A1F0FF0FBB1F52
:1040F000661F771F881FC2F70EC0BA0F621F731F9B
:10410000841F48F4879577956795B795F7959E3FF7
:1041100008F0B0CF9395880F08F09927EE0F979588
:10412000879508950E947C2108F481E008950E94FB
:10413000AB200C94B7210E94B02158F00E94A92115
:1041400040F029F45F3F29F00C94A02151110C9408
:10415000EB210C94A6210E94C82168F39923B1F3A6
:10416000552391F3951B550BBB27AA27621773079D
:10417000840738F09F5F5F4F220F331F441FAA1F31
:10418000A9F335D00E2E3AF0E0E832D091505040ED
:10419000E695001CCAF72BD0FE2F29D0660F771F9B
:1041A000881FBB1F261737074807AB07B0E809F081
:1041B000BB0B802DBF01FF2793585F4F3AF09E3F06
:1041C000510578F00C94A0210C94EB215F3FE4F3AF
:1041D000983ED4F3869577956795B795F7959F5F49
:1041E000C9F7880F911D9695879597F90895E1E095
:1041F000660F771F881FBB1F621773078407BA07F4
:1042000020F0621B730B840BBA0BEE1F88F7E0954E
:1042100008950E9410216894B1110C94EB21089527
:104220000E94D02188F09F5798F0B92F9927B75155
:10423000B0F0E1F0660F771F881F991F1AF0BA954A
:10424000C9F714C0B13091F00E94EA21B1E008959D
:104250000C94EA21672F782F8827B85F39F0B93F8F
:10426000CCF3869577956795B395D9F73EF49095FD
:104270008095709561957F4F8F4F9F4F0895E8947B
:1042800009C097FB3EF490958095709561957F4F9E
:104290008F4F9F4F9923A9F0F92F96E9BB2793954C
:1042A000F695879577956795B795F111F8CFFAF45C
:1042B000BB0F11F460FF1BC06F5F7F4F8F4F9F4F8D
:1042C00016C0882311F096E911C0772321F09EE8EB
:1042D000872F762F05C0662371F096E8862F70E051
:1042E00060E02AF09A95660F771F881FDAF7880F2B
:1042F0009695879597F90895990F0008550FAA0B81
:10430000E0E8FEEF16161706E807F907C0F01216E8
:104310001306E407F50798F0621B730B840B950BEB
:1043200039F40A2661F0232B242B252B21F4089540
:104330000A2609F4A140A6958FEF811D811D0895DD
:1043400097F99F6780E870E060E008959FEF80EC48
:10435000089500240A9416161706180609060895EB
:1043600000240A9412161306140605060895092E51
:104370000394000C11F4882352F0BB0F40F4BF2BC0
:1043800011F460FF04C06F5F7F4F8F4F9F4F089500
:1043900057FD9058440F551F59F05F3F71F04795F6
:1043A000880F97FB991F61F09F3F79F087950895DB
:1043B000121613061406551FF2CF4695F1DF08C0FA
:1043C000161617061806991FF1CF86957105610517
:1043D00008940895E894BB2766277727CB0197F9BF
:1043E00008950E947C2108F48FEF08950E9409220D
:1043F0000C94B7210E94A92138F00E94B02120F02E
:10440000952311F00C94A0210C94A62111240C9456
:10441000EB210E94C82170F3959FC1F3950F50E0E6
:10442000551F629FF001729FBB27F00DB11D639F66
:10443000AA27F00DB11DAA1F649F6627B00DA11D0C
:10444000661F829F2227B00DA11D621F739FB00DB2
:10445000A11D621F839FA00D611D221F749F332722
:10446000A00D611D231F849F600D211D822F762FBB
:104470006A2F11249F5750409AF0F1F088234AF098
:10448000EE0FFF1FBB1F661F771F881F9150504004
:10449000A9F79E3F510580F00C94A0210C94EB21CC
:1044A0005F3FE4F3983ED4F3869577956795B7958B
:1044B000F795E7959F5FC1F7FE2B880F911D9695A5
:1044C000879597F90895DB018F939F930E94B21F00
:1044D000BF91AF91A29F800D911DA39F900DB29FA0
:1044E000900D1124089597FB072E16F4009407D021
:1044F00077FD09D00E94872207FC05D03EF49095F5
:1045000081959F4F0895709561957F4F0895AA1BDF
:10451000BB1B51E107C0AA1FBB1FA617B70710F0AE
:10452000A61BB70B881F991F5A95A9F780959095E0
:10453000BC01CD010895EE0FFF1F0590F491E02D11
:104540000994B0E0A0E0E7EAF2E20C94BF1F8C010E
:10455000009751F4CB010E9467238C01C801CDB7AD
:10456000DEB7E0E10C94DB1FFC01E60FF71F9C01B6
:1045700022503109E217F30708F49DC0D901CD910B
:10458000DC911197C617D70798F0C530D10530F3E5
:10459000CE0104978617970708F3C61BD70B2297FF
:1045A000C193D1936D937C93CF010E940324D6CF06
:1045B0005B01AC1ABD0A4C018C0E9D1EA091FE0839
:1045C000B091FF08512C412CF12CE12C109731F5C2
:1045D0008091FC089091FD088815990509F05CC050
:1045E0004616570608F058C080910C0190910D01B5
:1045F000009741F48DB79EB7409110015091110181
:10460000841B950BE817F90708F055C0F093FD08D7
:10461000E093FC08F90171836083A0CF8D919C9198
:10462000119712966C90129713967C901397A81579
:10463000B90559F56C0142E0C40ED11CCA14DB0463
:1046400020F1AC014A195B09DA011296159780F046
:104650006282738251834083D9016D937C93E1140C
:10466000F10471F0D7011396FC93EE93129776CF75
:1046700022968C0F9D1FF90191838083F301EFCF68
:10468000F093FF08E093FE0869CF4816590608F436
:104690002C017D01D3019ACFCB010E9467237C01BD
:1046A000009749F0AE01B8010E945E23C8010E9444
:1046B0000324870153CF10E000E050CFFB01DC0161
:1046C00002C001900D9241505040D8F708950F93C9
:1046D0001F93CF93DF938230910510F482E090E036
:1046E000E091FE08F091FF0830E020E0B0E0A0E0AB
:1046F000309799F42115310509F44AC0281B390B6C
:1047000024303105D8F58A819B816115710589F1C5
:10471000FB0193838283FE0111C04081518102819C
:10472000138148175907E0F04817590799F4109773
:1047300061F012960C93129713961C933296CF0148
:10474000DF91CF911F910F9108950093FE08109370
:10475000FF08F4CF2115310551F04217530738F007
:10476000A901DB019A01BD01DF01F801C1CFEF0111
:10477000F9CF9093FF088093FE08CDCFFE01E20FA2
:10478000F31F819391932250310939832883D7CF26
:104790002091FC083091FD08232B41F420910E015B
:1047A00030910F013093FD082093FC0820910C01FB
:1047B00030910D012115310541F42DB73EB74091DF
:1047C000100150911101241B350BE091FC08F09170
:1047D000FD08E217F307A0F42E1B3F0B281739073B
:1047E00078F0AC014E5F5F4F2417350748F04E0F4D
:1047F0005F1F5093FD084093FC08819391939FCFD6
:10480000F0E0E0E09CCFCF93DF930097E9F0FC016C
:10481000329713821282A091FE08B091FF08ED0139
:1048200030E020E01097A1F420813181820F931FA6
:104830002091FC083091FD082817390709F061C064
:10484000F093FD08E093FC08DF91CF910895EA0111
:10485000CE17DF07E8F54A815B819E0141155105BE
:10486000B1F7E901FB83EA8349915991C40FD51F40
:10487000EC17FD0761F4808191810296840F951FEA
:10488000E90199838883828193819B838A83F0E005
:10489000E0E012968D919C9113970097B9F52D91B8
:1048A0003C911197CD010296820F931F2091FC0835
:1048B0003091FD082817390739F6309751F51092D5
:1048C000FF081092FE08B093FD08A093FC08BCCF2F
:1048D000D383C28340815181840F951FC817D907A4
:1048E00061F44E5F5F4F88819981480F591F518352
:1048F00040838A819B81938382832115310509F04E
:10490000B0CFF093FF08E093FE089ECFFD01DC01DD
:10491000C0CF13821282D7CFF894FFCFEB02EB0205
:104920000000003F0000003F000000098000726F9F
:104930007373657269616C5F6D7367732F52657114
:1049400075657374506172616D000000000015148C
:10495000440941093E0900000000E513E808E508A4
:10496000E20800000000810A3B0A380A350A00000C
:104970000000CF012F015C011C028D016B017F0142
:104980000000000060053305AF052C012C0519055A
:104990000A0500000000930C8D0BD908D608000012
:1049A0000000C30CB70BF405F10500000000021372
:1049B0001D0EDF08DC08000000005506A00FEC0506
:1049C000000000006F0C6D0BD308D0080000000041
:1049D000D30BF705F405F1053966313935663838FA
:1049E0003132343666646661323739386431643363
:1049F00065656263613834610067656F6D65747207
:104A0000795F6D7367732F5477697374004D6573A5
:104A1000736167652066726F6D2064657669636592
:104A20002064726F707065643A206D65737361679E
:104A300065206C6172676572207468616E206275B2
:104A4000666665722E00613130333738373039622F
:104A5000313464346336656632383735376632321E
:104A6000343632653366006D617A655F726F626FEE
:104A7000742F4D617A65526F626F745374617465FF
:104A8000003461383432623635663431333038348C
:104A9000646332623130666234383465613766315E
:104AA000370067656F6D657472795F6D7367732F1B
:104AB000566563746F7233003966306539386264E5
:104AC0006136353938313938366464663533616674
:104AD00061376134306534390031316162643733B4
:104AE00031633235393333323631636436313833FA
:104AF00062643132643632393500726F73736572B5
:104B000069616C5F6D7367732F4C6F670030616410
:104B10003531663838666334343839326638633153
:104B20003036383430373736343630303500726FFF
:104B30007373657269616C5F6D7367732F546F7007
:104B40006963496E666F00636437313636633734A4
:104B5000633535326333313166626363326665359E
:104B600061376263323839007374645F6D736773E1
:104B70002F54696D65006D617A655F726F626F7445
:104B80005F737461746500636D645F76656C005279
:104B9000696768742050574D3A004C656674205020
:044BA000574D3A0033
:107E0000112484B714BE81FFF0D085E080938100F7
:107E100082E08093C00088E18093C10086E0809377
:107E2000C20080E18093C4008EE0C9D0259A86E02C
:107E300020E33CEF91E0309385002093840096BBD3
:107E4000B09BFECF1D9AA8958150A9F7CC24DD24C4
:107E500088248394B5E0AB2EA1E19A2EF3E0BF2EE7
:107E6000A2D0813461F49FD0082FAFD0023811F036
:107E7000013811F484E001C083E08DD089C08234E0
:107E800011F484E103C0853419F485E0A6D080C0E4
:107E9000853579F488D0E82EFF2485D0082F10E0AE
:107EA000102F00270E291F29000F111F8ED06801E7
:107EB0006FC0863521F484E090D080E0DECF843638
:107EC00009F040C070D06FD0082F6DD080E0C81688
:107ED00080E7D80618F4F601B7BEE895C0E0D1E017
:107EE00062D089930C17E1F7F0E0CF16F0E7DF06D8
:107EF00018F0F601B7BEE89568D007B600FCFDCFD4
:107F0000A601A0E0B1E02C9130E011968C91119780
:107F100090E0982F8827822B932B1296FA010C0160
:107F200087BEE89511244E5F5F4FF1E0A038BF0790
:107F300051F7F601A7BEE89507B600FCFDCF97BE46
:107F4000E89526C08437B1F42ED02DD0F82E2BD052
:107F50003CD0F601EF2C8F010F5F1F4F84911BD097
:107F6000EA94F801C1F70894C11CD11CFA94CF0C13
:107F7000D11C0EC0853739F428D08EE10CD085E9AC
:107F80000AD08FE07ACF813511F488E018D01DD067
:107F900080E101D065CF982F8091C00085FFFCCF94
:107FA0009093C60008958091C00087FFFCCF809118
:107FB000C00084FD01C0A8958091C6000895E0E648
:107FC000F0E098E1908380830895EDDF803219F02E
:107FD00088E0F5DFFFCF84E1DECF1F93182FE3DFCA
:107FE0001150E9F7F2DF1F91089580E0E8DFEE27F6
:047FF000FF270994CA
:027FFE00040479
:00000001FF
