:100000000C94DA000C944D130C9426130C940201FA
:100010000C9402010C9402010C9402010C94020154
:100020000C9402010C9402010C9402010C94020144
:100030000C9402010C9402010C9402010C94020134
:100040000C94DC120C9402010C94AA120C948412ED
:100050000C9402010C9402010C9402010C94020114
:100060000C9474130C94020100407A10F35A00A00F
:10007000724E18090010A5D4E80000E87648170071
:1000800000E40B54020000CA9A3B000000E1F505B1
:10009000000080969800000040420F000000A086FB
:1000A00001000000102700000000E803000000002D
:1000B0006400000000000A000000000001000000D1
:1000C00000002C76D888DC674F0823DFC1DFAE59EB
:1000D000E1B1B796E5E3E453C63AE651997696E87E
:1000E000E6C28426EB898C9B62ED407C6FFCEFBC02
:1000F0009C9F40F2BAA56FA5F490055A2AF75C932D
:100100006B6CF9676DC11BFCE0E40D47FEF520E662
:10011000B500D0ED902E0300943577050080841E45
:10012000080000204E0A000000C80C333333330FA0
:10013000986E12831141EF8D2114893BE65516CF3D
:10014000FEE6DB18D1844B381BF77C1D901DA4BB49
:10015000E424203284725E228100C9F124ECA1E5FE
:100160003D2700000000240027002A0000000000B6
:10017000250028002B0004040404040404040202E3
:100180000202020203030303030301020408102016
:100190004080010204081020010204081020000021
:1001A0000008000201000003040700000000000036
:1001B0000000931411241FBECFEFD8E0DEBFCDBFE7
:1001C00013E0A0E0B1E0E4E3F0E402C005900D929A
:1001D000AA38B107D9F728E0AAE8B3E001C01D9218
:1001E000A639B207E1F710E0CAEDD0E004C02197CC
:1001F000FE010E94181EC93DD107C9F70E942217AF
:100200000C9418200C9400008091460590914705AD
:10021000A0914805B09149050196A11DB11D80939B
:10022000460590934705A0934805B0934905089566
:100230008091280590912905A0912A05B0912B0560
:100240000196A11DB11D8093280590932905A093C7
:100250002A05B0932B05089508950895AF92BF9293
:10026000CF92DF92EF92FF920F931F93CF93DF9382
:100270006C017B018B01040F151FEB015E01AE18B1
:10028000BF08C017D10759F06991D601ED91FC91D3
:100290000190F081E02DC6010995892B79F7C50100
:1002A000DF91CF911F910F91FF90EF90DF90CF9052
:1002B000BF90AF900895FC01538D448D252F30E001
:1002C000842F90E0821B930B541710F0CF96089563
:1002D00001970895FC01918D828D981761F0A28D90
:1002E000AE0FBF2FB11D5D968C91928D9F5F9F7356
:1002F000928F90E008958FEF9FEF0895FC01918D0C
:10030000828D981731F0828DE80FF11D858D90E078
:1003100008958FEF9FEF0895FC01918D228D892F15
:1003200090E0805C9F4F821B91098F7399270895FD
:1003300089E594E00E948C0121E0892B09F420E0FA
:10034000822F089580E090E0892B29F00E94980187
:1003500081110C9400000895FC01A48DA80FB92F01
:10036000B11DA35ABF4F2C91848D90E001968F73DD
:100370009927848FA689B7892C93A089B1898C91FC
:10038000837080648C93938D848D981306C002884B
:10039000F389E02D80818F7D80830895EF92FF9215
:1003A0000F931F93CF93DF93EC0181E0888F9B8D98
:1003B0008C8D98131AC0E889F989808185FF15C052
:1003C0009FB7F894EE89FF896083E889F989808175
:1003D0008370806480839FBF81E090E0DF91CF9144
:1003E0001F910F91FF90EF900895F62E0B8D10E066
:1003F0000F5F1F4F0F731127E02E8C8D8E110CC0D5
:100400000FB607FCFACFE889F989808185FFF5CF1F
:10041000CE010E94AC01F1CFEB8DEC0FFD2FF11D51
:10042000E35AFF4FF0829FB7F8940B8FEA89FB895C
:1004300080818062CFCFCF93DF93EC01888D8823BA
:10044000B9F0AA89BB89E889F9898C9185FD03C037
:10045000808186FD0DC00FB607FCF7CF8C9185FF1C
:10046000F2CF808185FFEDCFCE010E94AC01E9CFB4
:10047000DF91CF91089590E0FC01E256FE4F249168
:10048000FC01E657FE4F3491FC01EA58FE4FE4911F
:10049000EE23C9F0222339F0233001F1A8F42130F2
:1004A00019F1223029F1F0E0EE0FFF1FE459FE4F61
:1004B000A591B4918FB7F894EC91611126C0309555
:1004C0003E233C938FBF08952730A9F02830C9F010
:1004D000243049F7809180008F7D03C08091800097
:1004E0008F7780938000DFCF84B58F7784BDDBCF9B
:1004F00084B58F7DFBCF8091B0008F778093B00063
:10050000D2CF8091B0008F7DF9CF3E2BDACF3FB7AD
:10051000F8948091D3039091D403A091D503B09126
:10052000D60326B5A89B05C02F3F19F00196A11D43
:10053000B11D3FBFBA2FA92F982F8827BC01CD012D
:10054000620F711D811D911D42E0660F771F881F8C
:10055000991F4A95D1F708958F929F92AF92BF92BB
:10056000CF92DF92EF92FF924B015C010E948702D3
:100570006B017C010E9487026C197D098E099F091D
:10058000683E734081059105A8F321E0821A910825
:10059000A108B10888EEC80E83E0D81EE11CF11C4A
:1005A00081149104A104B10429F7FF90EF90DF902A
:1005B000CF90BF90AF909F908F9008952FB7F894F1
:1005C0006091CF037091D0038091D1039091D203B9
:1005D0002FBF089508954F925F926F927F928F92EE
:1005E0009F92AF92BF92CF92DF92EF92FF920F93C2
:1005F0001F93CF93DF93EC010E94DE020E94011D46
:100600006B017C012A853B854C855D850E941D1C04
:100610004B015C01AC019B016A897B898C899D89B6
:100620000E948A1C18160CF440C00A811B81F80134
:1006300040815181628173818E819F81481B590B5A
:10064000BA01550F880B990B0E94031D2B013C0129
:100650006E857F85888999890E94011D9B01AC0167
:10066000C301B2010E948F1C2B013C0120E030E04D
:100670004AE754E4C501B4010E948F1C9B01AC0100
:10068000C301B2010E948F1C6E8B7F8B888F998F64
:10069000CA86DB86EC86FD86F80180819181A28185
:1006A000B3818E839F83A887B987DF91CF911F91F4
:1006B0000F91FF90EF90DF90CF90BF90AF909F9001
:1006C0008F907F906F905F904F900895CF93DF93BE
:1006D000DC012D913C9111973327F901E657FE4F2C
:1006E00094912A583E4FF90124912223C9F030E019
:1006F000220F331FF901EE59FE4F45915491F90134
:10070000E459FE4FC591D4912FB7F894FA01308186
:10071000892F809583238083E8819E2B98832FBF28
:1007200014968D919C9115972D913C912230310515
:1007300089F02330310559F490930301809302012D
:1007400080916900837F846080936900E99ADF91DA
:10075000CF910895909301018093000180916900E9
:100760008C7F816080936900E89AF1CF2091AB0380
:10077000260F3327331F21323105ECF42091230457
:10078000FC0190E080E0243069F082E00895A091BF
:10079000AB032191AC0145575C4FA40FB52FB11DA0
:1007A0002C930196861798F38091AB03680F6093A2
:1007B000AB0380E0089581E008951092230481E066
:1007C000809322041092FD0361E082E10E943B02CB
:1007D00061E083E10E943B02E9EBF0E080818E7FE3
:1007E000808380818D7F808388E48093B80085E456
:1007F0008093BC000895CF93DF9391E090938A0398
:100800008823B9F0C091B800D091BA008091BC00A3
:100810008A7B8093BC0060E082E10E943B0260E042
:1008200083E10E943B020E94DD03D093BA00C09393
:10083000B800DF91CF9108958F929F92AF92BF92AF
:10084000CF92DF92EF92FF920F931F93CF93DF939C
:10085000D0914C04D13208F0D7C0182FC0914B046E
:100860000E9487026B017C018091230481116BC07F
:1008700082E080932304109322048FEF809321045D
:1008800010922004D0931F04ABE2B4E0EFEFF3E04A
:1008900080E0D81391C01092FE038091FE03CC0F2C
:1008A000C82BC093FE038091FD03813009F088C0FE
:1008B0001092FD030E9487026B017C018091FE0370
:1008C0008093BB008091250490912604A091270479
:1008D000B0912804892B8A2B8B2BA1F00E948702D0
:1008E00000912504109126042091270430912804BA
:1008F0006C197D098E099F09061717072807390704
:1009000008F442C08091BC0083FDD8CF85EC809371
:10091000BC000E9487026B017C018091230482301D
:1009200009F450C0809121048F3F09F46FC0809179
:100930002104803209F46CC080912104803309F4D1
:1009400069C084E026C08091250490912604A0917E
:100950002704B0912804892B8A2B8B2B09F484CF90
:100960000E9487028090250490902604A09027047E
:10097000B09028046C197D098E099F098616970688
:10098000A806B90608F070CF809124040E94FB03EA
:1009900085E010922A0410924C0410922904DF91F1
:1009A000CF911F910F91FF90EF90DF90CF90BF906C
:1009B000AF909F908F9008959D9191938F5F69CF95
:1009C00085EEA5CF8091250490912604A09127045F
:1009D000B0912804892B8A2B8B2B09F49ECF0E947F
:1009E000870200912504109126042091270430915C
:1009F00028046C197D098E099F0906171707280717
:100A0000390708F08ACFC0CF81E0C3CF80E0C1CFE3
:100A100082E0BFCF83E0BDCF0895E091FC038091D9
:100A2000FB03E81730F4F0E0E952FC4F808190E0DE
:100A300008958FEF9FEF08959091FC038091FB0341
:100A40002FEF3FEF981748F4E92FF0E0E952FC4F01
:100A5000208130E09F5F9093FC03C901089580914D
:100A6000FB039091FC03891B990B0895CF92DF92B1
:100A7000EF92FF920F931F93CF93DF937C01CB01F3
:100A80008A0120912904222389F0EB016B01C40E15
:100A9000D51ECC15DD0569F06991D701ED91FC916A
:100AA0000190F081E02DC7010995F3CF642F0E94DA
:100AB000B603C801DF91CF911F910F91FF90EF9086
:100AC000DF90CF900895CF93DF931F92CDB7DEB71D
:100AD0006983209129042223F9F020914C042032CB
:100AE00058F021E030E0FC013383228390E080E085
:100AF0000F90DF91CF91089580912A04E82FF0E0C4
:100B0000E55DFB4F998190838F5F80932A048093EA
:100B10004C0481E090E0ECCF61E0CE0101960E94B0
:100B2000B603F7CF682F8DE494E00C946305CF9360
:100B3000C62F9091A50521E02093290490934B04A2
:100B400010922A0410924C04682F8DE494E00E94C5
:100B500063056C2F8DE494E00E94630581E0CF91E2
:100B60000C941C040F931F93CF93DF93042FD52F66
:100B7000122FC32FFC01808191E090932904809370
:100B80004B0410922A0410924C04F4E06F9FB001C1
:100B900011246A5F7F4F8DE494E00E946305802FEB
:100BA0009D2F0E9492058D2F90E00E949205812F2B
:100BB0009C2F0E9492058C2F90E00E94920581E06C
:100BC000DF91CF911F910F910C941C04FC0180E1E7
:100BD000689F900111248381948150E040E06081FE
:100BE000CD960C94B20590E080E008958A549D4F14
:100BF000FC018081089584EB91E0089585ED91E0FA
:100C00000895FC0186A197A108950F931F93CF9398
:100C1000DF93CDB7DEB72A970FB6F894DEBF0FBECD
:100C2000CDBF8C0182E491E09A8389831B821C8270
:100C30001D821E821F82188619861A86D801ED91A0
:100C4000FC910190F081E02DAE014F5F5F4F6AE0B3
:100C500070E0C80109950E94DE02F8016087718783
:100C6000828793872A960FB6F894DEBF0FBECDBF5A
:100C7000DF91CF911F910F910895CF93DF9300D013
:100C800000D01F92CDB7DEB726E331E03A83298347
:100C90006B835D834C83DC01ED91FC910190F081CD
:100CA000E02DAE014F5F5F4F67E070E009950F9058
:100CB0000F900F900F900F90DF91CF9108950F93A9
:100CC0001F93CF93DF93643671054CF0FC01EA5417
:100CD000FD4F208110E000E0222309F44DC0DA012D
:100CE0008B01EC01BC01695C7E4FED91FC910190A0
:100CF000F081E02DCA010995BE01605D7E4F2FEFA6
:100D0000DB012C93FE01EF5CFE4F2EEF208331962A
:100D10008083319690833196292F280F2095208348
:100D20003196008316961C9345E050E030E020E0B9
:100D30008C010A5F1F4F0417150734F0A1912A0F89
:100D4000311D4F5F5F4FF7CF8C01085F1F4F8C0F36
:100D50009D1FFC01E95CFE4F209520830931B1E025
:100D60001B0784F48A819B81DC01ED91FC91028058
:100D7000F381E02DA8010995C801DF91CF911F9162
:100D80000F91089549EE51E063E0CE010E943D06C7
:100D90000FEF1FEFF1CFCF92DF92EF92FF92DC01C6
:100DA0001D921D921D921C921397FB0130E020E0D2
:100DB000419150E0022E02C0440F551F0A94E2F701
:100DC000052E000C660B770BCD90DD90ED90FC901E
:100DD00013974C295D296E297F294D935D936D935F
:100DE0007C931397285F3F4F2032310509F7FF901E
:100DF000EF90DF90CF900895FC01408351831282E1
:100E00001382089582E292E0089583E492E00895C7
:100E10008DE592E008958EE792E0089584E992E0EE
:100E200008958AE091E0089585EB92E0089586EDBB
:100E300092E008954F925F926F927F928F929F926D
:100E4000AF92BF92EF92FF920F931F93CF93DF93D6
:100E500000D000D0CDB7DEB77C018B01FB018191C2
:100E6000BF01F7018283CE0101960E94CB068981E2
:100E70009A81AB81BC814C015D01F5E08F0E911C24
:100E8000A11CB11CA8014C5F5F4FFA0125E030E0C6
:100E90002901712C612C481459046A047B0428F43C
:100EA000618161932F5F3F4FF3CFF801E80FF91F86
:100EB0001482F7015483438305960F900F900F908F
:100EC0000F90DF91CF911F910F91FF90EF90BF9006
:100ED000AF909F908F907F906F905F904F9008950C
:100EE00089EE92E008958AE093E008954F925F9230
:100EF0006F927F928F929F92AF92BF92CF92DF922A
:100F0000EF92FF920F931F93CF93DF93CDB7DEB78E
:100F10002C970FB6F894DEBF0FBECDBF7C018B01BE
:100F2000DB018C9190E0F7019383828311962C91E1
:100F3000922B938382836E5F7F4FCE0101960E9436
:100F4000CB0689809A80AB80BC8024013501F6E015
:100F50004F0E511C611C711C98012B5F3F4FF90112
:100F600086E090E0AC0170E060E044155505660550
:100F7000770520F4418141930196F4CFB4016A5F73
:100F80007F4FF801E80DF91D1582D70115963C93A6
:100F90002E931497600F711FCE0105960E94CB0609
:100FA000BAE08B0E911C4D805E806F807884C40106
:100FB000092C000CAA0BBB0B5C016D01A40CB51C29
:100FC000C61CD71CF801E80DF91DAF01401B510BE1
:100FD00070E060E04A155B056C057D0538F42191F1
:100FE000AF0142505109DA012C93EFCF480C591C44
:100FF000B801640D751DFB0131971082C401019782
:10100000800F911FF70197838683CE0109960E9476
:10101000CB0692012C5F3F4F89849A84AB84BC84B9
:10102000A901032E000C660B770B480D591D6A1D94
:101030007B1DF801E20FF31FCF01801B910BB0E085
:10104000A0E084179507A607B70728F48191DF0170
:1010500012978C93F1CFC901880D991DF801E80F03
:10106000F91FDF0111971C9221503109020F131F44
:10107000D70119961C930E9318972181428150E055
:1010800070E060E0BA0155274427522B2081422BA3
:101090002381722BF70142875387648775870496F3
:1010A0002C960FB6F894DEBF0FBECDBFDF91CF9167
:1010B0001F910F91FF90EF90DF90CF90BF90AF9076
:1010C0009F908F907F906F905F904F90089583E2F4
:1010D00093E0089584E493E00895FC01DB014C91D2
:1010E00050E070E060E0428353836483758311961F
:1010F0008C911197582B4283538364837583129686
:101100008C911297682B4283538364837583139663
:101110008C911397782B4283538364837583149641
:101120004C91149750E070E060E0468357836087ED
:10113000718715968C911597582B46835783608736
:10114000718716968C911697682B46835783608714
:10115000718717968C91782B4683578360877187A8
:1011600088E090E00895DC01FB0112968C911297C3
:10117000808313968C911397818314968C91149786
:10118000828315968C911597838316968C9116976A
:10119000848317968C911797858318968C9118974E
:1011A000868319968C91878388E090E00895CF928A
:1011B000DF92EF92FF920F931F93DC01FB011396D6
:1011C0000C91139710E030E020E084E036952795ED
:1011D000179507958A95D1F714964C91149750E07E
:1011E00070E060E094E0440F551F661F771F9A95EA
:1011F000D1F7042B152B262B372B15969C91159781
:10120000492F50E070E060E08CE0440F551F661FEE
:10121000771F8A95D1F7042B152B262B372B169683
:10122000CC901697D12CF12CE12CB701A60194E1BA
:10123000440F551F661F771F9A95D1F744275527EE
:10124000607F7727402B512B622B732B17960C91C5
:1012500080E1089F90011124207F3770D701C601DB
:1012600014E0B695A795979587951A95D1F7822B97
:10127000932B8F3F27E0920709F454C08F3724E067
:10128000920708F052C0813823E09207C4F18058D9
:1012900093404F3F2FEF52076207710509F04AC094
:1012A00010E030E020E0302F222711270027002710
:1012B0001127222730787695679557954795402BCB
:1012C000512B622B732B092E000CAA0BBB0B17E1C1
:1012D000880F991FAA1FBB1F1A95D1F7842B952B36
:1012E000A62BB72B80839183A283B38388E090E001
:1012F0001F910F91FF90EF90DF90CF900895893666
:1013000023E0920764F0716021E833E0281B390B79
:1013100004C076956795579547952A95D2F790E042
:1013200080E0B7CF8FEF90E0B4CF40E050E0BA015B
:101330008FEF90E04F5F5F4F6F4F7F4FB1CFEF92D6
:10134000FF920F931F93CF93DF93EC017B01BC01BE
:101350006E5F7F4FC7010E94D7088C01BE016A5F94
:101360007F4FC701800F911F0E94D708800F911FE8
:10137000DF91CF911F910F91FF90EF900895EF9221
:10138000FF920F931F93CF93DF938C017B01BC01DE
:101390006E5F7F4FC7010E94D708EC01B8016A5FFA
:1013A0007F4FC7018C0F9D1F0E94D708C80FD91F00
:1013B000B801665F7F4FC7018C0F9D1F0E94D70841
:1013C0008C0F9D1FDF91CF911F910F91FF90EF9098
:1013D0000895EF92FF920F931F93CF93DF937C01B9
:1013E000EB0102960E94BF098C01BE01680F791FB4
:1013F000C70140960E94BF09800F911FDF91CF91D6
:101400001F910F91FF90EF9008950F931F93CF932B
:10141000DF938C01EC012696CE010E94E909D801E8
:101420009496ED91FC91CE01DF91CF911F910F9198
:1014300009948F929F92AF92BF92CF92DF92EF92D8
:10144000FF921F93CF93DF93EC016A017B01DB01D5
:10145000CA0117E1B595A795979587951A95D1F784
:1014600099276F7777278F3F910509F463C000971D
:1014700009F449C080589C4F188219821A82242F7F
:101480002295220F207E2B834A015B0123E0B69434
:10149000A794979487942A95D1F78C824A015B018F
:1014A0003BE0B694A794979487943A95D1F78D82B0
:1014B000282F2295207FE3E17695679557954795EC
:1014C000EA95D1F7422B4E83F4E095958795FA95EE
:1014D000E1F7182F1F7720E030E0A901C701B6011E
:1014E0000E948A1C87FD29C01F8388E090E0DF915D
:1014F000CF911F91FF90EF90DF90CF90BF90AF9072
:101500009F908F900895411551056105710509F46B
:10151000B3CF440F551F661F771F80E893E067FD28
:1015200006C0440F551F661F771F0197F8CF6F77CE
:101530007727A2CF8FEF97E09FCF812F80688F838F
:10154000D4CFEF92FF920F931F93CF93DF937C0141
:101550008B01FC014281538164817581C8010E9425
:10156000190AEC01F7014681578160857185C80130
:101570008C0F9D1F0E94190A8C0F9D1FDF91CF9128
:101580001F910F91FF90EF900895EF92FF920F93AC
:101590001F93CF93DF937C018B01FC014281538128
:1015A00064817581C8010E94190AEC01F701468126
:1015B000578160857185C8018C0F9D1F0E94190A93
:1015C000C80FD91FF7014285538564857585C80109
:1015D0008C0F9D1F0E94190A8C0F9D1FDF91CF91C8
:1015E0001F910F91FF90EF900895EF92FF920F934C
:1015F0001F93CF93DF937C01EB0102960E94C50AF3
:101600008C01BE01680F791FC70140960E94C50A70
:10161000800F911FDF91CF911F910F91FF90EF905D
:101620000895CF93DF93EC016230D1F0643051F133
:101630006130C9F58B819C8130E020E050E040E0D2
:101640006A81CD960E94B2058B819C8130E020E0BA
:1016500040E050E16981CD96DF91CF910C94B205C5
:101660008B819C8130E020E050E040E06981CD96A4
:101670000E94B2058B819C8130E020E040E050E187
:101680006A81E9CF8B819C8130E020E050E040E02E
:101690006981CD960E94B2058B819C8130E020E06B
:1016A00050E040E0EDCFDF91CF91089585ED80933C
:1016B000BC008091250490912604A0912704B0914C
:1016C00028040796A11DB11D23E0B695A79597950F
:1016D00087952A95D1F72091BC0024FD03C0109274
:1016E0002304089540912504509126046091270415
:1016F00070912804452B462B472B69F30097A105D1
:10170000B10541F025E32A95F1F700000197A10901
:10171000B109E1CF809124040C94FB030F931F9334
:10172000CF93DF93CDB7DEB764970FB6F894DEBFE3
:101730000FBECDBF8E010F5F1F4F23E049E00E9417
:101740009119A80161E086EA95E00E943D06649641
:101750000FB6F894DEBF0FBECDBFDF91CF911F91C2
:101760000F910895CF93DF93EC0142E553E061E0E0
:1017700086EA95E00E943D066C817D818E819F8185
:101780000E948E0B47E553E061E086EA95E00E94F7
:101790003D06688579858A859B850E948E0B4CE580
:1017A00053E061E086EA95E00E943D066C857D8508
:1017B0008E859F850E948E0B41E653E061E086EAAC
:1017C00095E00E943D066A897B898C899D890E94EB
:1017D0008E0B46E653E061E086EA95E00E943D0606
:1017E0006E897F89888D998D0E948E0B4BE653E020
:1017F00061E086EA95E00E943D066A8D7B8D8C8DC6
:101800009D8DDF91CF910C948E0B2F923F924F9232
:101810005F926F927F928F929F92AF92BF92CF9280
:10182000DF92EF92FF920F931F93CF93DF93CDB789
:10183000DEB72E970FB6F894DEBF0FBECDBF8C017A
:101840006B01DB018D909D90AD90BC90FC0182817D
:101850009381A481B58188159905AA05BB0570F40B
:10186000B401660F771F660F771F828593850E94EC
:101870002D1ED8011B969C938E931A97F801828295
:101880009382A482B582C60140E050E0BA01A4E090
:10189000EA2EF12C98012A5F3F4FDC011596EC915E
:1018A000159716964C901697512C712C612C32017D
:1018B000552444245E2A1496EC9114974E2A1796C8
:1018C000EC917E2AD7011701E4E02E0E311C710144
:1018D0000496F80182809380A480B580481559054C
:1018E0006A057B05A8F44682578260867186149744
:1018F000A284B384AA0DBB1DE4E0BE2EF9010190C1
:101900000D92BA94E1F74F5F5F4F6F4F7F4FC5CF96
:1019100084859585A685B78584159505A605B705A3
:1019200070F4B201660F771F660F771F848995895F
:101930000E942D1ED80155969C938E935497F801C2
:101940004486558666867786C601820D931D412C96
:10195000512C32011C019801205F3F4FDC01119690
:101960006C91119712968C901297912CB12CA12CFE
:10197000540199248824962A6C91862A13966C9196
:10198000B62AB4E0EB0EF11CF80144855585668556
:1019900077854416550666067706C0F4808A918AD4
:1019A000A28AB38ABC0162197309A489B589A60FFA
:1019B000B71F64E0F90101900D926A95E1F7BFEF5E
:1019C0004B1A5B0A6B0A7B0A0496C8CF86899789F3
:1019D000A08DB18D88159905AA05BB0560F4B401E9
:1019E000660F771F848D958D0E942D1ED8015D9600
:1019F0009C938E935C97F801868A978AA08EB18E0D
:101A0000412C512C32011801FAE12F0E311CF80142
:101A100086899789A08DB18D481659066A067B067E
:101A200008F05CC0B6016E0D7F1DCE0101960E94CC
:101A3000CB0697012C5F3F4F3E872D8789809A8088
:101A4000AB80BC80C901032E000CAA0BBB0BAC0100
:101A5000BD01480D591D6A1D7B1D49875A876B873B
:101A60007C87F901EC0DFD1D9F012C193D09B90181
:101A700090E080E029853A854B855C856217730785
:101A80008407950728F42191DF0112972C93ECCF5E
:101A9000ED84FE84E80CF91CF601EE0DFF1D319774
:101AA00010828D859E8501978C0D9D1DD8015B96BA
:101AB0009C938E935A97C201880F991F5C96ED9163
:101AC000FC91E80FF91FD1018D919C919183808346
:101AD000BFEF4B1A5B0A6B0A7B0A99CFC7012E96A0
:101AE0000FB6F894DEBF0FBECDBFDF91CF911F912F
:101AF0000F91FF90EF90DF90CF90BF90AF909F90AD
:101B00008F907F906F905F904F903F902F900895AF
:101B10002F923F924F925F926F927F928F929F92FD
:101B2000AF92BF92CF92DF92EF92FF920F931F93EB
:101B3000CF93DF93CDB7DEB7A6970FB6F894DEBF8D
:101B40000FBECDBF8C010E94DE024B015C019801EB
:101B500025543D4F3E8B2D8BF90180819181A281CF
:101B6000B38175016401C81AD90AEA0AFB0AD701D0
:101B7000C601893F9A42A105B10510F03597108240
:101B8000180134E5231A3DEF330AD1018D919C9160
:101B9000892B79F0F801E154FD4F80819181A28178
:101BA000B38188159905AA05BB0518F4F1011182C6
:101BB000108298012C543D4F3A8B298BA801405537
:101BC0005D4F5C8B4B8BC8014896988F8F8BD801EB
:101BD000AA54BD4FBC8FAB8FF801EC53FD4FFE8F65
:101BE000ED8F215F3F4F38A32F8F42505109588B03
:101BF0004F8786569D4F9A8F898F1996BAA3A9A3AE
:101C0000A50194012C5E3F4F4F4F5F4F2BA33CA388
:101C10004DA35EA3F80184899589A689B789892B8C
:101C20008A2B8B2BB9F5D80112968D919C91DC01F2
:101C3000ED91FC910284F385E02D09959C0197FFBD
:101C40003DC0F801EA54FD4F8081882301F17801FD
:101C5000B9E4EB1ABDEFFB0AF70180819181A28103
:101C6000B381A5019401281B390B4A0B5B0BDA01E8
:101C7000C901853C9940A105B10548F0C8010E9401
:101C80000506D7018D929D92AD92BC92139790E07C
:101C900080E0B8C10E94DE02681979098A099B09AF
:101CA000F801C488D588E688F788C616D706E806FE
:101CB000F90608F0B8CF8EEF9FEFA4C1A989BA89C1
:101CC0008D919C911197820F931F8D939C93F1019D
:101CD0004081518147305105F9F4A98DBA8D8D911C
:101CE0009C911197AC014F5F5F4F4D935C93800FB8
:101CF000911FFC01208FAF85B8898D919C91119720
:101D000001978D939C93892B09F084CF88E090E014
:101D1000F101918380837ECF4115510521F52F3F3D
:101D2000310581F481E090E091838083CBA0DCA039
:101D3000EDA0FEA0A9A1BAA1CD92DD92ED92FC92F8
:101D4000139768CF0E94DE02681979098A099B09F6
:101D5000693873418105910508F45CCFF801EA54B4
:101D6000FD4F1082A8CF4130510589F42E3F310537
:101D700019F482E090E0CCCF11821082EB8DFC8DC3
:101D80008081811147CFC8010E94050643CF4230B0
:101D9000510591F4AF85B8892D933C93E98DFA8D67
:101DA0001182108283E090E0D1018D939C93E989A8
:101DB000FA89318320832ECF4330510571F4322FBD
:101DC0002227AF85B8898D919C911197280F391FD3
:101DD0002D933C9384E090E09BCF4430510579F4FF
:101DE00060E071E00E94C31D8F3F910529F485E0FA
:101DF00090E0918380830ECF118210820BCF45300B
:101E0000510569F4AB89BC892D933C9386E090E041
:101E100091838083A989BA892D933C93FBCE463068
:101E20005105A1F4322F2227EB89FC898081918111
:101E3000280F391F3183208387E090E0D1018D93F3
:101E40009C93EF85F889808191815DCF4830510561
:101E500009F0E0CE1182108260E071E00E94C31DA3
:101E60008F3F910509F0D6CEAB89BC89ED91FC91ED
:101E7000309709F0E0C0C8010E9405068AE291E0AF
:101E80009A8389831C821B8281E292E09E838D83E8
:101E900098878F839A8789871B861C861D861E8656
:101EA0006801B8EBCB1ABDEFDB0A7801E6E8EE1A61
:101EB000EDEFFE0A28E1422E55245394612C712C3B
:101EC000D601ED91FC913097A9F1848195819C8395
:101ED0008B83808191819E838D8382819381DC01BC
:101EE000ED91FC910480F581E02D099598878F8311
:101EF000D601ED91FC9182819381DC01ED91FC9101
:101F00000680F781E02D09959A8789874B865C8644
:101F10006D867E86D601ED91FC9160857185D80134
:101F2000ED91FC910190F081E02DAE014F5F5F4F8C
:101F3000C8010995B2E0CB0ED11CEC14FD0409F0E8
:101F4000BFCF98E1492E55245394612C712CF70191
:101F5000A081B1811097E1F112968D919C91139718
:101F60009C838B8314968D919C9115979E838D8372
:101F7000ED91FC9111970480F581E02DCD0109953B
:101F800098878F83D7018D919C91DC01ED91FC9115
:101F90000680F781E02D09959A8789874B865C86B4
:101FA0006D867E86D801ED91FC91C080D180F701CD
:101FB00080819181DC01ED91FC910280F381E02D23
:101FC0000995AE014F5F5F4FBC01C801F60109954D
:101FD000F2E0EF0EF11CE214F30409F0B8CFF801BF
:101FE000EA54FD4F81E08083319680829182A28203
:101FF000B382AD89BE898D929D92AD92BC921397AA
:102000008FEF9FEFA6960FB6F894DEBF0FBECDBF41
:10201000DF91CF911F910F91FF90EF90DF90CF90C4
:10202000BF90AF909F908F907F906F905F904F90F8
:102030003F902F900895EA30F10509F0A1C082E4A5
:1020400091E09A8389831B821C821D821E821F82DB
:10205000188619861A860E94DE02F801C084D1848F
:10206000E284F3849B01AC012C193D094E095F0900
:1020700069017A016F89788DCE0101960E946D0801
:10208000C701B60128EE33E040E050E00E94D71DC2
:1020900069017A019B01AC018B819C81AD81BE817C
:1020A0008C0D9D1DAE1DBF1D8B839C83AD83BE8398
:1020B00060E472E48FE090E00E94B31DCF80D8848A
:1020C000E984FA84DC01CB018C0D9D1DAE1DBF1D82
:1020D0008F839887A987BA870E94DE02CF80D88431
:1020E000E984FA8436E3D31A35E6E30A34ECF30ADA
:1020F00028EE33E040E050E00E94D71D29013A016C
:102100009B01AC0160E472E48FE090E00E94B31D9B
:10211000A7019601261B370B480B590BCA01B901C1
:102120002B813C814D815E8121503109410951094A
:1021300069017A01C418D508E608F70826013701B5
:1021400020E03AEC4AE95BE30E94D71D420E531EA1
:10215000641E751ED8011C964D925D926D927C9204
:102160001F97F801608B718B828B938B0E94DE022C
:10217000AD89BE896D937D938D939C9313974ACDC2
:10218000E630F10559F46F89788D8D8D9E8D0E9412
:10219000050C81E0EF8DF8A180833CCDEB30F1059B
:1021A00021F4AB8DBC8D1C9235CDE752FF4FEE0F65
:1021B000FF1FE00FF11F80819181009709F42ACD64
:1021C000DC01ED91FC910190F081E02D6F89788D1B
:1021D000099520CD4F925F926F927F928F929F923E
:1021E000AF92BF92CF92DF92EF92FF920F931F9325
:1021F000CF93DF93EC017B018A81FB0180838B818C
:1022000081838C8182838D8183833496412C512CF0
:10221000320104E010E09F012F5F3F4FCF01029693
:10222000DF011396A8010C5F1F4F8A809B80AC8052
:10223000BD80481459046A047B04C8F4AA85BB8590
:10224000A40FB51F14974C9111962C9111971296CB
:102250009C91129713968C91408321839283838360
:102260008FEF481A580A680A780A3496D4CF4C85FA
:1022700040834D85F90140832E85FC0120838F85A5
:102280008C93F701E00FF11F412C512C3201AF016B
:102290009F012F5F3F4FCF010296DF0113960C5F26
:1022A0001F4F8C849D84AE84BF84481459046A04F3
:1022B0007B04D8F4CF01841B950BAC89BD89A80F92
:1022C000B91F3C9111962C91119712969C911297DF
:1022D00013968C9130832183928383838FEF481AE6
:1022E000580A680A780A3496D3CF4E8940834F89BA
:1022F000F9014083288DFC012083898D8C93412C2A
:10230000512C32018E899F89A88DB98D48165906A6
:102310006A067B0680F55201AA0CBB1CEC8DFD8D74
:10232000EA0DFB1DA081B181FD0101900020E9F7BC
:1023300031976F01CA1ADB0AA60170E060E0C7019D
:10234000800F911F0E94FC060C5F1F4F8C8D9D8D8E
:10235000A80EB91EF50160817181A601C701800F29
:10236000911F0E94EA1E0C0D1D1DFFEF4F1A5F0A00
:102370006F0A7F0AC7CFC801DF91CF911F910F91DC
:10238000FF90EF90DF90CF90BF90AF909F908F9095
:102390007F906F905F904F900895EF92FF920F9310
:1023A0001F93CF93DF938C017B01DC0112962C915C
:1023B0001297FB012193CF011396ED91FC91EF0150
:1023C00009900020E9F72197CE1BDF0BAE0170E0EA
:1023D00060E00E94FC06D80113966D917C91AE01DD
:1023E000C70105960E94EA1ECE010596DF91CF91A6
:1023F0001F910F91FF90EF900895CF92DF92EF928F
:10240000FF920F931F93CF93DF936C01EB01DC01DD
:1024100012968C911297888313968C9113978983C7
:102420001496ED91FC91DF010D900020E9F78D01EC
:10243000015011090E1B1F0BA80170E060E0CE01D6
:1024400002960E94FC06F60164817581A801CE0106
:1024500006960E94EA1EC8010696F601A681B7817B
:10246000FD0101900020E9F731977F01EA1AFB0A8C
:10247000A70170E060E08C0F9D1F0E94FC06065FC4
:102480001F4FD60116966D917C91A701CE01800F4A
:10249000911F0E94EA1E0E0D1F1DF601A085B18539
:1024A000FD0101900020E9F731977F01EA1AFB0A4C
:1024B000A70170E060E0CE01800F911F0E94FC0632
:1024C0000C5F1F4FD60118966D917C91A701CE012C
:1024D000800F911F0E94EA1EC701800F911FF60115
:1024E0006285438534852585C80FD91F6883498354
:1024F0003A832B830496DF91CF911F910F91FF9028
:10250000EF90DF90CF9008951F920F920FB60F9229
:1025100011242F933F934F935F936F937F938F93E8
:102520009F93AF93BF93EF93FF9389E594E00E944D
:10253000AC01FF91EF91BF91AF919F918F917F91EE
:102540006F915F914F913F912F910F900FBE0F9020
:102550001F9018951F920F920FB60F9211242F9370
:102560008F939F93EF93FF93E0916904F0916A0436
:102570008081E0916F04F091700482FD1BC0908116
:10258000809172048F5F8F7320917304821741F0E2
:10259000E0917204F0E0E75AFB4F958F809372044C
:1025A000FF91EF919F918F912F910F900FBE0F9000
:1025B0001F9018958081F4CF1F920F920FB60F9243
:1025C00011242F933F938F939F93AF93BF93809149
:1025D000CF039091D003A091D103B091D203309159
:1025E000CE0323E0230F2D3758F50196A11DB11D11
:1025F0002093CE038093CF039093D003A093D10375
:10260000B093D2038091D3039091D403A091D503CA
:10261000B091D6030196A11DB11D8093D303909371
:10262000D403A093D503B093D603BF91AF919F91EC
:102630008F913F912F910F900FBE0F901F90189583
:1026400026E8230F0296A11DB11DD2CF1F920F9233
:102650000FB60F9211242F933F934F935F936F9375
:102660007F938F939F93AF93BF93EF93FF93E091EB
:102670000201F09103010995FF91EF91BF91AF9194
:102680009F918F917F916F915F914F913F912F918A
:102690000F900FBE0F901F9018951F920F920FB6BC
:1026A0000F9211242F933F934F935F936F937F93D8
:1026B0008F939F93AF93BF93EF93FF93E0910001AC
:1026C000F09101010995FF91EF91BF91AF919F9119
:1026D0008F917F916F915F914F913F912F910F90CB
:1026E0000FBE0F901F9018951F920F920FB60F926A
:1026F00011242F933F934F935F936F937F938F9307
:102700009F93AF93BF93EF93FF938091B900887F1E
:10271000803609F44AC0F0F5883209F4A7C018F5EC
:10272000803109F49BC0B8F4882309F4F9C08830DB
:1027300009F494C0FF91EF91BF91AF919F918F9158
:102740007F916F915F914F913F912F910F900FBEAD
:102750000F901F901895883109F488C0803251F786
:102760008093210414C0803409F49DC040F4803368
:10277000B9F38833F9F68093210485ECB0C0803535
:1027800009F485C0883509F496C0883499F60E940A
:10279000560BD0CF883909F48CC038F5883729F02A
:1027A00050F4883611F0803729F683E080932304B3
:1027B0001092CD0357C0883809F47BC0803919F0D6
:1027C000803809F0B7CF8091CD03803208F071C016
:1027D000E091CD0381E08E0F8093CD038091BB000B
:1027E000F0E0E355FC4F80833DC0803B39F0E0F4DE
:1027F000803A09F479C0883A09F09CCF84E080934C
:1028000023041092AC031092AB03E091F903F09112
:10281000FA0309958091AB0381110FC081E0809389
:10282000AB0310928B0309C0803C09F4A6CF883C0F
:1028300009F4A3CF883B09F07DCFE091AC0381E0A0
:102840008E0F8093AC03F0E0E557FC4F80818093BE
:10285000BB009091AC038091AB0329C08091FE0333
:102860008093BB0085EC8093BC0064CF90912004E2
:1028700080911F04981758F5E091200481E08E0F95
:1028800080932004F0E0E150FC4F8081E9CFE0919B
:10289000200481E08E0F809320048091BB00F0E043
:1028A000E150FC4F80839091200480911F04981781
:1028B000C8F285E8D8CFE091200481E08E0F8093A4
:1028C00020048091BB00F0E0E150FC4F80838091B8
:1028D000220481115CCF81E08093FD0384EA809320
:1028E000BC001092230426CF85EC8093BC0010928C
:1028F00023048091CD03803230F4E091CD03F0E0E9
:10290000E355FC4F10826091CD0370E0E091F70336
:10291000F091F8038DEA93E009951092CD030ACF68
:102920001092210434CF8F929F92AF92BF92CF9298
:10293000DF92EF92FF9210925C0410925B0488EE9B
:1029400093E0A0E0B0E080935D0490935E04A093D8
:102950005F04B09360042EE431E030935A04209376
:10296000590425EC30E0309366042093650424EC90
:1029700030E0309368042093670420EC30E030931B
:102980006A042093690421EC30E030936C042093B6
:102990006B0422EC30E030936E0420936D0426EC3F
:1029A00030E03093700420936F0410927204109200
:1029B00073041092740410927504109250041092D3
:1029C0004F048093510490935204A0935304B09306
:1029D000540480E691E090934E0480934D0480EA85
:1029E00091E0909389088093880810928A08109249
:1029F0008B0810928C0810928D0810928E081092FD
:102A00008F08109290081092910886E991E09093B7
:102A1000A7058093A60589E594E09093A905809386
:102A2000A80580E091EEA0E0B0E08093AA05909325
:102A3000AB05A093AC05B093AD051092AE05109216
:102A4000AF051092B0051092B1051092B205109228
:102A5000B3051092B4051092B5051092B605109208
:102A6000B7051092B8051092B9051092BA051092E8
:102A7000BB051092BC051092BD0588E191E0EEEB1C
:102A8000F5E0DF019C011D9221503040E1F7E6EDB9
:102A9000F6E0DF019C011D9221503040E1F782E316
:102AA000EEEEF7E0DF01282F1D922A95E9F7E0E22C
:102AB000F8E0DF011D928A95E9F710925308109211
:102AC000520810925508109254081092570810920C
:102AD0005608109259081092580810925B081092EC
:102AE0005A0810925C0810925D0810925E081092CD
:102AF0005F081092600810926108109262081092AC
:102B0000630810926408109265081092660810928B
:102B1000670810926808109269088AE891E090931B
:102B20006B0880936A0810926C0810926D081092DE
:102B30006E0810926F08109270081092710810922F
:102B4000720810927308109275081092740810920F
:102B500076081092770810927808109279081092EF
:102B60007A0810927B0810927C0810927D081092CF
:102B70007F0810927E0810928008109281081092AF
:102B8000820810928308109285081092840810928F
:102B9000870810928608EDE6F5E085E895E0148256
:102BA0001382158212821182108236968E179F0729
:102BB000B1F7109291051092940510929005109221
:102BC0008F051092A1051092A4051092A0051092F5
:102BD0009F0580E680936A058093A505809178051E
:102BE000882309F41CC183E795E0909367058093DF
:102BF00066058091720581110FC088E695E090937B
:102C000071058093700588E080936D058AE080935C
:102C10006E0589E080936F058DE695E090936505DC
:102C20008093640510925005109251051092520540
:102C30001092530583E090E090934B0580934A05F2
:102C400086E495E090934D0580934C0584E091E0F7
:102C500090934F0580934E0587E0882E9924939496
:102C6000A12CB12C8092580590925905A0925A053A
:102C7000B0925B05C12CD12C98ECE92E92E4F92E90
:102C8000C0925C05D0925D05E0925E05F0925F0512
:102C90000E94DE020E94011D20915C0530915D05BD
:102CA00040915E0550915F050E941D1C6093540584
:102CB00070935505809356059093570510923205F1
:102CC00010923305109234051092350582E090E0A1
:102CD00090932D0580932C0588E295E090932F0525
:102CE00080932E0588E191E0909331058093300523
:102CF00080923A0590923B05A0923C05B0923D052A
:102D0000C0923E05D0923F05E0924005F092410509
:102D10000E94DE020E94011D20913E0530913F0578
:102D200040914005509141050E941D1C609336055D
:102D300070933705809338059093390580E793E0C9
:102D400090931F0580931E0588E898E090932105D5
:102D50008093200510922705109226058CEA91E0B9
:102D60009093F7048093F6048EE791E09093FD042E
:102D70008093FC0482E791E09093FF048093FE042B
:102D800010920005109201051092020510920305A1
:102D90001092040510920505109206051092070581
:102DA000109208051092090510920A0510920B0561
:102DB00090930D0580930C0510920E0510920F054F
:102DC0001092100510921105109212051092130521
:102DD0001092140510921505109216051092170501
:102DE000109218051092190582EB9BE090931B0539
:102DF00080931A0581E090E090931D0580931C0557
:102E000081E893E09093FB048093FA04FF90EF90A5
:102E1000DF90CF90BF90AF909F908F90089581E00A
:102E20008093780588E695E0909377058093760502
:102E30008DE0809373058BE0809374058CE0809324
:102E40007505D1CE789484B5826084BD84B58160E7
:102E500084BD85B5826085BD85B5816085BD809165
:102E60006E00816080936E001092810080918100DD
:102E700082608093810080918100816080938100D5
:102E8000809180008160809380008091B100846097
:102E90008093B1008091B00081608093B0008091F8
:102EA0007A00846080937A0080917A0082608093B7
:102EB0007A0080917A00816080937A0080917A0014
:102EC000806880937A001092C100C091A805D091CB
:102ED000A905C090AA05D090AB05E090AC05F09094
:102EE000AD0560E079E08DE390E0A70196010E94D6
:102EF000D71D2150310941095109569547953795FC
:102F00002795E889F98982E08083C11481EED8068B
:102F1000E104F10421F02115A0E13A0798F0E889D5
:102F2000F989108260E874E88EE190E0A7019601CB
:102F30000E94D71D215031094109510956954795E5
:102F400037952795EC85FD853083EE85FF852083B9
:102F5000188EEC89FD8986E08083EA89FB8980816F
:102F600080618083EA89FB89808188608083EA8927
:102F7000FB89808180688083EA89FB8980818F7DDD
:102F800080831092530810925208109255081092A4
:102F9000540810925908109258081092570810922D
:102FA0005608EEEEF7E090E080E021913191232B7E
:102FB00009F0C6C0FC01EE0FFF1FE251F84F2EE1F1
:102FC00035E03183208383589F4F9093230580936E
:102FD000220586EA95E090932505809324058CE2EE
:102FE00095E00E9466038AE495E00E9466038DE402
:102FF00094E090936905809368051092FC03109209
:10300000FB0310922A0410924C040E94DD038CE210
:1030100091E09093FA038093F9038DE291E090930D
:10302000F8038093F7030E94DD0360E080E00E94D4
:10303000970580E496E090936C0580936B058091F2
:10304000A50591E09093290480934B0410922A04E3
:1030500010924C0460E08DE494E00E94630581E0EE
:103060000E941C04C091A5050E9487026B017C018F
:103070008091230481116AC081E0809323048093AE
:1030800022049FEF909321041092200410921F04B9
:103090008093FE038091FE03CC0FC82BC093FE03E8
:1030A0008091FD03813009F016C11092FD030E944A
:1030B00087026B017C018091FE038093BB008091AD
:1030C000250490912604A0912704B0912804892B0F
:1030D0008A2B8B2BA1F00E9487020091250410916E
:1030E000260420912704309128046C197D098E094B
:1030F0009F09061717072807390708F448C0809169
:10310000BC0083FDD8CF85EC8093BC000E94870271
:103110006B017C0180912304813009F4DEC0809131
:1031200020048111FCC080912004EFEFF3E0A7EDB3
:10313000B3E090E0981781F121912D939F5FFACF32
:1031400001968931910509F030CF49CF809125044E
:1031500090912604A0912704B0912804892B8A2BF2
:103160008B2B09F485CF0E948702009125041091D2
:10317000260420912704309128046C197D098E09BA
:103180009F09061717072807390708F071CF8091A4
:1031900024040E94FB0380E01092FC038093FB0355
:1031A0008DE494E00E941C05C82F682F6F76606143
:1031B00080E00E94970563E08EEF0E9497056C2FD8
:1031C00080E00E94970565E070E080E090E00E945A
:1031D000AC026C2F616A80E00E949705C0E030E08D
:1031E00020E050E040E06C2F85EA95E00E94B205B7
:1031F000CF5FC031A1F7C0916605D091670560E04F
:10320000CE010E94E60561E0CE010E94110B64E050
:10321000CE010E94110BC0916405D091650560E05C
:10322000CE010E94E60561E0CE010E94110B64E030
:10323000CE010E94110BC0E0D0E086EA95E00E942A
:10324000880D8CE295E00E94EB028AE495E00E94F2
:10325000EB028091420590914305A0914405B09105
:10326000450580938A0890938B08A0938C08B093AF
:103270008D088091600590916105A0916205B091E3
:10328000630580938E0890938F08A0939008B09365
:1032900091088091240590912505609122057091F7
:1032A0002305DC01ED91FC910190F081E02D48E8CF
:1032B00058E0099563E070E080E090E00E94AC0285
:1032C000209709F4BACF0E949801882309F4B5CF5A
:1032D0000E940000B2CF85EE17CF80912504909117
:1032E0002604A0912704B0912804892B8A2B8B2BCC
:1032F00009F410CF0E948702009125041091260442
:1033000020912704309128046C197D098E099F09AA
:10331000061717072807390708F0FCCE38CF81E0D9
:1033200004CFEF920F931F93CF93DF93E80134E024
:1033300047FD34E1042E000C550B57FF03C0519597
:1033400041955109E32E022F242FAE010E94AF199F
:10335000CE01DF91CF911F910F91EF900895A9E0D9
:10336000B0E0E5EBF9E10C94EC1B6A01F22EB02E13
:10337000102FFBE3AF2EA01608F41BE31F5F012FF5
:1033800027E0AE014F5F5F4F0E940E1BBC01898199
:10339000982F9970913009F43FC09BE2E1FC04C082
:1033A0009E2D9170E0FC3AC05E2D5071E82FE870C0
:1033B00083FF46C084E0911101C083E0EF2DE81B3C
:1033C0008F1508F0E0E0D6018E2F20E2552351F151
:1033D000992329F0D6019C93C60101966C019601B0
:1033E0002D5F3F4FE2FE24C08EE4D6018C9391E422
:1033F00011969C93119712968C93D9018E2F90E27F
:1034000081111BC0E20FF32FF11D10828EEF9FEF91
:103410002996ECE00C94081C9DE2C6CF90E2C4CF44
:103420002D9381508111FCCFCE0ED11CE0E0D0CF86
:103430008EE6D6018C9391E6DBCF9D938150E0CF51
:10344000482F447082FF3DC084E0911101C083E0A9
:103450008F1510F4EF2DE81BD6018E2F20E2552397
:1034600009F1992329F0D6019C93C60101966C01BC
:1034700096012D5F3F4FE2FE1BC089E4D6018C937D
:103480008EE411968C93119786E412968C93D90151
:103490008E2F90E2882309F4B5CF9D938150FACF07
:1034A0002D9381508111FCCFCE0ED11CE0E0D9CFFD
:1034B00089E6D6018C938EE611968C93119786E659
:1034C000E4CF9B0177FF02C030E020E0A1E0B0E054
:1034D000911102C0B0E0A0E0F9013196AE0FBF1F1C
:1034E0008B2C912CBB2009F461C05401EFEFAE1A74
:1034F000BE0AAA0DBB1DFA161B0619F014F04F2DBB
:103500004A1B511188C0E3FC59C07601A42FB0E2D8
:10351000A1114FC0C40ED11C992309F45BC040E037
:10352000D6011196F60190836D01552309F448C028
:10353000012F060F9A81582F507184FF03C09133D9
:1035400009F4015010160CF047C0093008F008E0EB
:10355000EEE2FE2E5B01A01AB108850191948194E0
:1035600091082F3F320729F4D601FC92F6013196DB
:103570006F016217730794F1021713077CF5DB01E3
:10358000A21BB30BAA24A394B12CAC0EBD1EAA0D92
:10359000BB1D11968C9121503109D6011196281529
:1035A0003905F4F0F60180836D01DBCFB12CA12C3D
:1035B000A0CFF701B1937F01A150AACF9111B0CF55
:1035C000D601942F50E302C05D9391509111FCCF2E
:1035D000C40ED11C40E0ACCF01E0BACF80E3DBCF1A
:1035E0006217730731F4963388F4953311F4552339
:1035F00069F0F6018083FD01842F90E2811108C0FB
:10360000A40FB11D1C9290E080E002CF81E3F1CFC6
:1036100091938150F3CF911183CF8ACF283008F056
:1036200027E03327DA01990F311D87FD916000965D
:103630006105710539F432602E5F3D9330E32A95C0
:10364000E1F708959F3F30F080387105610509F07A
:103650003C5F3C5F3D93913008F08068911DDF93A3
:10366000CF931F930F93FF92EF92192F987F969508
:10367000E92F96959695E90FFF27EE53FF4F99276F
:103680003327EE24FF24A701E7010590089407944F
:1036900028F4360FE71EF81E491F511D660F771FCD
:1036A000881F991F0694A1F70590079428F4E70E48
:1036B000F81E491F561FC11D770F881F991F661FCF
:1036C0000694A1F70590079428F4F80E491F561F99
:1036D000C71FD11D880F991F661F771F0694A1F77A
:1036E0000590079420F4490F561FC71FD81F990F44
:1036F000661F771F881F0694A9F78491109517708D
:1037000041F0D695C79557954795F794E7941A9544
:10371000C1F7E8E6F0E06894159015913591659150
:10372000959105907FE27395E118F10A430B560BD2
:10373000C90BD009C0F7E10CF11E431F561FC91F6A
:10374000D01D7EF4703311F48A95E6CFE8940150D1
:1037500030F0080F0AF40027021708F4202F2395F1
:10376000022F7A3328F079E37D932A95E9F710C088
:103770007D932A9589F606949795679537951795C1
:103780001794E118F10A430B560BC90BD00998F0B6
:1037900023957E9173957A3308F070E37C93201320
:1037A000B8F77E9170617D9330F0839571E37D93DE
:1037B00070E32A95E1F71124EF90FF900F911F918C
:1037C000CF91DF91992787FD909508952F923F9291
:1037D0004F925F926F927F928F929F92AF92BF9221
:1037E000CF92DF92EF92FF920F931F93CF93DF93CD
:1037F000CDB7DEB7CA1BDB0B0FB6F894DEBF0FBE2A
:10380000CDBF09942A88398848885F846E847D8476
:103810008C849B84AA84B984C884DF80EE80FD8078
:103820000C811B81AA81B981CE0FD11D0FB6F894EE
:10383000DEBF0FBECDBFED0108955058BB27AA27AC
:103840000E94351C0C94791D0E946B1D38F00E945B
:10385000721D20F039F49F3F19F426F40C94681D72
:103860000EF4E095E7FB0C94621DE92F0E948A1D7F
:1038700058F3BA17620773078407950720F079F4A5
:10388000A6F50C94AC1D0EF4E0950B2EBA2FA02DCE
:103890000B01B90190010C01CA01A0011124FF27FD
:1038A000591B99F0593F50F4503E68F11A16F040F8
:1038B000A22F232F342F4427585FF3CF46953795F7
:1038C0002795A795F0405395C9F77EF41F16BA0BBC
:1038D000620B730B840BBAF09150A1F0FF0FBB1F6A
:1038E000661F771F881FC2F70EC0BA0F621F731FB3
:1038F000841F48F4879577956795B795F7959E3F10
:1039000008F0B0CF9395880F08F09927EE0F9795A0
:10391000879508950E943E1D08F481E008950E9455
:10392000A31C0C94791D0E94721D58F00E946B1DFF
:1039300040F029F45F3F29F00C94621D51110C9462
:10394000AD1D0C94681D0E948A1D68F39923B1F384
:10395000552391F3951B550BBB27AA2762177307B5
:10396000840738F09F5F5F4F220F331F441FAA1F49
:10397000A9F335D00E2E3AF0E0E832D09150504005
:10398000E695001CCAF72BD0FE2F29D0660F771FB3
:10399000881FBB1F261737074807AB07B0E809F099
:1039A000BB0B802DBF01FF2793585F4F3AF09E3F1E
:1039B000510578F00C94621D0C94AD1D5F3FE4F34B
:1039C000983ED4F3869577956795B795F7959F5F61
:1039D000C9F7880F911D9695879597F90895E1E0AD
:1039E000660F771F881FBB1F621773078407BA070C
:1039F00020F0621B730B840BBA0BEE1F88F7E09567
:103A00000895E89409C097FB3EF4909580957095D1
:103A100061957F4F8F4F9F4F9923A9F0F92F96E91A
:103A2000BB279395F695879577956795B795F1118F
:103A3000F8CFFAF4BB0F11F460FF1BC06F5F7F4F2C
:103A40008F4F9F4F16C0882311F096E911C077233E
:103A500021F09EE8872F762F05C0662371F096E847
:103A6000862F70E060E02AF09A95660F771F881F16
:103A7000DAF7880F9695879597F90895990F0008BA
:103A8000550FAA0BE0E8FEEF16161706E807F90730
:103A9000C0F012161306E407F50798F0621B730BCB
:103AA000840B950B39F40A2661F0232B242B252B4C
:103AB00021F408950A2609F4A140A6958FEF811DEF
:103AC000811D089597F99F6780E870E060E0089590
:103AD0009FEF80EC089500240A9416161706180626
:103AE0000906089500240A94121613061406050602
:103AF0000895092E0394000C11F4882352F0BB0F93
:103B000040F4BF2B11F460FF04C06F5F7F4F8F4FF5
:103B10009F4F089557FD9058440F551F59F05F3F30
:103B200071F04795880F97FB991F61F09F3F79F0DF
:103B300087950895121613061406551FF2CF469561
:103B4000F1DF08C0161617061806991FF1CF8695E3
:103B50007105610508940895E894BB2766277727C7
:103B6000CB0197F90895DB018F939F930E94F91D74
:103B7000BF91AF91A29F800D911DA39F900DB29F09
:103B8000900D1124089597FB072E16F4009407D08A
:103B900077FD09D00E94041E07FC05D03EF49095E5
:103BA00081959F4F0895709561957F4F0895A1E28B
:103BB0001A2EAA1BBB1BFD010DC0AA1FBB1FEE1FA7
:103BC000FF1FA217B307E407F50720F0A21BB30BF2
:103BD000E40BF50B661F771F881F991F1A9469F76E
:103BE00060957095809590959B01AC01BD01CF01CA
:103BF00008950E941E1EA59F900DB49F900DA49F36
:103C0000800D911D11240895AA1BBB1B51E107C013
:103C1000AA1FBB1FA617B70710F0A61BB70B881F5C
:103C2000991F5A95A9F780959095BC01CD010895EB
:103C3000EE0FFF1F0590F491E02D0994A29FB001B3
:103C4000B39FC001A39F700D811D1124911DB29FD0
:103C5000700D811D1124911D0895B0E0A0E0E3E3F3
:103C6000FEE10C94E81B8C01009751F4CB010E94FB
:103C7000F31E8C01C801CDB7DEB7E0E10C94041C43
:103C8000FC01E60FF71F9C0122503109E217F307F0
:103C900008F49DC0D901CD91DC911197C617D707C3
:103CA00098F0C530D10530F3CE01049786179707F9
:103CB00008F3C61BD70B2297C193D1936D937C93C6
:103CC000CF010E948F1FD6CF5B01AC1ABD0A4C01F9
:103CD0008C0E9D1EA0919408B0919508512C412CFA
:103CE000F12CE12C109731F5809192089091930876
:103CF0008815990509F05CC04616570608F058C0AB
:103D00008091040190910501009741F48DB79EB711
:103D10004091080150910901841B950BE817F907A0
:103D200008F055C0F0939308E0939208F90171836D
:103D30006083A0CF8D919C91119712966C901297F1
:103D400013967C901397A815B90559F56C0142E0BC
:103D5000C40ED11CCA14DB0420F1AC014A195B0962
:103D6000DA011296159780F0628273825183408344
:103D7000D9016D937C93E114F10471F0D70113968E
:103D8000FC93EE93129776CF22968C0F9D1FF9012C
:103D900091838083F301EFCFF0939508E09394082B
:103DA00069CF4816590608F42C017D01D3019ACF3A
:103DB000CB010E94F31E7C01009749F0AE01B801CF
:103DC0000E94EA1EC8010E948F1F870153CF10E096
:103DD00000E050CFFB01DC0102C001900D92415088
:103DE0005040D8F708950F931F93CF93DF938230FD
:103DF000910510F482E090E0E0919408F09195082C
:103E000030E020E0B0E0A0E0309799F421153105D2
:103E100009F44AC0281B390B24303105D8F58A81B2
:103E20009B816115710589F1FB0193838283FE01FA
:103E300011C0408151810281138148175907E0F078
:103E40004817590799F4109761F012960C9312973E
:103E500013961C933296CF01DF91CF911F910F9152
:103E600008950093940810939508F4CF2115310517
:103E700051F04217530738F0A901DB019A01BD0147
:103E8000DF01F801C1CFEF01F9CF9093950880933E
:103E90009408CDCFFE01E20FF31F8193919322503E
:103EA000310939832883D7CF209192083091930824
:103EB000232B41F4209106013091070130939308A0
:103EC00020939208209104013091050121153105BC
:103ED00041F42DB73EB74091080150910901241BD0
:103EE000350BE0919208F0919308E217F307A0F4E4
:103EF0002E1B3F0B2817390778F0AC014E5F5F4F40
:103F00002417350748F04E0F5F1F509393084093D6
:103F10009208819391939FCFF0E0E0E09CCFCF9304
:103F2000DF930097E9F0FC01329713821282A0918F
:103F30009408B0919508ED0130E020E01097A1F4CD
:103F400020813181820F931F209192083091930834
:103F50002817390709F061C0F0939308E09392089D
:103F6000DF91CF910895EA01CE17DF07E8F54A8186
:103F70005B819E0141155105B1F7E901FB83EA839D
:103F800049915991C40FD51FEC17FD0761F4808149
:103F900091810296840F951FE9019983888382811C
:103FA00093819B838A83F0E0E0E012968D919C914F
:103FB00013970097B9F52D913C911197CD01029679
:103FC000820F931F20919208309193082817390788
:103FD00039F6309751F51092950810929408B093E5
:103FE0009308A0939208BCCFD383C28340815181B0
:103FF000840F951FC817D90761F44E5F5F4F888102
:104000009981480F591F518340838A819B819383F3
:1040100082832115310509F0B0CFF0939508E09324
:1040200094089ECFFD01DC01C0CF13821282D7CF4E
:04403000F894FFCF32
:10403400EA02EA02000096088000726F73736572E8
:1040440069616C5F6D7367732F5265717565737405
:10405400506172616D0000000000FD117607730766
:10406400700700000000CD111A071707140700009D
:104074000000B3086D086A08670800000000CE015C
:104084002E015B011B028C016A017E01000000000D
:1040940063053605F3050C052F051C050D05000009
:1040A4000000C50ABF090B07080700000000F50A55
:1040B400E909FE05FB0500000000EA10050C1107E4
:1040C4000E07000000005F06880DF60500000000E2
:1040D400A10A9F090507020700000000050A01065E
:1040E400FE05FB05396631393566383831323436E8
:1040F4006664666132373938643164336565626396
:10410400613834610067656F6D657472795F6D73D2
:1041140067732F5477697374004D657373616765B2
:104124002066726F6D206465766963652064726FC2
:10413400707065643A206D657373616765206C61A6
:1041440072676572207468616E2062756666657256
:104154002E006131303337383730396231346434CA
:10416400633665663238373537663232343632650F
:104174003366006D617A655F726F626F742F4D6193
:104184007A65526F626F7453746174650034613878
:1041940034326236356634313330383464633262F3
:1041A40031306662343834656137663137006765AB
:1041B4006F6D657472795F6D7367732F5665637481
:1041C4006F72330039663065393862646136353967
:1041D4003831393836646466353361666137613441
:1041E40030653439003131616264373331633235DB
:1041F40039333332363163643631383362643132C1
:10420400643632393500726F7373657269616C5F3D
:104214006D7367732F4C6F67003061643531663896
:10422400386663343438393266386331303638347A
:1042340030373736343630303500726F7373657209
:1042440069616C5F6D7367732F546F706963496E36
:10425400666F00636437313636633734633535321D
:104264006333313166626363326665356137626335
:10427400323839007374645F6D7367732F54696DDA
:104284006500765F783A00765F793A00765F7A3A2D
:1042940000775F783A00775F793A00775F7A3A007F
:1042A4006D617A655F726F626F745F737461746558
:0A42B40000636D645F76656C000026
:00000001FF
