:100000000C94DA000C94AA120C9483120C94020142
:100010000C9402010C9402010C9402010C94020154
:100020000C9402010C9402010C9402010C94020144
:100030000C9402010C9402010C9402010C94020134
:100040000C9439120C9402010C9407120C94E111D7
:100050000C9402010C9402010C9402010C94020114
:100060000C94D1120C94020100407A10F35A00A0B3
:10007000724E18090010A5D4E80000E87648170071
:1000800000E40B54020000CA9A3B000000E1F505B1
:10009000000080969800000040420F000000A086FB
:1000A00001000000102700000000E803000000002D
:1000B0006400000000000A000000000001000000D1
:1000C00000002C76D888DC674F0823DFC1DFAE59EB
:1000D000E1B1B796E5E3E453C63AE651997696E87E
:1000E000E6C28426EB898C9B62ED407C6FFCEFBC02
:1000F0009C9F40F2BAA56FA5F490055A2AF75C932D
:100100006B6CF9676DC11BFCE0E40D47FEF520E662
:10011000B500D0ED902E0300943577050080841E45
:10012000080000204E0A000000C80C333333330FA0
:10013000986E12831141EF8D2114893BE65516CF3D
:10014000FEE6DB18D1844B381BF77C1D901DA4BB49
:10015000E424203284725E228100C9F124ECA1E5FE
:100160003D27000000080002010000030407000012
:1001700000000000000000000000250028002B0007
:1001800000000000240027002A00040404040404E2
:100190000404020202020202030303030303010236
:1001A0000408102040800102040810200102040805
:1001B0001020F01311241FBECFEFD8E0DEBFCDBF5B
:1001C00013E0A0E0B1E0E0E9FFE302C005900D928A
:1001D000AA38B107D9F728E0AAE8B3E001C01D9218
:1001E000A236B207E1F710E0CAEDD0E004C02197D3
:1001F000FE010E94C61DC93DD107C9F70E94E31543
:100200000C94C61F0C940000CF93DF9390E0FC0188
:10021000E256FE4F249186579E4FFC01849188231D
:10022000C1F090E0880F991FFC01E058FE4FC59186
:10023000D491FC01EA58FE4FA591B4919FB7F89470
:100240003881822F809583238883EC91E22BEC9375
:100250009FBFDF91CF910895809101049091020496
:10026000A0910304B09104040196A11DB11D8093D7
:10027000010490930204A0930304B093040408952E
:100280008091FD039091FE03A091FF03B0910004C3
:100290000196A11DB11D8093FD039093FE03A093D1
:1002A000FF03B0930004089508950895AF92BF929C
:1002B000CF92DF92EF92FF920F931F93CF93DF9332
:1002C0006C017B018B01040F151FEB015E01AE1861
:1002D000BF08C017D10759F06991D601ED91FC9183
:1002E0000190F081E02DC6010995892B79F7C501B0
:1002F000DF91CF911F910F91FF90EF90DF90CF9002
:10030000BF90AF900895FC01538D448D252F30E0B0
:10031000842F90E0821B930B541710F0CF96089512
:1003200001970895FC01918D828D981761F0A28D3F
:10033000AE0FBF2FB11D5D968C91928D9F5F9F7305
:10034000928F90E008958FEF9FEF0895FC01918DBB
:10035000828D981731F0828DE80FF11D858D90E028
:1003600008958FEF9FEF0895FC01918D228D892FC5
:1003700090E0805C9F4F821B91098F7399270895AD
:1003800081E694E00E94B40121E0892B09F420E089
:10039000822F089580E090E0892B29F00E94C0010F
:1003A00081110C9400000895FC01A48DA80FB92FB1
:1003B000B11DA35ABF4F2C91848D90E001968F738D
:1003C0009927848FA689B7892C93A089B1898C91AC
:1003D000837080648C93938D848D981306C00288FB
:1003E000F389E02D80818F7D80830895EF92FF92C5
:1003F0000F931F93CF93DF93EC0181E0888F9B8D48
:100400008C8D98131AC0E889F989808185FF15C001
:100410009FB7F894EE89FF896083E889F989808124
:100420008370806480839FBF81E090E0DF91CF91F3
:100430001F910F91FF90EF900895F62E0B8D10E015
:100440000F5F1F4F0F731127E02E8C8D8E110CC084
:100450000FB607FCFACFE889F989808185FFF5CFCF
:10046000CE010E94D401F1CFEB8DEC0FFD2FF11DD9
:10047000E35AFF4FF0829FB7F8940B8FEA89FB890C
:1004800080818062CFCFCF93DF93EC01888D88236A
:10049000B9F0AA89BB89E889F9898C9185FD03C0E7
:1004A000808186FD0DC00FB607FCF7CF8C9185FFCC
:1004B000F2CF808185FFEDCFCE010E94D401E9CF3C
:1004C000DF91CF91089590E0FC01EE59FE4F249109
:1004D000FC01E256FE4F3491FC01E657FE4FE491D9
:1004E000EE23C9F0222339F0233001F1A8F42130A2
:1004F00019F1223029F1F0E0EE0FFF1FEA58FE4F0C
:10050000A591B4918FB7F894EC91611126C0309504
:100510003E233C938FBF08952730A9F02830C9F0BF
:10052000243049F7809180008F7D03C08091800046
:100530008F7780938000DFCF84B58F7784BDDBCF4A
:1005400084B58F7DFBCF8091B0008F778093B00012
:10055000D2CF8091B0008F7DF9CF3E2BDACF3FB75D
:10056000F8948091D3039091D403A091D503B091D6
:10057000D60326B5A89B05C02F3F19F00196A11DF3
:10058000B11D3FBFBA2FA92F982F8827BC01CD01DD
:10059000620F711D811D911D42E0660F771F881F3C
:1005A000991F4A95D1F708958F929F92AF92BF926B
:1005B000CF92DF92EF92FF924B015C010E94AF025B
:1005C0006B017C010E94AF026C197D098E099F09A5
:1005D000683E734081059105A8F321E0821A9108D5
:1005E000A108B10888EEC80E83E0D81EE11CF11CFA
:1005F00081149104A104B10429F7FF90EF90DF90DA
:10060000CF90BF90AF909F908F9008952FB7F894A0
:100610006091CF037091D0038091D1039091D20368
:100620002FBF089508952091AB03260F3327331F62
:1006300021323105ECF420912B04FC0190E080E0A4
:10064000243069F082E00895A091AB032191AC01C0
:1006500045575C4FA40FB52FB11D2C9301968617FB
:1006600098F38091AB03680F6093AB0380E008952B
:1006700081E0089510922B0481E080932A04109267
:10068000050461E082E10E94630261E083E10E946F
:100690006302E9EBF0E080818E7F808380818D7F33
:1006A000808388E48093B80085E48093BC0008953B
:1006B000CF93DF9391E090938A038823B9F0C091A0
:1006C000B800D091BA008091BC008A7B8093BC00B6
:1006D00060E082E10E94630260E083E10E946302C5
:1006E0000E943A03D093BA00C093B800DF91CF9133
:1006F00008958F929F92AF92BF92CF92DF92EF9226
:10070000FF920F931F93CF93DF93D0915404D13274
:1007100008F0D7C0182FC09153040E94AF026B019C
:100720007C0180912B0481116BC082E080932B04AB
:1007300010932A048FEF8093290410922804D093F9
:100740002704A3E3B4E0E7E0F4E080E0D81391C02D
:100750001092060480910604CC0FC82BC0930604A7
:1007600080910504813009F088C0109205040E9430
:10077000AF026B017C01809106048093BB008091E5
:100780002D0490912E04A0912F04B0913004892B58
:100790008A2B8B2BA1F00E94AF0200912D041091A7
:1007A0002E0420912F04309130046C197D098E099C
:1007B0009F09061717072807390708F442C08091D8
:1007C000BC0083FDD8CF85EC8093BC000E94AF02B3
:1007D0006B017C0180912B04823009F450C0809120
:1007E00029048F3F09F46FC080912904803209F4F5
:1007F0006CC080912904803309F469C084E026C06C
:1008000080912D0490912E04A0912F04B09130047A
:10081000892B8A2B8B2B09F484CF0E94AF02809006
:100820002D0490902E04A0902F04B09030046C19E9
:100830007D098E099F0986169706A806B90608F055
:1008400070CF80912C040E94580385E010923204EE
:100850001092540410923104DF91CF911F910F91A7
:10086000FF90EF90DF90CF90BF90AF909F908F90D0
:1008700008959D9191938F5F69CF85EEA5CF80916B
:100880002D0490912E04A0912F04B0913004892B57
:100890008A2B8B2B09F49ECF0E94AF0200912D046E
:1008A00010912E0420912F04309130046C197D0991
:1008B0008E099F09061717072807390708F08ACFFE
:1008C000C0CF81E0C3CF80E0C1CF82E0BFCF83E063
:1008D000BDCF0895E091FC038091FB03E81730F44D
:1008E000F0E0E952FC4F808190E008958FEF9FEF98
:1008F00008959091FC038091FB032FEF3FEF981731
:1009000048F4E92FF0E0E952FC4F208130E09F5F8E
:100910009093FC03C90108958091FB039091FC031F
:10092000891B990B0895CF92DF92EF92FF920F935C
:100930001F93CF93DF937C01CB018A012091310477
:10094000222389F0EB016B01C40ED51ECC15DD0509
:1009500069F06991D701ED91FC910190F081E02D52
:10096000C7010995F3CF642F0E941303C801DF91DB
:10097000CF911F910F91FF90EF90DF90CF9008954E
:10098000CF93DF931F92CDB7DEB7698320913104F7
:100990002223F9F020915404203258F021E030E075
:1009A000FC013383228390E080E00F90DF91CF91B0
:1009B000089580913204E82FF0E0ED5CFB4F9981BF
:1009C00090838F5F809332048093540481E090E0A1
:1009D000ECCF61E0CE0101960E941303F7CF682FA0
:1009E00085E594E00C94C004CF93C62F90917105D7
:1009F00021E020933104909353041092320410921A
:100A00005404682F85E594E00E94C0046C2F85E5AE
:100A100094E00E94C00481E0CF910C9479030F937D
:100A20001F93CF93DF93042FD52F122FC32FFC01D9
:100A3000808191E0909331048093530410923204AA
:100A400010925404F4E06F9FB00111246A5F7F4F4D
:100A500085E594E00E94C004802F9D2F0E94EF0442
:100A60008D2F90E00E94EF04812F9C2F0E94EF04B5
:100A70008C2F90E00E94EF0481E0DF91CF911F91D5
:100A80000F910C947903FC0180E1689F900111247F
:100A90008381948150E040E06081CD960C940F05F5
:100AA00090E080E008958A549D4FFC018081089574
:100AB00084EB91E0089585ED91E00895FC0186A115
:100AC00097A108950F931F93CF93DF93CDB7DEB710
:100AD0002A970FB6F894DEBF0FBECDBF8C0182E41B
:100AE00091E09A8389831B821C821D821E821F8251
:100AF000188619861A86D801ED91FC910190F08133
:100B0000E02DAE014F5F5F4F6AE070E0C8010995CC
:100B10000E940603F80160877187828793872A966F
:100B20000FB6F894DEBF0FBECDBFDF91CF911F91FE
:100B30000F910895CF93DF9300D000D01F92CDB7CF
:100B4000DEB726E331E03A8329836B835D834C83F0
:100B5000DC01ED91FC910190F081E02DAE014F5F41
:100B60005F4F67E070E009950F900F900F900F9026
:100B70000F90DF91CF9108950F931F93CF93DF9341
:100B8000643671054CF0FC01EA54FD4F208110E001
:100B900000E0222309F44DC0DA018B01EC01BC0115
:100BA000695C7E4FED91FC910190F081E02DCA01CE
:100BB0000995BE01605D7E4F2FEFDB012C93FE0196
:100BC000EF5CFE4F2EEF2083319680833196908329
:100BD0003196292F280F2095208331960083169671
:100BE0001C9345E050E030E020E08C010A5F1F4F8D
:100BF0000417150734F0A1912A0F311D4F5F5F4F85
:100C0000F7CF8C01085F1F4F8C0F9D1FFC01E95C23
:100C1000FE4F209520830931B1E01B0784F48A81BF
:100C20009B81DC01ED91FC910280F381E02DA80114
:100C30000995C801DF91CF911F910F91089549EE59
:100C400051E063E0CE010E949A050FEF1FEFF1CF54
:100C5000CF92DF92EF92FF92DC011D921D921D92C6
:100C60001C921397FB0130E020E0419150E0022EEE
:100C700002C0440F551F0A94E2F7052E000C660BC4
:100C8000770BCD90DD90ED90FC9013974C295D296A
:100C90006E297F294D935D936D937C931397285F05
:100CA0003F4F2032310509F7FF90EF90DF90CF9052
:100CB0000895FC014083518312821382089582E2D9
:100CC00092E0089583E492E008958DE592E008951E
:100CD0008EE792E0089584E992E008958AE091E039
:100CE000089585EB92E0089586ED92E008954F9285
:100CF0005F926F927F928F929F92AF92BF92EF928C
:100D0000FF920F931F93CF93DF9300D000D0CDB706
:100D1000DEB77C018B01FB018191BF01F70182836A
:100D2000CE0101960E94280689819A81AB81BC81FF
:100D30004C015D01F5E08F0E911CA11CB11CA801B6
:100D40004C5F5F4FFA0125E030E02901712C612CE6
:100D5000481459046A047B0428F4618161932F5F6D
:100D60003F4FF3CFF801E80FF91F1482F7015483C6
:100D7000438305960F900F900F900F90DF91CF91C6
:100D80001F910F91FF90EF90BF90AF909F908F9029
:100D90007F906F905F904F90089589EE92E0089554
:100DA0008AE093E008954F925F926F927F928F92C4
:100DB0009F92AF92BF92CF92DF92EF92FF920F93EA
:100DC0001F93CF93DF93CDB7DEB72C970FB6F89470
:100DD000DEBF0FBECDBF7C018B01DB018C9190E0AB
:100DE000F7019383828311962C91922B93838283B4
:100DF0006E5F7F4FCE0101960E94280689809A80FF
:100E0000AB80BC8024013501F6E04F0E511C611C03
:100E1000711C98012B5F3F4FF90186E090E0AC0117
:100E200070E060E0441555056605770520F44181C2
:100E300041930196F4CFB4016A5F7F4FF801E80D4A
:100E4000F91D1582D70115963C932E931497600FC8
:100E5000711FCE0105960E942806BAE08B0E911CE8
:100E60004D805E806F807884C401092C000CAA0B31
:100E7000BB0B5C016D01A40CB51CC61CD71CF80192
:100E8000E80DF91DAF01401B510B70E060E04A1501
:100E90005B056C057D0538F42191AF014250510985
:100EA000DA012C93EFCF480C591CB801640D751D65
:100EB000FB0131971082C4010197800F911FF70148
:100EC00097838683CE0109960E94280692012C5FA3
:100ED0003F4F89849A84AB84BC84A901032E000C03
:100EE000660B770B480D591D6A1D7B1DF801E20F3B
:100EF000F31FCF01801B910BB0E0A0E08417950792
:100F0000A607B70728F48191DF0112978C93F1CFE0
:100F1000C901880D991DF801E80FF91FDF0111972C
:100F20001C9221503109020F131FD70119961C93EF
:100F30000E9318972181428150E070E060E0BA0181
:100F400055274427522B2081422B2381722BF701F6
:100F5000428753876487758704962C960FB6F8945A
:100F6000DEBF0FBECDBFDF91CF911F910F91FF90DC
:100F7000EF90DF90CF90BF90AF909F908F907F9039
:100F80006F905F904F90089583E293E0089584E41A
:100F900093E00895FC01DB014C9150E070E060E0CB
:100FA000428353836483758311968C911197582BD8
:100FB000428353836483758312968C911297682BB6
:100FC000428353836483758313968C911397782B94
:100FD000428353836483758314964C91149750E035
:100FE00070E060E0468357836087718715968C9127
:100FF0001597582B468357836087718716968C9177
:101000001697682B468357836087718717968C9154
:10101000782B468357836087718788E090E0089536
:10102000DC01FB0112968C911297808313968C91B0
:101030001397818314968C911497828315968C91C3
:101040001597838316968C911697848317968C91A7
:101050001797858318968C911897868319968C918B
:10106000878388E090E00895CF92DF92EF92FF921D
:101070000F931F93DC01FB0113960C91139710E063
:1010800030E020E084E036952795179507958A95FE
:10109000D1F714964C91149750E070E060E094E022
:1010A000440F551F661F771F9A95D1F7042B152BF8
:1010B000262B372B15969C911597492F50E070E001
:1010C00060E08CE0440F551F661F771F8A95D1F7AB
:1010D000042B152B262B372B1696CC901697D12C3C
:1010E000F12CE12CB701A60194E1440F551F661FB6
:1010F000771F9A95D1F744275527607F7727402B94
:10110000512B622B732B17960C9180E1089F900155
:101110001124207F3770D701C60114E0B695A7953A
:10112000979587951A95D1F7822B932B8F3F27E0C0
:10113000920709F454C08F3724E0920708F052C098
:10114000813823E09207C4F1805893404F3F2FEF3E
:1011500052076207710509F04AC010E030E020E054
:10116000302F222711270027002711272227307828
:101170007695679557954795402B512B622B732B8E
:10118000092E000CAA0BBB0B17E1880F991FAA1F91
:10119000BB1F1A95D1F7842B952BA62BB72B8083D9
:1011A0009183A283B38388E090E01F910F91FF9019
:1011B000EF90DF90CF900895893623E0920764F096
:1011C000716021E833E0281B390B04C076956795E0
:1011D000579547952A95D2F790E080E0B7CF8FEFEB
:1011E00090E0B4CF40E050E0BA018FEF90E04F5F65
:1011F0005F4F6F4F7F4FB1CFEF92FF920F931F93CF
:10120000CF93DF93EC017B01BC016E5F7F4FC70181
:101210000E9434088C01BE016A5F7F4FC701800FB6
:10122000911F0E943408800F911FDF91CF911F9171
:101230000F91FF90EF900895EF92FF920F931F93FD
:10124000CF93DF938C017B01BC016E5F7F4FC701A1
:101250000E943408EC01B8016A5F7F4FC7018C0F10
:101260009D1F0E943408C80FD91FB801665F7F4FC9
:10127000C7018C0F9D1F0E9434088C0F9D1FDF91AA
:10128000CF911F910F91FF90EF900895EF92FF92F1
:101290000F931F93CF93DF937C01EB0102960E9483
:1012A0001C098C01BE01680F791FC70140960E947E
:1012B0001C09800F911FDF91CF911F910F91FF901B
:1012C000EF9008950F931F93CF93DF938C01EC0160
:1012D0002696CE010E944609D8019496ED91FC9184
:1012E000CE01DF91CF911F910F9109948F929F9220
:1012F000AF92BF92CF92DF92EF92FF921F93CF9364
:10130000DF93EC016A017B01DB01CA0117E1B595AE
:10131000A795979587951A95D1F799276F7777278E
:101320008F3F910509F463C0009709F449C08058C4
:101330009C4F188219821A82242F2295220F207E18
:101340002B834A015B0123E0B694A794979487947A
:101350002A95D1F78C824A015B013BE0B694A794B1
:10136000979487943A95D1F78D82282F2295207FE4
:10137000E3E17695679557954795EA95D1F7422B26
:101380004E83F4E095958795FA95E1F7182F1F772E
:1013900020E030E0A901C701B6010E94CB1B87FD08
:1013A00029C01F8388E090E0DF91CF911F91FF90CB
:1013B000EF90DF90CF90BF90AF909F908F90089567
:1013C000411551056105710509F4B3CF440F551F4F
:1013D000661F771F80E893E067FD06C0440F551F26
:1013E000661F771F0197F8CF6F777727A2CF8FEF10
:1013F00097E09FCF812F80688F83D4CFEF92FF92A9
:101400000F931F93CF93DF937C018B01FC014281EB
:10141000538164817581C8010E947609EC01F7014E
:101420004681578160857185C8018C0F9D1F0E9480
:1014300076098C0F9D1FDF91CF911F910F91FF9027
:10144000EF900895EF92FF920F931F93CF93DF9346
:101450007C018B01FC014281538164817581C8014B
:101460000E947609EC01F7014681578160857185FC
:10147000C8018C0F9D1F0E947609C80FD91FF70164
:101480004285538564857585C8018C0F9D1F0E9418
:1014900076098C0F9D1FDF91CF911F910F91FF90C7
:1014A000EF900895EF92FF920F931F93CF93DF93E6
:1014B0007C01EB0102960E94220A8C01BE01680F9A
:1014C000791FC70140960E94220A800F911FDF9169
:1014D000CF911F910F91FF90EF900895CF93DF93DD
:1014E000EC016230D1F0643051F16130C9F58B818B
:1014F0009C8130E020E050E040E06A81CD960E947F
:101500000F058B819C8130E020E040E050E1698153
:10151000CD96DF91CF910C940F058B819C8130E0AB
:1015200020E050E040E06981CD960E940F058B815C
:101530009C8130E020E040E050E16A81E9CF8B817E
:101540009C8130E020E050E040E06981CD960E942F
:101550000F058B819C8130E020E050E040E0EDCF32
:10156000DF91CF91089585ED8093BC0080912D048B
:1015700090912E04A0912F04B09130040796A11DE4
:10158000B11D23E0B695A795979587952A95D1F734
:101590002091BC0024FD03C010922B0408954091BB
:1015A0002D0450912E0460912F0470913004452B2E
:1015B000462B472B69F30097A105B10541F025E3C0
:1015C0002A95F1F700000197A109B109E1CF8091B7
:1015D0002C040C9458030F931F93CF93DF93CDB734
:1015E000DEB764970FB6F894DEBF0FBECDBF8E0195
:1015F0000F5F1F4F23E049E00E94D218A80161E06D
:1016000082E795E00E949A0564960FB6F894DEBFD3
:101610000FBECDBFDF91CF911F910F910895CF9352
:10162000DF93EC0142E553E061E082E795E00E9440
:101630009A056C817D818E819F810E94EB0A47E52E
:1016400053E061E082E795E00E949A05688579851C
:101650008A859B850E94EB0A4CE553E061E082E7B6
:1016600095E00E949A056C857D858E859F850E94F8
:10167000EB0A41E653E061E082E795E00E949A05BB
:101680006A897B898C899D890E94EB0A46E653E032
:1016900061E082E795E00E949A056E897F89888DD6
:1016A000998D0E94EB0A4BE653E061E082E795E0FA
:1016B0000E949A056A8D7B8D8C8D9D8DDF91CF91D7
:1016C0000C94EB0A2F923F924F925F926F927F920F
:1016D0008F929F92AF92BF92CF92DF92EF92FF9242
:1016E0000F931F93CF93DF93CDB7DEB72E970FB62F
:1016F000F894DEBF0FBECDBF8C016B01DB018D9076
:101700009D90AD90BC90FC0182819381A481B581B4
:1017100088159905AA05BB0570F4B401660F771FFB
:10172000660F771F828593850E94DB1DD8011B966B
:101730009C938E931A97F80182829382A482B58239
:10174000C60140E050E0BA01A4E0EA2EF12C980175
:101750002A5F3F4FDC011596EC91159716964C9039
:101760001697512C712C612C3201552444245E2A89
:101770001496EC9114974E2A1796EC917E2AD70175
:101780001701E4E02E0E311C71010496F8018280ED
:101790009380A480B580481559056A057B05A8F497
:1017A00046825782608671861497A284B384AA0DFC
:1017B000BB1DE4E0BE2EF90101900D92BA94E1F751
:1017C0004F5F5F4F6F4F7F4FC5CF84859585A6854F
:1017D000B78584159505A605B70570F4B201660FA7
:1017E000771F660F771F848995890E94DB1DD801BA
:1017F00055969C938E935497F80144865586668639
:101800007786C601820D931D412C512C32011C019B
:101810009801205F3F4FDC0111966C911197129651
:101820008C901297912CB12CA12C540199248824CE
:10183000962A6C91862A13966C91B62AB4E0EB0E28
:10184000F11CF80144855585668577854416550653
:1018500066067706C0F4808A918AA28AB38ABC01A0
:1018600062197309A489B589A60FB71F64E0F9014D
:1018700001900D926A95E1F7BFEF4B1A5B0A6B0A74
:101880007B0A0496C8CF86899789A08DB18D88156B
:101890009905AA05BB0560F4B401660F771F848D16
:1018A000958D0E94DB1DD8015D969C938E935C976D
:1018B000F801868A978AA08EB18E412C512C320174
:1018C0001801FAE12F0E311CF80186899789A08D45
:1018D000B18D481659066A067B0608F05CC0B60151
:1018E0006E0D7F1DCE0101960E94280697012C5F88
:1018F0003F4F3E872D8789809A80AB80BC80C9018D
:10190000032E000CAA0BBB0BAC01BD01480D591DE9
:101910006A1D7B1D49875A876B877C87F901EC0D0F
:10192000FD1D9F012C193D09B90190E080E029853A
:101930003A854B855C85621773078407950728F401
:101940002191DF0112972C93ECCFED84FE84E80CFB
:10195000F91CF601EE0DFF1D319710828D859E85D5
:1019600001978C0D9D1DD8015B969C938E935A9781
:10197000C201880F991F5C96ED91FC91E80FF91F49
:10198000D1018D919C9191838083BFEF4B1A5B0AAB
:101990006B0A7B0A99CFC7012E960FB6F894DEBF6B
:1019A0000FBECDBFDF91CF911F910F91FF90EF90B0
:1019B000DF90CF90BF90AF909F908F907F906F906F
:1019C0005F904F903F902F9008952F923F924F92AB
:1019D0005F926F927F928F929F92AF92BF92CF92BF
:1019E000DF92EF92FF920F931F93CF93DF93CDB7C8
:1019F000DEB7A6970FB6F894DEBF0FBECDBF8C0141
:101A00000E9406034B015C01980125543D4F3E8B1B
:101A10002D8BF90180819181A281B38175016401CF
:101A2000C81AD90AEA0AFB0AD701C601893F9A42B5
:101A3000A105B10510F035971082180134E5231A7D
:101A40003DEF330AD1018D919C91892B79F0F801FA
:101A5000E154FD4F80819181A281B3818815990560
:101A6000AA05BB0518F4F1011182108298012C54CB
:101A70003D4F3A8B298BA80140555D4F5C8B4B8BBA
:101A8000C8014896988F8F8BD801AA54BD4FBC8F40
:101A9000AB8FF801EC53FD4FFE8FED8F215F3F4F71
:101AA00038A32F8F42505109588B4F8786569D4F30
:101AB0009A8F898F1996BAA3A9A3A50194012C5EC8
:101AC0003F4F4F4F5F4F2BA33CA34DA35EA3F801A5
:101AD00084899589A689B789892B8A2B8B2BB9F59F
:101AE000D80112968D919C91DC01ED91FC910284BC
:101AF000F385E02D09959C0197FF3DC0F801EA545C
:101B0000FD4F8081882301F17801B9E4EB1ABDEF24
:101B1000FB0AF70180819181A281B381A501940123
:101B2000281B390B4A0B5B0BDA01C901853C994034
:101B3000A105B10548F0C8010E946205D7018D9248
:101B40009D92AD92BC92139790E080E0B8C10E9444
:101B50000603681979098A099B09F801C488D588A0
:101B6000E688F788C616D706E806F90608F0B8CF63
:101B70008EEF9FEFA4C1A989BA898D919C9111978D
:101B8000820F931F8D939C93F101408151814730C7
:101B90005105F9F4A98DBA8D8D919C911197AC01E5
:101BA0004F5F5F4F4D935C93800F911FFC01208F1F
:101BB000AF85B8898D919C91119701978D939C93D6
:101BC000892B09F084CF88E090E0F1019183808334
:101BD0007ECF4115510521F52F3F310581F481E07C
:101BE00090E091838083CBA0DCA0EDA0FEA0A9A112
:101BF000BAA1CD92DD92ED92FC92139768CF0E942C
:101C00000603681979098A099B09693873418105B6
:101C1000910508F45CCFF801EA54FD4F1082A8CF7B
:101C20004130510589F42E3F310519F482E090E0EE
:101C3000CCCF11821082EB8DFC8D8081811147CF3A
:101C4000C8010E94620543CF4230510591F4AF852F
:101C5000B8892D933C93E98DFA8D1182108283E02F
:101C600090E0D1018D939C93E989FA893183208397
:101C70002ECF4330510571F4322F2227AF85B8891A
:101C80008D919C911197280F391F2D933C9384E0DF
:101C900090E09BCF4430510579F460E071E00E9400
:101CA000711D8F3F910529F485E090E09183808339
:101CB0000ECF118210820BCF4530510569F4AB89EC
:101CC000BC892D933C9386E090E091838083A98921
:101CD000BA892D933C93FBCE46305105A1F4322FA7
:101CE0002227EB89FC8980819181280F391F31835C
:101CF000208387E090E0D1018D939C93EF85F88954
:101D0000808191815DCF4830510509F0E0CE11828C
:101D1000108260E071E00E94711D8F3F910509F013
:101D2000D6CEAB89BC89ED91FC91309709F0E0C02B
:101D3000C8010E9462058AE291E09A8389831C822D
:101D40001B8281E292E09E838D8398878F839A879E
:101D500089871B861C861D861E866801B8EBCB1AF8
:101D6000BDEFDB0A7801E6E8EE1AEDEFFE0A28E1A6
:101D7000422E55245394612C712CD601ED91FC9187
:101D80003097A9F1848195819C838B838081918197
:101D90009E838D8382819381DC01ED91FC9104808F
:101DA000F581E02D099598878F83D601ED91FC91FF
:101DB00082819381DC01ED91FC910680F781E02D19
:101DC00009959A8789874B865C866D867E86D601C3
:101DD000ED91FC9160857185D801ED91FC910190A8
:101DE000F081E02DAE014F5F5F4FC8010995B2E071
:101DF000CB0ED11CEC14FD0409F0BFCF98E1492EA5
:101E000055245394612C712CF701A081B181109756
:101E1000E1F112968D919C9113979C838B8314967C
:101E20008D919C9115979E838D83ED91FC911197D7
:101E30000480F581E02DCD01099598878F83D70126
:101E40008D919C91DC01ED91FC910680F781E02D54
:101E500009959A8789874B865C866D867E86D80130
:101E6000ED91FC91C080D180F70180819181DC01EE
:101E7000ED91FC910280F381E02D0995AE014F5F59
:101E80005F4FBC01C801F6010995F2E0EF0EF11CAD
:101E9000E214F30409F0B8CFF801EA54FD4F81E0F1
:101EA0008083319680829182A282B382AD89BE897D
:101EB0008D929D92AD92BC9213978FEF9FEFA69655
:101EC0000FB6F894DEBF0FBECDBFDF91CF911F914B
:101ED0000F91FF90EF90DF90CF90BF90AF909F90C9
:101EE0008F907F906F905F904F903F902F900895CC
:101EF000EA30F10509F0A1C082E491E09A83898378
:101F00001B821C821D821E821F82188619861A86D9
:101F10000E940603F801C084D184E284F3849B010B
:101F2000AC012C193D094E095F0969017A016F89DD
:101F3000788DCE0101960E94CA07C701B60128EE2E
:101F400033E040E050E00E94851D69017A019B0169
:101F5000AC018B819C81AD81BE818C0D9D1DAE1D20
:101F6000BF1D8B839C83AD83BE8360E472E48FE0EE
:101F700090E00E94611DCF80D884E984FA84DC015E
:101F8000CB018C0D9D1DAE1DBF1D8F839887A9872A
:101F9000BA870E940603CF80D884E984FA8436E3A6
:101FA000D31A35E6E30A34ECF30A28EE33E040E0D6
:101FB00050E00E94851D29013A019B01AC0160E4BB
:101FC00072E48FE090E00E94611DA7019601261B3C
:101FD000370B480B590BCA01B9012B813C814D814C
:101FE0005E81215031094109510969017A01C41802
:101FF000D508E608F7082601370120E03AEC4AE95F
:102000005BE30E94851D420E531E641E751ED8019F
:102010001C964D925D926D927C921F97F801608B99
:10202000718B828B938B0E940603AD89BE896D9361
:102030007D938D939C9313974ACDE630F10559F427
:102040006F89788D8D8D9E8D0E94620B81E0EF8D62
:10205000F8A180833CCDEB30F10521F4AB8DBC8D34
:102060001C9235CDE752FF4FEE0FFF1FE00FF11F1F
:1020700080819181009709F42ACDDC01ED91FC91DA
:102080000190F081E02D6F89788D099520CD4F92D8
:102090005F926F927F928F929F92AF92BF92CF92F8
:1020A000DF92EF92FF920F931F93CF93DF93EC0198
:1020B0007B018A81FB0180838B8181838C81828378
:1020C0008D8183833496412C512C320104E010E041
:1020D0009F012F5F3F4FCF010296DF011396A801AA
:1020E0000C5F1F4F8A809B80AC80BD8048145904D0
:1020F0006A047B04C8F4AA85BB85A40FB51F149796
:102100004C9111962C91119712969C9112971396BF
:102110008C9140832183928383838FEF481A580ADE
:10212000680A780A3496D4CF4C8540834D85F901EE
:1021300040832E85FC0120838F858C93F701E00F6F
:10214000F11F412C512C3201AF019F012F5F3F4FF6
:10215000CF010296DF0113960C5F1F4F8C849D8484
:10216000AE84BF84481459046A047B04D8F4CF01B8
:10217000841B950BAC89BD89A80FB91F3C911196A2
:102180002C91119712969C91129713968C913083F3
:102190002183928383838FEF481A580A680A780A4A
:1021A0003496D3CF4E8940834F89F9014083288DDF
:1021B000FC012083898D8C93412C512C32018E8916
:1021C0009F89A88DB98D481659066A067B0680F549
:1021D0005201AA0CBB1CEC8DFD8DEA0DFB1DA081EC
:1021E000B181FD0101900020E9F731976F01CA1A12
:1021F000DB0AA60170E060E0C701800F911F0E941A
:1022000059060C5F1F4F8C8D9D8DA80EB91EF501D0
:1022100060817181A601C701800F911F0E94981EE5
:102220000C0D1D1DFFEF4F1A5F0A6F0A7F0AC7CF03
:10223000C801DF91CF911F910F91FF90EF90DF9038
:10224000CF90BF90AF909F908F907F906F905F9056
:102250004F900895EF92FF920F931F93CF93DF93C8
:102260008C017B01DC0112962C911297FB012193CA
:10227000CF011396ED91FC91EF0109900020E9F751
:102280002197CE1BDF0BAE0170E060E00E94590683
:10229000D80113966D917C91AE01C70105960E94FD
:1022A000981ECE010596DF91CF911F910F91FF905F
:1022B000EF900895CF92DF92EF92FF920F931F93CA
:1022C000CF93DF936C01EB01DC0112968C91129796
:1022D000888313968C91139789831496ED91FC91C2
:1022E000DF010D900020E9F78D01015011090E1B4F
:1022F0001F0BA80170E060E0CE0102960E94590613
:10230000F60164817581A801CE0106960E94981E8F
:10231000C8010696F601A681B781FD010190002053
:10232000E9F731977F01EA1AFB0AA70170E060E044
:102330008C0F9D1F0E945906065F1F4FD6011696EF
:102340006D917C91A701CE01800F911F0E94981E74
:102350000E0D1F1DF601A085B185FD010190002025
:10236000E9F731977F01EA1AFB0AA70170E060E004
:10237000CE01800F911F0E9459060C5F1F4FD6019E
:1023800018966D917C91A701CE01800F911F0E943C
:10239000981EC701800F911FF60162854385348521
:1023A0002585C80FD91F688349833A832B830496F8
:1023B000DF91CF911F910F91FF90EF90DF90CF9021
:1023C00008951F920F920FB60F9211242F933F93EF
:1023D0004F935F936F937F938F939F93AF93BF932D
:1023E000EF93FF9381E694E00E94D401FF91EF9177
:1023F000BF91AF919F918F917F916F915F914F911D
:102400003F912F910F900FBE0F901F9018951F9224
:102410000F920FB60F9211242F938F939F93EF93E8
:10242000FF93E0917104F09172048081E091770450
:10243000F091780482FD1BC0908180917A048F5FB7
:102440008F7320917B04821741F0E0917A04F0E0D1
:10245000EF59FB4F958F80937A04FF91EF919F91F5
:102460008F912F910F900FBE0F901F901895808124
:10247000F4CF1F920F920FB60F9211242F933F9318
:102480008F939F93AF93BF938091CF039091D0038D
:10249000A091D103B091D2033091CE0323E0230F5A
:1024A0002D3758F50196A11DB11D2093CE038093C1
:1024B000CF039093D003A093D103B093D203809124
:1024C000D3039091D403A091D503B091D603019684
:1024D000A11DB11D8093D3039093D403A093D50382
:1024E000B093D603BF91AF919F918F913F912F9160
:1024F0000F900FBE0F901F90189526E8230F02969D
:10250000A11DB11DD2CF1F920F920FB60F921124B1
:102510002F933F934F935F936F937F938F939F93EB
:10252000AF93BF93EF93FF93E0910201F09103010A
:102530000995FF91EF91BF91AF919F918F917F91FD
:102540006F915F914F913F912F910F900FBE0F9020
:102550001F9018951F920F920FB60F9211242F9370
:102560003F934F935F936F937F938F939F93AF931B
:10257000BF93EF93FF93E0910001F0910101099562
:10258000FF91EF91BF91AF919F918F917F916F914B
:102590005F914F913F912F910F900FBE0F901F9021
:1025A00018951F920F920FB60F9211242F933F93FD
:1025B0004F935F936F937F938F939F93AF93BF934B
:1025C000EF93FF938091B900887F803609F44AC069
:1025D000F0F5883209F4A7C018F5803109F49BC0E2
:1025E000B8F4882309F4F9C0883009F494C0FF9145
:1025F000EF91BF91AF919F918F917F916F915F917B
:102600004F913F912F910F900FBE0F901F901895F3
:10261000883109F488C0803251F78093290414C0AE
:10262000803409F49DC040F48033B9F38833F9F65F
:102630008093290485ECB0C0803509F485C08835C5
:1026400009F496C0883499F60E94B30AD0CF88392D
:1026500009F48CC038F5883729F050F4883611F029
:10266000803729F683E080932B041092CD0357C066
:10267000883809F47BC0803919F0803809F0B7CF69
:102680008091CD03803208F071C0E091CD0381E0EC
:102690008E0F8093CD038091BB00F0E0E355FC4F9B
:1026A00080833DC0803B39F0E0F4803A09F479C082
:1026B000883A09F09CCF84E080932B041092AC03FD
:1026C0001092AB03E091F703F091F8030995809124
:1026D000AB0381110FC081E08093AB0310928B0399
:1026E00009C0803C09F4A6CF883C09F4A3CF883BFD
:1026F00009F07DCFE091AC0381E08E0F8093AC03B5
:10270000F0E0E557FC4F80818093BB009091AC03D3
:102710008091AB0329C0809106048093BB0085ECB7
:102720008093BC0064CF909128048091270498176F
:1027300058F5E091280481E08E0F80932804F0E0A2
:10274000E95FFB4F8081E9CFE091280481E08E0FA3
:10275000809328048091BB00F0E0E95FFB4F808309
:1027600090912804809127049817C8F285E8D8CF63
:10277000E091280481E08E0F809328048091BB00B3
:10278000F0E0E95FFB4F808380912A0481115CCFE8
:1027900081E08093050484EA8093BC0010922B04AE
:1027A00026CF85EC8093BC0010922B048091CD0342
:1027B000803230F4E091CD03F0E0E355FC4F10821D
:1027C0006091CD0370E0E091F903F091FA038DEA96
:1027D00093E009951092CD030ACF1092290434CFCB
:1027E000109264041092630488EE93E0A0E0B0E0DD
:1027F0008093650490936604A0936704B093680483
:102800002EE431E0309362042093610425EC30E043
:1028100030936E0420936D0424EC30E03093700408
:1028200020936F0420EC30E0309372042093710405
:1028300021EC30E0309374042093730422EC30E0F8
:10284000309376042093750426EC30E030937804BE
:102850002093770410927A0410927B0410927C04E7
:1028600010927D04109258041092570480935904DA
:1028700090935A04A0935B04B0935C0480E691E0CB
:10288000909356048093550480EA91E09093550804
:1028900080935408109256081092570810925808C6
:1028A0001092590810925A0810925B0810925C0816
:1028B00010925D0886E991E090937305809372050C
:1028C00081E694E0909375058093740580E091EE25
:1028D000A0E0B0E08093760590937705A09378050B
:1028E000B093790510927A0510927B0510927C05C1
:1028F00010927D0510927E0510927F051092800542
:102900001092810510928205109283051092840521
:102910001092850510928605109287051092880501
:102920001092890588E191E0EAE8F5E0DF019C0179
:102930001D9221503040E1F7E2EAF6E0DF019C0110
:102940001D9221503040E1F782E3EAEBF7E0DF012E
:10295000282F1D922A95E9F7ECEEF7E0DF011D9292
:102960008A95E9F710921F0810921E08109221080C
:102970001092200810922308109222081092250825
:102980001092240810922708109226081092280806
:102990001092290810922A0810922B0810922C08E5
:1029A00010922D0810922E0810922F0810923008C5
:1029B00010923108109232081092330810923408A5
:1029C000109235088AE891E0909337088093360892
:1029D000109238081092390810923A0810923B0869
:1029E00010923C0810923D0810923E0810923F0849
:1029F0001092410810924008109242081092430829
:102A00001092440810924508109246081092470808
:102A1000109248081092490810924B0810924A08E8
:102A200010924C0810924D0810924E0810924F08C8
:102A300010925108109250081092530810925208A8
:102A4000E9E3F5E081E595E01482138215821282B4
:102A50001182108236968E179F07B1F710925D058E
:102A60001092600510925C0510925B0510926D0546
:102A70001092700510926C0510926B0580E68093A1
:102A800036058093710580914405882309F488C038
:102A90008FE395E0909333058093320580913E0556
:102AA00081110FC084E395E090933D0580933C0530
:102AB00088E0809339058AE080933A0589E0809325
:102AC0003B0589E395E0909331058093300580E7DD
:102AD00093E0909327058093260584E598E09093F2
:102AE00029058093280510922F0510922E058CEA57
:102AF00091E09093FF048093FE048EE791E0909321
:102B000005058093040582E791E090930705809383
:102B10000605109208051092090510920A051092F8
:102B20000B0510920C0510920D0510920E051092D7
:102B30000F051092100510921105109212051092B7
:102B400013059093150580931405109216051092A5
:102B50001705109218051092190510921A05109277
:102B60001B0510921C0510921D0510921E05109257
:102B70001F0510922005109221058FE09BE0909395
:102B800023058093220581E090E0909325058093B2
:102B9000240581E893E0909303058093020508954E
:102BA00081E08093440584E395E09093430580930E
:102BB00042058DE080933F058BE0809340058CE0DB
:102BC0008093410565CF789484B5826084BD84B5D7
:102BD000816084BD85B5826085BD85B5816085BD18
:102BE00080916E00816080936E00109281008091D0
:102BF0008100826080938100809181008160809358
:102C00008100809180008160809380008091B1007C
:102C100084608093B1008091B00081608093B000A7
:102C200080917A00846080937A0080917A0082603B
:102C300080937A0080917A00816080937A008091FD
:102C40007A00806880937A001092C100C091740568
:102C5000D0917505C0907605D0907705E090780505
:102C6000F090790560E079E08DE390E0A7019601AE
:102C70000E94851D215031094109510956954795FA
:102C800037952795E889F98982E08083C11481EE20
:102C9000D806E104F10421F02115A0E13A0798F0EB
:102CA000E889F989108260E874E88EE190E0A70174
:102CB00096010E94851D21503109410951095695FF
:102CC000479537952795EC85FD853083EE85FF8503
:102CD0002083188EEC89FD8986E08083EA89FB8950
:102CE000808180618083EA89FB898081886080831C
:102CF000EA89FB89808180688083EA89FB898081F9
:102D00008F7D808310921F0810921E081092210858
:102D1000109220081092250810922408109223087F
:102D200010922208EAEBF7E090E080E021913191E7
:102D3000232B09F0C4C0FC01EE0FFF1FE654F84F2F
:102D400026E235E03183208383589F4F90932B05F3
:102D500080932A0582E795E090932D0580932C05BA
:102D600082E00E94040183E00E94040185E594E072
:102D700090933505809334051092FC031092FB0369
:102D800010923204109254040E943A0384E591E0B8
:102D90009093F8038093F70385E591E09093FA030D
:102DA0008093F9030E943A0360E080E00E94F404FB
:102DB00080E496E090933805809337058091710503
:102DC00091E0909331048093530410923204109256
:102DD000540460E085E594E00E94C00481E00E9414
:102DE0007903C09171050E94AF026B017C01809153
:102DF0002B0481116AC081E080932B0480932A0404
:102E00009FEF909329041092280410922704809336
:102E1000060480910604CC0FC82BC0930604809151
:102E20000504813009F098C1109205040E94AF0298
:102E30006B017C01809106048093BB0080912D047E
:102E400090912E04A0912F04B0913004892B8A2BED
:102E50008B2BA1F00E94AF0280902D0490902E0445
:102E6000A0902F04B09030046C197D098E099F0941
:102E700086169706A806B90608F448C08091BC00DB
:102E800083FDD8CF85EC8093BC000E94AF026B011C
:102E90007C0180912B04813009F460C18091280469
:102EA00081117EC180912804E7E0F4E0A7EDB3E052
:102EB00090E0981781F121912D939F5FFACF0196B1
:102EC0008931910509F032CF4BCF80912D0490913B
:102ED0002E04A0912F04B0913004892B8A2B8B2BC8
:102EE00009F485CF0E94AF0280902D0490902E04AB
:102EF000A0902F04B09030046C197D098E099F09B1
:102F000086169706A806B90608F071CF80912C04A2
:102F10000E94580380E01092FC038093FB0385E538
:102F200094E00E947904C82F682F6F76606180E07A
:102F30000E94F40463E08EEF0E94F4046C2F80E0A2
:102F40000E94F40465E070E080E090E00E94D4020A
:102F50006C2F616A80E00E94F404C0E030E020E061
:102F600050E040E06C2F81E795E00E940F05CF5FB5
:102F7000C031A1F7C0913205D091330560E0CE0198
:102F80000E94430561E0CE010E946E0A64E0CE011A
:102F90000E946E0AC0913005D091310560E0CE01EB
:102FA0000E94430561E0CE010E946E0A64E0CE01FA
:102FB0000E946E0A8CE291E09093010180930001DF
:102FC000809169008C7F816080936900E89A80E439
:102FD00091E0909303018093020180916900837FC7
:102FE000846080936900E99AC0E0D0E0C090010459
:102FF000D0900204E0900304F090040464E670E0D2
:1030000080E090E00E94D40260910104709102047B
:103010008091030490910404072E000C880B990BF7
:103020000E94441C4B015C01B601DD0C880B990B1E
:103030000E94441C9B01AC01C501B4010E945E1BAF
:1030400020E030E040EE51E40E94D01B9B01AC0137
:103050000E945F1B2BED3FE049E450E40E94F41C0A
:103060002DEC3CEC4CEC5DE30E94D01B60935608C9
:10307000709357088093580890935908C090FD03A7
:10308000D090FE03E090FF03F090000464E670E04F
:1030900080E090E00E94D4026091FD037091FE03F5
:1030A0008091FF0390910004072E000C880B990B70
:1030B0000E94441C4B015C01B601DD0C880B990B8E
:1030C0000E94441C9B01AC01C501B4010E945E1B1F
:1030D00020E030E040EE51E40E94D01B9B01AC01A7
:1030E0000E945F1B2BED3FE049E450E40E94F41C7A
:1030F0002DEC3CEC4CEC5DE30E94D01B60935A0835
:1031000070935B0880935C0890935D0880912C0518
:1031100090912D0560912A0570912B05DC01ED91B0
:10312000FC910190F081E02D44E558E0099582E79B
:1031300095E00E94E50C63E070E080E090E00E9482
:10314000D402209709F452CF0E94C001882309F4C9
:103150004DCF0E9400004ACF85EE95CE80912D0480
:1031600090912E04A0912F04B0913004892B8A2BCA
:103170008B2B09F48ECE0E94AF0280902D0490908C
:103180002E04A0902F04B09030046C197D098E0994
:103190009F0986169706A806B90608F07ACEB6CE1D
:1031A00081E082CEEF920F931F93CF93DF93E801DC
:1031B00034E047FD34E1042E000C550B57FF03C0EB
:1031C000519541955109E32E022F242FAE010E9403
:1031D000F018CE01DF91CF911F910F91EF900895DC
:1031E000A9E0B0E0E6EFF8E10C942D1B6A01F22EA5
:1031F000B02E102FFBE3AF2EA01608F41BE31F5FC9
:10320000012F27E0AE014F5F5F4F0E944F1ABC01B4
:103210008981982F9970913009F43FC09BE2E1FCBD
:1032200004C09E2D9170E0FC3AC05E2D5071E82FD5
:10323000E87083FF46C084E0911101C083E0EF2D68
:10324000E81B8F1508F0E0E0D6018E2F20E2552311
:1032500051F1992329F0D6019C93C60101966C0186
:1032600096012D5F3F4FE2FE24C08EE4D6018C9381
:1032700091E411969C93119712968C93D9018E2FFD
:1032800090E281111BC0E20FF32FF11D10828EEF2F
:103290009FEF2996ECE00C94491B9DE2C6CF90E28B
:1032A000C4CF2D9381508111FCCFCE0ED11CE0E014
:1032B000D0CF8EE6D6018C9391E6DBCF9D938150E3
:1032C000E0CF482F447082FF3DC084E0911101C0DF
:1032D00083E08F1510F4EF2DE81BD6018E2F20E22E
:1032E000552309F1992329F0D6019C93C601019633
:1032F0006C0196012D5F3F4FE2FE1BC089E4D601B1
:103300008C938EE411968C93119786E412968C938D
:10331000D9018E2F90E2882309F4B5CF9D93815077
:10332000FACF2D9381508111FCCFCE0ED11CE0E05D
:10333000D9CF89E6D6018C938EE611968C9311979E
:1033400086E6E4CF9B0177FF02C030E020E0A1E0F9
:10335000B0E0911102C0B0E0A0E0F9013196AE0FEB
:10336000BF1F8B2C912CBB2009F461C05401EFEFDF
:10337000AE1ABE0AAA0DBB1DFA161B0619F014F0F0
:103380004F2D4A1B511188C0E3FC59C07601A42F70
:10339000B0E2A1114FC0C40ED11C992309F45BC047
:1033A00040E0D6011196F60190836D01552309F492
:1033B00048C0012F060F9A81582F507184FF03C017
:1033C000913309F4015010160CF047C0093008F091
:1033D00008E0EEE2FE2E5B01A01AB108850191948F
:1033E000819491082F3F320729F4D601FC92F6010F
:1033F00031966F016217730794F1021713077CF57A
:10340000DB01A21BB30BAA24A394B12CAC0EBD1EEE
:10341000AA0DBB1D11968C9121503109D601119630
:1034200028153905F4F0F60180836D01DBCFB12C4E
:10343000A12CA0CFF701B1937F01A150AACF911188
:10344000B0CFD601942F50E302C05D9391509111FB
:10345000FCCFC40ED11C40E0ACCF01E0BACF80E37A
:10346000DBCF6217730731F4963388F4953311F488
:10347000552369F0F6018083FD01842F90E28111CC
:1034800008C0A40FB11D1C9290E080E002CF81E340
:10349000F1CF91938150F3CF911183CF8ACF283010
:1034A00008F027E03327DA01990F311D87FD91607D
:1034B00000966105710539F432602E5F3D9330E36B
:1034C0002A95E1F708959F3F30F080387105610536
:1034D00009F03C5F3C5F3D93913008F08068911D9E
:1034E000DF93CF931F930F93FF92EF92192F987F43
:1034F0009695E92F96959695E90FFF27EE53FF4F86
:1035000099273327EE24FF24A701E70105900894AB
:10351000079428F4360FE71EF81E491F511D660F49
:10352000771F881F991F0694A1F70590079428F428
:10353000E70EF81E491F561FC11D770F881F991FE0
:10354000661F0694A1F70590079428F4F80E491F0A
:10355000561FC71FD11D880F991F661F771F06941E
:10356000A1F70590079420F4490F561FC71FD81FD5
:10357000990F661F771F881F0694A9F784911095ED
:10358000177041F0D695C79557954795F794E794EE
:103590001A95C1F7E8E6F0E0689415901591359119
:1035A0006591959105907FE27395E118F10A430BBF
:1035B000560BC90BD009C0F7E10CF11E431F561F73
:1035C000C91FD01D7EF4703311F48A95E6CFE894BC
:1035D000015030F0080F0AF40027021708F4202FDA
:1035E0002395022F7A3328F079E37D932A95E9F722
:1035F00010C07D932A9589F606949795679537951F
:1036000017951794E118F10A430B560BC90BD00913
:1036100098F023957E9173957A3308F070E37C934C
:103620002013B8F77E9170617D9330F0839571E33C
:103630007D9370E32A95E1F71124EF90FF900F91AD
:103640001F91CF91DF91992787FD909508952F9233
:103650003F924F925F926F927F928F929F92AF9222
:10366000BF92CF92DF92EF92FF920F931F93CF936F
:10367000DF93CDB7DEB7CA1BDB0B0FB6F894DEBF06
:103680000FBECDBF09942A88398848885F846E842C
:103690007D848C849B84AA84B984C884DF80EE8076
:1036A000FD800C811B81AA81B981CE0FD11D0FB67F
:1036B000F894DEBF0FBECDBFED0108955058BB2773
:1036C000AA270E94761B0C94BA1C0E94AC1C38F0EE
:1036D0000E94B31C20F039F49F3F19F426F40C9497
:1036E000A91C0EF4E095E7FB0C94A31CE92F0E94A3
:1036F000CB1C58F3BA17620773078407950720F0AD
:1037000079F4A6F50C94ED1C0EF4E0950B2EBA2F6F
:10371000A02D0B01B90190010C01CA01A0011124D7
:10372000FF27591B99F0593F50F4503E68F11A1683
:10373000F040A22F232F342F4427585FF3CF469514
:1037400037952795A795F0405395C9F77EF41F1636
:10375000BA0B620B730B840BBAF09150A1F0FF0F00
:10376000BB1F661F771F881FC2F70EC0BA0F621FEC
:10377000731F841F48F4879577956795B795F795DC
:103780009E3F08F0B0CF9395880F08F09927EE0F71
:103790009795879508950E947F1C08F481E008950D
:1037A0000E94E41B0C94BA1C0E94B31C58F00E94A7
:1037B000AC1C40F029F45F3F29F00C94A31C51117C
:1037C0000C94EE1C0C94A91C0E94CB1C68F399234A
:1037D000B1F3552391F3951B550BBB27AA2762170D
:1037E0007307840738F09F5F5F4F220F331F441F1A
:1037F000AA1FA9F335D00E2E3AF0E0E832D091504E
:103800005040E695001CCAF72BD0FE2F29D0660F3A
:10381000771F881FBB1F261737074807AB07B0E87D
:1038200009F0BB0B802DBF01FF2793585F4F3AF083
:103830009E3F510578F00C94A31C0C94EE1C5F3F46
:10384000E4F3983ED4F3869577956795B795F79509
:103850009F5FC9F7880F911D9695879597F90895F1
:10386000E1E0660F771F881FBB1F6217730784078D
:10387000BA0720F0621B730B840BBA0BEE1F88F79C
:10388000E0950895E89409C097FB3EF490958095E3
:10389000709561957F4F8F4F9F4F9923A9F0F92F16
:1038A00096E9BB279395F695879577956795B79594
:1038B000F111F8CFFAF4BB0F11F460FF1BC06F5F7A
:1038C0007F4F8F4F9F4F16C0882311F096E911C08C
:1038D000772321F09EE8872F762F05C0662371F0AD
:1038E00096E8862F70E060E02AF09A95660F771FC1
:1038F000881FDAF7880F9695879597F90895990F9D
:103900000008550FAA0BE0E8FEEF16161706E807A9
:10391000F907C0F012161306E407F50798F0621BCA
:10392000730B840B950B39F40A2661F0232B242B9F
:10393000252B21F408950A2609F4A140A6958FEFBE
:10394000811D811D089597F99F6780E870E060E010
:1039500008959FEF80EC089500240A941616170628
:1039600018060906089500240A9412161306140670
:1039700005060895092E0394000C11F4882352F0D3
:10398000BB0F40F4BF2B11F460FF04C06F5F7F4F8B
:103990008F4F9F4F089557FD9058440F551F59F072
:1039A0005F3F71F04795880F97FB991F61F09F3F2C
:1039B00079F087950895121613061406551FF2CF55
:1039C0004695F1DF08C0161617061806991FF1CFA5
:1039D00086957105610508940895E894BB276627CC
:1039E0007727CB0197F908950E94071D0C94BA1C04
:1039F0000E94AC1C38F00E94B31C20F0952311F0FB
:103A00000C94A31C0C94A91C11240C94EE1C0E9471
:103A1000CB1C70F3959FC1F3950F50E0551F629F2B
:103A2000F001729FBB27F00DB11D639FAA27F00D17
:103A3000B11DAA1F649F6627B00DA11D661F829F3E
:103A40002227B00DA11D621F739FB00DA11D621F23
:103A5000839FA00D611D221F749F3327A00D611D40
:103A6000231F849F600D211D822F762F6A2F112422
:103A70009F5750409AF0F1F088234AF0EE0FFF1F55
:103A8000BB1F661F771F881F91505040A9F79E3FAC
:103A9000510580F00C94A31C0C94EE1C5F3FE4F3E2
:103AA000983ED4F3869577956795B795F795E79502
:103AB0009F5FC1F7FE2B880F911D9695879597F90B
:103AC0000895DB018F939F930E94A71DBF91AF9133
:103AD000A29F800D911DA39F900DB29F900D112468
:103AE000089597FB072E16F4009407D077FD09D0B0
:103AF0000E94B21D07FC05D03EF4909581959F4F22
:103B00000895709561957F4F0895A1E21A2EAA1B22
:103B1000BB1BFD010DC0AA1FBB1FEE1FFF1FA2177D
:103B2000B307E407F50720F0A21BB30BE40BF50B7A
:103B3000661F771F881F991F1A9469F76095709503
:103B4000809590959B01AC01BD01CF0108950E9425
:103B5000CC1DA59F900DB49F900DA49F800D911D2D
:103B600011240895AA1BBB1B51E107C0AA1FBB1F4C
:103B7000A617B70710F0A61BB70B881F991F5A95F9
:103B8000A9F780959095BC01CD010895EE0FFF1F18
:103B90000590F491E02D0994A29FB001B39FC0015C
:103BA000A39F700D811D1124911DB29F700D811D69
:103BB0001124911D0895B0E0A0E0E1EEFDE10C9428
:103BC000291B8C01009751F4CB010E94A11E8C018E
:103BD000C801CDB7DEB7E0E10C94451BFC01E60F50
:103BE000F71F9C0122503109E217F30708F49DC02A
:103BF000D901CD91DC911197C617D70798F0C53040
:103C0000D10530F3CE0104978617970708F3C61B3A
:103C1000D70B2297C193D1936D937C93CF010E94D0
:103C20003D1FD6CF5B01AC1ABD0A4C018C0E9D1E08
:103C3000A0916008B0916108512C412CF12CE12C2D
:103C4000109731F580915E0890915F08881599056D
:103C500009F05CC04616570608F058C08091040170
:103C600090910501009741F48DB79EB740910801EE
:103C700050910901841B950BE817F90708F055C00E
:103C8000F0935F08E0935E08F90171836083A0CF31
:103C90008D919C91119712966C90129713967C902F
:103CA0001397A815B90559F56C0142E0C40ED11C53
:103CB000CA14DB0420F1AC014A195B09DA0112963F
:103CC000159780F06282738251834083D9016D938E
:103CD0007C93E114F10471F0D7011396FC93EE93F9
:103CE000129776CF22968C0F9D1FF90191838083C6
:103CF000F301EFCFF0936108E093600869CF4816B5
:103D0000590608F42C017D01D3019ACFCB010E9402
:103D1000A11E7C01009749F0AE01B8010E94981ED7
:103D2000C8010E943D1F870153CF10E000E050CF33
:103D3000FB01DC0102C001900D9241505040D8F7C8
:103D400008950F931F93CF93DF938230910510F462
:103D500082E090E0E0916008F091610830E020E0BE
:103D6000B0E0A0E0309799F42115310509F44AC07C
:103D7000281B390B24303105D8F58A819B816115C8
:103D8000710589F1FB0193838283FE0111C040819B
:103D900051810281138148175907E0F048175907EC
:103DA00099F4109761F012960C93129713961C9346
:103DB0003296CF01DF91CF911F910F91089500931B
:103DC000600810936108F4CF2115310551F04217B6
:103DD000530738F0A901DB019A01BD01DF01F801A9
:103DE000C1CFEF01F9CF9093610880936008CDCFE8
:103DF000FE01E20FF31F8193919322503109398321
:103E00002883D7CF20915E0830915F08232B41F49F
:103E1000209106013091070130935F0820935E08DE
:103E200020910401309105012115310541F42DB790
:103E30003EB74091080150910901241B350BE091D8
:103E40005E08F0915F08E217F307A0F42E1B3F0B0A
:103E50002817390778F0AC014E5F5F4F24173507FC
:103E600048F04E0F5F1F50935F0840935E088193A8
:103E700091939FCFF0E0E0E09CCFCF93DF9300974A
:103E8000E9F0FC01329713821282A0916008B09190
:103E90006108ED0130E020E01097A1F4208131812C
:103EA000820F931F20915E0830915F082817390711
:103EB00009F061C0F0935F08E0935E08DF91CF9155
:103EC0000895EA01CE17DF07E8F54A815B819E017C
:103ED00041155105B1F7E901FB83EA8349915991F5
:103EE000C40FD51FEC17FD0761F480819181029604
:103EF000840F951FE90199838883828193819B8335
:103F00008A83F0E0E0E012968D919C9113970097E0
:103F1000B9F52D913C911197CD010296820F931F17
:103F200020915E0830915F082817390739F63097DD
:103F300051F51092610810926008B0935F08A09349
:103F40005E08BCCFD383C28340815181840F951F0B
:103F5000C817D90761F44E5F5F4F88819981480F78
:103F6000591F518340838A819B81938382832115CA
:103F7000310509F0B0CFF0936108E09360089ECF5F
:103F8000FD01DC01C0CF13821282D7CFF894FFCF9E
:103F900012031203000062088000726F737365726F
:103FA00069616C5F6D7367732F52657175657374AA
:103FB000506172616D00000000005A11D306D006F6
:103FC000CD06000000002A11770674067106000075
:103FD00000001008CA07C707C40700000000F60168
:103FE000560183014302B4019201A60100000000C2
:103FF000C0049304500569048C0479046A04000029
:104000000000220A1C096806650600000000520A2A
:1040100046095B055805000000004710620B6E065C
:104020006B0600000000BC05E50C53050000000015
:10403000FE09FC0862065F060000000062095E05DA
:104040005B055805396631393566383831323436D2
:10405000666466613237393864316433656562633A
:10406000613834610067656F6D657472795F6D7377
:1040700067732F5477697374004D65737361676557
:104080002066726F6D206465766963652064726F67
:10409000707065643A206D657373616765206C614B
:1040A00072676572207468616E20627566666572FB
:1040B0002E0061313033373837303962313464346F
:1040C00063366566323837353766323234363265B4
:1040D0003366006D617A655F726F626F742F4D6138
:1040E0007A65526F626F745374617465003461381D
:1040F0003432623635663431333038346463326298
:10410000313066623438346561376631370067654F
:104110006F6D657472795F6D7367732F5665637425
:104120006F7233003966306539386264613635390B
:1041300038313938366464663533616661376134E5
:10414000306534390031316162643733316332357F
:104150003933333236316364363138336264313265
:10416000643632393500726F7373657269616C5FE2
:104170006D7367732F4C6F6700306164353166383B
:10418000386663343438393266386331303638341F
:1041900030373736343630303500726F73736572AE
:1041A00069616C5F6D7367732F546F706963496EDB
:1041B000666F0063643731363663373463353532C2
:1041C00063333131666263633266653561376263DA
:1041D000323839007374645F6D7367732F54696D7F
:1041E0006500765F783A00765F793A00765F7A3AD2
:1041F00000775F783A00775F793A00775F7A3A0024
:104200006D617A655F726F626F745F7374617465FC
:0A42100000636D645F76656C0000CA
:00000001FF
