:020000040000FA
:100000000C9453000C941D030C94F6020C947B008A
:100010000C947B000C947B000C947B000C947B0074
:100020000C947B000C947B000C947B000C947B0064
:100030000C947B000C947B000C947B000C947B0054
:100040000C94AC020C947B000C947A020C94540235
:100050000C947B000C947B000C947B000C947B0034
:100060000C947B000C947B0000000000250028000D
:100070002B0000000000240027002A0004040404D0
:100080000404040402020202020203030303030342
:10009000010204081020408001020408102001021F
:1000A00004081020440311241FBECFEFD8E0DEBFA8
:1000B000CDBF11E0A0E0B1E0ECE6F9E002C00590B0
:1000C0000D92AA31B107D9F721E0AAE1B1E001C050
:1000D0001D92AC3FB207E1F710E0C3E5D0E004C0E9
:1000E0002197FE010E94AE04C235D107C9F70E94D4
:1000F000E3030C94B4040C9400008091DE01909111
:10010000DF01A091E001B091E1010196A11DB11DB7
:100110008093DE019093DF01A093E001B093E101B1
:1001200008958091C0019091C101A091C201B09148
:10013000C3010196A11DB11D8093C0019093C1011F
:10014000A093C201B093C3010895AF92BF92CF9222
:10015000DF92EF92FF920F931F93CF93DF936C0187
:100160007B018B01040F151FEB015E01AE18BF0868
:10017000C017D10759F06991D601ED91FC9101901A
:10018000F081E02DC6010995892B79F7C501DF9132
:10019000CF911F910F91FF90EF90DF90CF90BF9084
:1001A000AF900895FC01538D448D252F30E0842FAE
:1001B00090E0821B930B541710F0CF96089501978F
:1001C0000895FC01918D828D981761F0A28DAE0F7C
:1001D000BF2FB11D5D968C91928D9F5F9F73928F03
:1001E00090E008958FEF9FEF0895FC01918D828D2F
:1001F000981731F0828DE80FF11D858D90E00895FC
:100200008FEF9FEF0895FC01918D228D892F90E053
:10021000805C9F4F821B91098F73992708958FE10E
:1002200091E00E94030121E0892B09F420E0822F54
:10023000089580E090E0892B29F00E940F01811140
:100240000C9400000895FC01A48DA80FB92FB11DD6
:10025000A35ABF4F2C91848D90E001968F739927FC
:10026000848FA689B7892C93A089B1898C918370DA
:1002700080648C93938D848D981306C00288F389D3
:10028000E02D80818F7D80830895EF92FF920F9300
:100290001F93CF93DF93EC0181E0888F9B8D8C8D32
:1002A00098131AC0E889F989808185FF15C09FB726
:1002B000F894EE89FF896083E889F98980818370E9
:1002C000806480839FBF81E090E0DF91CF911F9198
:1002D0000F91FF90EF900895F62E0B8D10E00F5FB9
:1002E0001F4F0F731127E02E8C8D8E110CC00FB68F
:1002F00007FCFACFE889F989808185FFF5CFCE0127
:100300000E942301F1CFEB8DEC0FFD2FF11DE35A7D
:10031000FF4FF0829FB7F8940B8FEA89FB898081A9
:100320008062CFCFCF93DF93EC01888D8823B9F023
:10033000AA89BB89E889F9898C9185FD03C08081F0
:1003400086FD0DC00FB607FCF7CF8C9185FFF2CF6D
:10035000808185FFEDCFCE010E942301E9CFDF919F
:10036000CF9108950895CF93DF93DC012D913C91B7
:1003700011973327F901E057FF4F949124583F4FCD
:10038000F90124912223C9F030E0220F331FF90133
:10039000EE58FF4F45915491F901E859FF4FC5912F
:1003A000D4912FB7F894FA013081892F8095832357
:1003B0008083E8819E2B98832FBF14968D919C910A
:1003C00015972D913C912230310589F0233031056C
:1003D00059F4909303018093020180916900837F17
:1003E000846080936900E99ADF91CF91089590939A
:1003F000010180930001809169008C7F816080936E
:100400006900E89AF1CFFC0101900020E9F73197EB
:10041000AF01481B590BBC018FE191E00C94A50082
:100420008F929F92AF92BF920F931F93CF93DF93C0
:10043000CDB7DEB7A1970FB6F894DEBF0FBECDBF24
:1004400019A2423008F44AE08E010F5D1F4F842E3E
:10045000912CB12CA12CA50194010E948C04E62FB3
:10046000B901CA01EA30F4F4E05DD801EE938D01E0
:10047000232B242B252B79F790E080E0109719F09F
:10048000CD010E940302A1960FB6F894DEBF0FBE05
:10049000CDBFDF91CF911F910F91BF90AF909F90F3
:1004A0008F900895E95CE1CF1F920F920FB60F92E3
:1004B00011242F933F934F935F936F937F938F9369
:1004C0009F93AF93BF93EF93FF938FE191E00E94CF
:1004D0002301FF91EF91BF91AF919F918F917F91F8
:1004E0006F915F914F913F912F910F900FBE0F90A1
:1004F0001F9018951F920F920FB60F9211242F93F1
:100500008F939F93EF93FF93E0912F01F091300130
:100510008081E0913501F091360182FD1BC0908110
:10052000809138018F5F8F7320913901821741F0DC
:10053000E0913801F0E0E15EFE4F958F8093380145
:10054000FF91EF919F918F912F910F900FBE0F9080
:100550001F9018958081F4CF1F920F920FB60F92C3
:1005600011242F933F938F939F93AF93BF938091C9
:10057000BC019091BD01A091BE01B091BF0130912D
:100580001E0123E0230F2D3758F50196A11DB11D43
:1005900020931E018093BC019093BD01A093BE01E6
:1005A000B093BF0180911A0190911B01A0911C0191
:1005B000B0911D010196A11DB11D80931A01909368
:1005C0001B01A0931C01B0931D01BF91AF919F919E
:1005D0008F913F912F910F900FBE0F901F90189504
:1005E00026E8230F0296A11DB11DD2CF1F920F92B4
:1005F0000FB60F9211242F933F934F935F936F93F6
:100600007F938F939F93AF93BF93EF93FF93E0916B
:100610000201F09103010995FF91EF91BF91AF9114
:100620009F918F917F916F915F914F913F912F910A
:100630000F900FBE0F901F9018951F920F920FB63C
:100640000F9211242F933F934F935F936F937F9358
:100650008F939F93AF93BF93EF93FF93E09100012C
:10066000F09101010995FF91EF91BF91AF919F9199
:100670008F917F916F915F914F913F912F910F904B
:100680000FBE0F901F901895CF92DF92EF92FF92BE
:100690000F931F93EFE1F1E01382128288EE93E053
:1006A000A0E0B0E084839583A683B78328E031E09F
:1006B0003183208325EC30E03587248724EC30E03B
:1006C0003787268720EC30E0318B208B21EC30E01F
:1006D000338B228B22EC30E0358B248B26EC30E000
:1006E000378B268B118E128E138E148EE2EEF1E074
:1006F000168217821086118622E030E03183208333
:100700002EED31E0338322832DE730E035832483DF
:1007100086879787A08BB18B04E610E020E030E05D
:10072000028B138B248B358BFFB6F8944091BC0160
:100730005091BD016091BE017091BF01FFBEC288A2
:10074000D388E488F5884C195D096E097F094287D2
:10075000538764877587E4ECF1E016821782108670
:10076000118643E050E05183408340EC51E05383D5
:10077000428341E950E05583448386879787A08B65
:10078000B18B028B138B248B358B2FB7F894809110
:10079000BC019091BD01A091BE01B091BF012FBFDE
:1007A0004289538964897589841B950BA60BB70B05
:1007B00082879387A487B5871F910F91FF90EF9051
:1007C000DF90CF900895789484B5826084BD84B51D
:1007D000816084BD85B5826085BD85B5816085BD3C
:1007E00080916E00816080936E00109281008091F4
:1007F000810082608093810080918100816080937C
:100800008100809180008160809380008091B100A0
:1008100084608093B1008091B00081608093B000CB
:1008200080917A00846080937A0080917A0082605F
:1008300080937A0080917A00816080937A00809121
:100840007A00806880937A001092C100E0912F01B5
:10085000F091300182E08083E0912B01F0912C0136
:100860001082E0912D01F0912E018FEC8083109287
:100870003701E0913301F091340186E08083E0910B
:100880003101F0913201808180618083E0913101FA
:10089000F0913201808188608083E0913101F09194
:1008A0003201808180688083E0913101F0913201D2
:1008B00080818F7D808382EE91E00E94B30184EC81
:1008C00091E00E94B301C0E0D0E06091DE01709140
:1008D000DF018091E0019091E1014AE00E94100265
:1008E00086E191E00E9403026091C0017091C10114
:1008F0008091C2019091C3014AE00E94100286E1FA
:1009000091E00E940302209701F30E940F018823C7
:10091000E1F20E940000D9CFA1E21A2EAA1BBB1B54
:10092000FD010DC0AA1FBB1FEE1FFF1FA217B307BB
:10093000E407F50720F0A21BB30BE40BF50B661FD1
:10094000771F881F991F1A9469F760957095809595
:1009500090959B01AC01BD01CF010895EE0FFF1FE3
:100960000590F491E02D0994F894FFCFB201B20103
:10097000000000004501A500D20092010301E10042
:06098000F5000D0A000065
:107E0000112484B714BE81FFF0D085E080938100F7
:107E100082E08093C00088E18093C10086E0809377
:107E2000C20080E18093C4008EE0C9D0259A86E02C
:107E300020E33CEF91E0309385002093840096BBD3
:107E4000B09BFECF1D9AA8958150A9F7CC24DD24C4
:107E500088248394B5E0AB2EA1E19A2EF3E0BF2EE7
:107E6000A2D0813461F49FD0082FAFD0023811F036
:107E7000013811F484E001C083E08DD089C08234E0
:107E800011F484E103C0853419F485E0A6D080C0E4
:107E9000853579F488D0E82EFF2485D0082F10E0AE
:107EA000102F00270E291F29000F111F8ED06801E7
:107EB0006FC0863521F484E090D080E0DECF843638
:107EC00009F040C070D06FD0082F6DD080E0C81688
:107ED00080E7D80618F4F601B7BEE895C0E0D1E017
:107EE00062D089930C17E1F7F0E0CF16F0E7DF06D8
:107EF00018F0F601B7BEE89568D007B600FCFDCFD4
:107F0000A601A0E0B1E02C9130E011968C91119780
:107F100090E0982F8827822B932B1296FA010C0160
:107F200087BEE89511244E5F5F4FF1E0A038BF0790
:107F300051F7F601A7BEE89507B600FCFDCF97BE46
:107F4000E89526C08437B1F42ED02DD0F82E2BD052
:107F50003CD0F601EF2C8F010F5F1F4F84911BD097
:107F6000EA94F801C1F70894C11CD11CFA94CF0C13
:107F7000D11C0EC0853739F428D08EE10CD085E9AC
:107F80000AD08FE07ACF813511F488E018D01DD067
:107F900080E101D065CF982F8091C00085FFFCCF94
:107FA0009093C60008958091C00087FFFCCF809118
:107FB000C00084FD01C0A8958091C6000895E0E648
:107FC000F0E098E1908380830895EDDF803219F02E
:107FD00088E0F5DFFFCF84E1DECF1F93182FE3DFCA
:107FE0001150E9F7F2DF1F91089580E0E8DFEE27F6
:047FF000FF270994CA
:027FFE00040479
:00000001FF
