:020000040000FA
:100000000C9458000C9480000C9480000C94800098
:100010000C9480000C9480000C9480000C94800060
:100020000C9480000C9480000C9480000C94800050
:100030000C9480000C9480000C9480000C94800040
:100040000C94D2040C9480000C94A0040C947A04B8
:100050000C9480000C9480000C9480000C94800020
:100060000C941C050C948000000000002500280062
:100070002B00040404040404040402020202020229
:10008000030303030303010204081020408001025C
:1000900004081020010204081020000000080002DB
:1000A00001000003040700000000000000003B0600
:1000B00011241FBECFEFD8E0DEBFCDBF11E0A0E01E
:1000C000B1E0E6E0F3E102C005900D92A633B1077E
:1000D000D9F722E0A6E3B1E001C01D92A23EB2072B
:1000E000E1F710E0C8E5D0E004C02197FE010E94CE
:1000F0007B09C735D107C9F70E94E3060C94810933
:100100000C94000008950895AF92BF92CF92DF92B1
:10011000EF92FF920F931F93CF93DF936C017B01BC
:100120008B01040F151FEB015E01AE18BF08C0174D
:10013000D10759F06991D601ED91FC910190F081C0
:10014000E02DC6010995892B79F7C501DF91CF9183
:100150001F910F91FF90EF90DF90CF90BF90AF90E5
:100160000895FC01538D448D252F30E0842F90E0BD
:10017000821B930B541710F0CF96089501970895A2
:10018000FC01918D828D981761F0A28DAE0FBF2F6B
:10019000B11D5D968C91928D9F5F9F73928F90E0C1
:1001A00008958FEF9FEF0895FC01918D828D981730
:1001B00031F0828DE80FF11D858D90E008958FEF6D
:1001C0009FEF0895FC01918D228D892F90E0805C36
:1001D0009F4F821B91098F739927089589EF91E0B2
:1001E0000E94E20021E0892B09F420E0822F08958B
:1001F00080E090E0892B29F00E94EE0081110C94A0
:1002000000000895FC01A48DA80FB92FB11DA35AB9
:10021000BF4F2C91848D90E001968F739927848F26
:10022000A689B7892C93A089B1898C918370806449
:100230008C93938D848D981306C00288F389E02DEA
:1002400080818F7D80830895EF92FF920F931F939B
:10025000CF93DF93EC0181E0888F9B8D8C8D981379
:100260001AC0E889F989808185FF15C09FB7F89485
:10027000EE89FF896083E889F989808183708064D1
:1002800080839FBF81E090E0DF91CF911F910F911C
:10029000FF90EF900895F62E0B8D10E00F5F1F4F2B
:1002A0000F731127E02E8C8D8E110CC00FB607FC3A
:1002B000FACFE889F989808185FFF5CFCE010E94C8
:1002C0000201F1CFEB8DEC0FFD2FF11DE35AFF4F33
:1002D000F0829FB7F8940B8FEA89FB898081806256
:1002E000CFCFCF93DF93EC01888D8823B9F0AA8913
:1002F000BB89E889F9898C9185FD03C0808186FDE1
:100300000DC00FB607FCF7CF8C9185FFF2CF80812F
:1003100085FFEDCFCE010E940201E9CFDF91CF91A1
:10032000089590E0FC01E656FF4F2491FC01EA5746
:10033000FF4F3491FC01EE58FF4FE491EE23C9F0DA
:10034000222339F0233001F1A8F4213019F12230B1
:1003500029F1F0E0EE0FFF1FE859FF4FA591B4918E
:100360008FB7F894EC91611126C030953E233C93F1
:100370008FBF08952730A9F02830C9F0243049F7FD
:10038000809180008F7D03C0809180008F77809363
:100390008000DFCF84B58F7784BDDBCF84B58F7DC0
:1003A000FBCF8091B0008F778093B000D2CF809147
:1003B000B0008F7DF9CF3E2BDACF3FB7F894809114
:1003C0007F0190918001A0918101B091820126B5B9
:1003D000A89B05C02F3F19F00196A11DB11D3FBF7D
:1003E000BA2FA92F982F8827BC01CD01620F711D4C
:1003F000811D911D42E0660F771F881F991F4A9546
:10040000D1F7089520915701260F3327331F21324A
:100410003105ECF42091CF01FC0190E080E0243024
:1004200069F082E00895A09157012191AC01495CE7
:100430005E4FA40FB52FB11D2C930196861798F32C
:1004400080915701680F6093570180E0089581E023
:1004500008951092CF0181E08093CE011092A901FE
:1004600061E082E10E94910161E083E10E949101DB
:10047000E9EBF0E080818E7F808380818D7F8083B7
:1004800088E48093B80085E48093BC000895CF93FE
:10049000DF9391E0909336018823B9F0C091B800C2
:1004A000D091BA008091BC008A7B8093BC0060E050
:1004B00082E10E94910160E083E10E9491010E942B
:1004C0002902D093BA00C093B800DF91CF9108956C
:1004D0008F929F92AF92BF92CF92DF92EF92FF9254
:1004E0000F931F93CF93DF93D091F801D13208F08F
:1004F000D7C0182FC091F7010E94DD016B017C016C
:100500008091CF0181116BC082E08093CF01109365
:10051000CE018FEF8093CD011092CC01D093CB010F
:10052000A7EDB1E0EBEAF1E080E0D81391C01092C2
:10053000AA018091AA01CC0FC82BC093AA01809177
:10054000A901813009F088C01092A9010E94DD0143
:100550006B017C018091AA018093BB008091D10145
:100560009091D201A091D301B091D401892B8A2B13
:100570008B2BA1F00E94DD010091D1011091D201DD
:100580002091D3013091D4016C197D098E099F0906
:10059000061717072807390708F442C08091BC00E6
:1005A00083FDD8CF85EC8093BC000E94DD016B01F8
:1005B0007C018091CF01823009F450C08091CD013F
:1005C0008F3F09F46FC08091CD01803209F46CC077
:1005D0008091CD01803309F469C084E026C0809108
:1005E000D1019091D201A091D301B091D401892B76
:1005F0008A2B8B2B09F484CF0E94DD018090D101DE
:100600009090D201A090D301B090D4016C197D09D3
:100610008E099F0986169706A806B90608F070CFBE
:100620008091D0010E94470285E01092D60110927D
:10063000F8011092D501DF91CF911F910F91FF909A
:10064000EF90DF90CF90BF90AF909F908F900895E4
:100650009D9191938F5F69CF85EEA5CF8091D10158
:100660009091D201A091D301B091D401892B8A2B12
:100670008B2B09F49ECF0E94DD010091D1011091D6
:10068000D2012091D3013091D4016C197D098E09DA
:100690009F09061717072807390708F08ACFC0CF28
:1006A00081E0C3CF80E0C1CF82E0BFCF83E0BDCF88
:1006B0000895E091A8018091A701E81730F4F0E0D7
:1006C000ED57FE4F808190E008958FEF9FEF0895E2
:1006D0009091A8018091A7012FEF3FEF981748F460
:1006E000E92FF0E0ED57FE4F208130E09F5F9093BF
:1006F000A801C90108958091A7019091A801891BC3
:10070000990B0895CF92DF92EF92FF920F931F9370
:10071000CF93DF937C01CB018A012091D501222365
:1007200089F0EB016B01C40ED51ECC15DD0569F017
:100730006991D701ED91FC910190F081E02DC70105
:100740000995F3CF642F0E940202C801DF91CF9177
:100750001F910F91FF90EF90DF90CF900895CF936E
:10076000DF931F92CDB7DEB769832091D501222395
:10077000F9F02091F801203258F021E030E0FC013E
:100780003383228390E080E00F90DF91CF91089532
:100790008091D601E82FF0E0E952FE4F99819083D5
:1007A0008F5F8093D6018093F80181E090E0ECCFD9
:1007B00061E0CE0101960E940202F7CF682F86E920
:1007C00092E00C94AF03CF93C62F9091E10221E009
:1007D0002093D5019093F7011092D6011092F80161
:1007E000682F86E992E00E94AF036C2F86E992E0C1
:1007F0000E94AF0381E0CF910C9468020F931F9386
:10080000CF93DF93042FD52F122FC32FFC018081AC
:1008100091E09093D5018093F7011092D601109248
:10082000F801F4E06F9FB00111246A5F7F4F86E901
:1008300092E00E94AF03802F9D2F0E94DE038D2F38
:1008400090E00E94DE03812F9C2F0E94DE038C2FFC
:1008500090E00E94DE0381E0DF91CF911F910F9124
:100860000C94680290E080E00895FC010190002063
:10087000E9F73197AF01481B590BBC0189EF91E0B3
:100880000C94840085ED8093BC008091D1019091FF
:10089000D201A091D301B091D4010796A11DB11D41
:1008A00023E0B695A795979587952A95D1F720913E
:1008B000BC0024FD03C01092CF0108954091D101E6
:1008C0005091D2016091D3017091D401452B462BF8
:1008D000472B69F30097A105B10541F025E32A955F
:1008E000F1F700000197A109B109E1CF8091D00192
:1008F0000C9447021F920F920FB60F9211242F9360
:100900003F934F935F936F937F938F939F93AF9397
:10091000BF93EF93FF9389EF91E00E940201FF9153
:10092000EF91BF91AF919F918F917F916F915F9167
:100930004F913F912F910F900FBE0F901F901895E0
:100940001F920F920FB60F9211242F938F939F93A4
:10095000EF93FF93E0910902F0910A028081E09108
:100960000F02F091100282FD1BC090818091120253
:100970008F5F8F7320911302821741F0E091120272
:10098000F0E0E750FE4F958F80931202FF91EF91B8
:100990009F918F912F910F900FBE0F901F901895E0
:1009A0008081F4CF1F920F920FB60F9211242F93D4
:1009B0003F938F939F93AF93BF9380917B019091CF
:1009C0007C01A0917D01B0917E0130917A0123E0FC
:1009D000230F2D3758F50196A11DB11D20937A01E3
:1009E00080937B0190937C01A0937D01B0937E0165
:1009F00080917F0190918001A0918101B09182014D
:100A00000196A11DB11D80937F0190938001A09359
:100A10008101B0938201BF91AF919F918F913F91DE
:100A20002F910F900FBE0F901F90189526E8230F5F
:100A30000296A11DB11DD2CF1F920F920FB60F9239
:100A400011242F933F934F935F936F937F938F93D3
:100A50009F93AF93BF93EF93FF938091B900887FEB
:100A6000803609F44AC0F0F5883209F4A7C018F5B9
:100A7000803109F49BC0B8F4882309F4F9C08830A8
:100A800009F494C0FF91EF91BF91AF919F918F9125
:100A90007F916F915F914F913F912F910F900FBE7A
:100AA0000F901F901895883109F488C0803251F753
:100AB0008093CD0114C0803409F49DC040F480338C
:100AC000B9F38833F9F68093CD0185ECB0C0803559
:100AD00009F485C0883509F496C0883499F60E94D7
:100AE0004204D0CF883909F48CC038F5883729F012
:100AF00050F4883611F0803729F683E08093CF01D7
:100B00001092790157C0883809F47BC0803919F0F8
:100B1000803809F0B7CF80917901803208F071C038
:100B2000E091790181E08E0F809379018091BB0083
:100B3000F0E0E75AFE4F80833DC0803B39F0E0F49F
:100B4000803A09F479C0883A09F09CCF84E0809318
:100B5000CF011092580110925701E091A501F09138
:100B6000A60109958091570181110FC081E0809302
:100B700057011092370109C0803C09F4A6CF883C88
:100B800009F4A3CF883B09F07DCFE091580181E0C3
:100B90008E0F80935801F0E0E95CFE4F80818093D6
:100BA000BB00909158018091570129C08091AA0102
:100BB0008093BB0085EC8093BC0064CF9091CC0106
:100BC0008091CB01981758F5E091CC0181E08E0F10
:100BD0008093CC01F0E0E555FE4F8081E9CFE091B4
:100BE000CC0181E08E0F8093CC018091BB00F0E0BE
:100BF000E555FE4F80839091CC018091CB019817F1
:100C0000C8F285E8D8CFE091CC0181E08E0F8093C7
:100C1000CC018091BB00F0E0E555FE4F80838091D0
:100C2000CE0181115CCF81E08093A90184EA809399
:100C3000BC001092CF0126CF85EC8093BC001092AF
:100C4000CF0180917901803230F4E0917901F0E0B8
:100C5000E75AFE4F10826091790170E0E091A301A4
:100C6000F091A40189E591E00995109279010ACFEC
:100C70001092CD0134CF1092FC011092FB0188EE4E
:100C800093E0A0E0B0E08093FD019093FE01A0937B
:100C9000FF01B093000224E031E03093FA01209389
:100CA000F90125EC30E0309306022093050224EC94
:100CB00030E0309308022093070220EC30E03093BC
:100CC0000A022093090221EC30E030930C022093B9
:100CD0000B0222EC30E030930E0220930D0226EC42
:100CE00030E03093100220930F0210921202109203
:100CF000130210921402109215021092990210928F
:100D0000980280939A0290939B02A0939C02B093C6
:100D10009D0286E191E09093970280939602E9EA22
:100D2000F2E081EC92E01482138215821282118229
:100D3000108236968E179F07B1F71092CD0210924F
:100D4000D0021092CC021092CB021092DD021092CF
:100D5000E0021092DC021092DB0280E68093A60291
:100D60008093E1028091C0028823D1F08BEB92E066
:100D70009093A3028093A2028091AE0281110FC0D2
:100D800084EA92E09093AD028093AC0288E0809375
:100D9000A9028AE08093AA0289E08093AB020895B9
:100DA00083E08093C00284EA92E09093BF02809334
:100DB000BE0287E08093BB0285E08093BC0286E0A0
:100DC0008093BD02D3CFCF93DF93CDB7DEB7A1978A
:100DD0000FB6F894DEBF0FBECDBF789484B58260A5
:100DE00084BD84B5816084BD85B5826085BD85B5CF
:100DF000816085BD80916E00816080936E0010924D
:100E000081008091810082608093810080918100C7
:100E10008160809381008091800081608093800058
:100E20008091B10084608093B1008091B0008160B6
:100E30008093B00080917A00846080937A008091E2
:100E40007A00826080937A0080917A00816080933A
:100E50007A0080917A00806880937A001092C100B5
:100E6000E0910902F0910A0282E08083E09105029C
:100E7000F09106021082E0910702F09108028FECD7
:100E8000808310921102E0910D02F0910E0286E033
:100E90008083E0910B02F0910C028081806180835D
:100EA000E0910B02F0910C02808188608083E091D8
:100EB0000B02F0910C02808180688083E0910B022C
:100EC000F0910C0280818F7D808384E291E00E940A
:100ED000350482E391E00E94350486E992E0909324
:100EE000A5028093A4021092A8011092A70110926B
:100EF000D6011092F8010E94290282E890E09093B6
:100F0000A6018093A50183E890E09093A4018093CB
:100F1000A3010E94290260E080E00E94E30380E4D4
:100F200096E09093A8028093A7028091E10291E05D
:100F30009093D5018093F7011092D6011092F80199
:100F400060E086E992E00E94AF0381E00E946802BF
:100F50001091E1020E94DD014B015C018091CF0103
:100F6000811164C081E08093CF018093CE019FEF17
:100F70009093CD011092CC011092CB018093AA01E5
:100F80008091AA01110F182B1093AA018091A90139
:100F9000813009F052C11092A9010E94DD014B017C
:100FA0005C018091AA018093BB008091D101909156
:100FB000D201A091D301B091D401892B8A2B8B2B24
:100FC000A1F00E94DD010091D1011091D201209188
:100FD000D3013091D401681979098A099B09061750
:100FE00017072807390708F442C08091BC0083FD29
:100FF000D8CF85EC8093BC000E94DD014B015C01E1
:101000008091CF01813009F41AC18091CC01811106
:1010100038C18091CC01ABEAB1E0E3E8F1E090E0C7
:10102000981751F12D9121939F5FFACF8091D101B3
:101030009091D201A091D301B091D401892B8A2B38
:101040008B2B09F48BCF0E94DD014090D101509091
:10105000D2016090D3017090D401681979098A098E
:101060009B09461657066806790608F077CF8091E7
:10107000D0010E94470280E01092A8018093A7014E
:1010800086E992E00E946803182F682F6F766061EE
:1010900080E00E94E30363E08EEF0E94E303612F90
:1010A00080E00E94E3030E94DD012B013C0135E05A
:1010B000832E912CA12CB12C0E94DD01641975099D
:1010C00086099709683E734081059105A8F321E0E0
:1010D000821A9108A108B10888EE480E83E0581ED4
:1010E000611C711C81149104A104B10429F7612FC2
:1010F000616A80E00E94E30310E030E020E050E00D
:1011000040E0612F81EE92E00E94FE031F5F1031EC
:10111000A1F70091A2021091A302F80183819481AA
:1011200020E639E050E040E06081CD960E94FE0369
:10113000F8018381948130E020E050E040E062815A
:10114000CD960E94FE03F8018381948130E020E077
:1011500040E050E16181CD960E94FE03F801838159
:10116000948130E020E050E040E06181CD960E9423
:10117000FE03F8018381948130E020E050E040E0FC
:101180006281CD960E94FE0380E4D82E9AE0892EDB
:10119000912CA12CB12C20E0E22E20E0F22ED09256
:1011A0007C0080917A00806480937A0080917A003C
:1011B00086FDFCCF9091780080917900892798274F
:1011C00089272C01092E000C6608770897FF5BC061
:1011D0006DE289EF91E00E94240122273327A901C3
:1011E000241935094609570919A28E010F5D1F4FB1
:1011F000CA01B901A50194010E945909605DF80175
:1012000062938F01211531054105510589F70115BB
:10121000110519F0C8010E94350482E391E00E9493
:101220003504E114F10409F4BACF0E94EE008823DA
:1012300009F4B5CF0E940000B2CF85EEDBCE8091DD
:10124000D1019091D201A091D301B091D401892B09
:101250008A2B8B2B09F4D4CE0E94DD010091D101A1
:101260001091D2012091D3013091D40168197909EC
:101270008A099B09061717072807390708F0C0CE07
:10128000F6CE81E0C8CEA301920119A28E010F5DB6
:101290001F4FCA01B901A50194010E945909605D5F
:1012A000F80162938F01211531054105510589F738
:1012B000AECFA1E21A2EAA1BBB1BFD010DC0AA1FB7
:1012C000BB1FEE1FFF1FA217B307E407F50720F0AF
:1012D000A21BB30BE40BF50B661F771F881F991F2A
:1012E0001A9469F760957095809590959B01AC0173
:1012F000BD01CF010895EE0FFF1F0590F491E02D81
:101300000994F894FFCF0000000024018400B1008C
:101310007101E200C000D40000000000AF038203AE
:10132000320458037B0368035903456E636F646599
:0C13300072205465737421000D0A000047
:107E0000112484B714BE81FFF0D085E080938100F7
:107E100082E08093C00088E18093C10086E0809377
:107E2000C20080E18093C4008EE0C9D0259A86E02C
:107E300020E33CEF91E0309385002093840096BBD3
:107E4000B09BFECF1D9AA8958150A9F7CC24DD24C4
:107E500088248394B5E0AB2EA1E19A2EF3E0BF2EE7
:107E6000A2D0813461F49FD0082FAFD0023811F036
:107E7000013811F484E001C083E08DD089C08234E0
:107E800011F484E103C0853419F485E0A6D080C0E4
:107E9000853579F488D0E82EFF2485D0082F10E0AE
:107EA000102F00270E291F29000F111F8ED06801E7
:107EB0006FC0863521F484E090D080E0DECF843638
:107EC00009F040C070D06FD0082F6DD080E0C81688
:107ED00080E7D80618F4F601B7BEE895C0E0D1E017
:107EE00062D089930C17E1F7F0E0CF16F0E7DF06D8
:107EF00018F0F601B7BEE89568D007B600FCFDCFD4
:107F0000A601A0E0B1E02C9130E011968C91119780
:107F100090E0982F8827822B932B1296FA010C0160
:107F200087BEE89511244E5F5F4FF1E0A038BF0790
:107F300051F7F601A7BEE89507B600FCFDCF97BE46
:107F4000E89526C08437B1F42ED02DD0F82E2BD052
:107F50003CD0F601EF2C8F010F5F1F4F84911BD097
:107F6000EA94F801C1F70894C11CD11CFA94CF0C13
:107F7000D11C0EC0853739F428D08EE10CD085E9AC
:107F80000AD08FE07ACF813511F488E018D01DD067
:107F900080E101D065CF982F8091C00085FFFCCF94
:107FA0009093C60008958091C00087FFFCCF809118
:107FB000C00084FD01C0A8958091C6000895E0E648
:107FC000F0E098E1908380830895EDDF803219F02E
:107FD00088E0F5DFFFCF84E1DECF1F93182FE3DFCA
:107FE0001150E9F7F2DF1F91089580E0E8DFEE27F6
:047FF000FF270994CA
:027FFE00040479
:00000001FF
