:100000000C9458000C9480000C9480000C94800098
:100010000C9480000C9480000C9480000C94800060
:100020000C9480000C9480000C9480000C94800050
:100030000C9480000C9480000C9480000C94800040
:100040000C9431050C9480000C94FF040C94D9049A
:100050000C9480000C9480000C9480000C94800020
:100060000C947B050C948000000000002500280003
:100070002B00040404040404040402020202020229
:10008000030303030303010204081020408001025C
:1000900004081020010204081020000000080002DB
:1000A00001000003040700000000000000009A06A1
:1000B00011241FBECFEFD8E0DEBFCDBF11E0A0E01E
:1000C000B1E0EEEDF2E102C005900D92A036B1076D
:1000D000D9F723E0A0E6B1E001C01D92AC30B20731
:1000E000E1F710E0C8E5D0E004C02197FE010E94CE
:1000F0006709C735D107C9F70E942F070C946D090E
:100100000C94000008950895AF92BF92CF92DF92B1
:10011000EF92FF920F931F93CF93DF936C017B01BC
:100120008B01040F151FEB015E01AE18BF08C0174D
:10013000D10759F06991D601ED91FC910190F081C0
:10014000E02DC6010995892B79F7C501DF91CF9183
:100150001F910F91FF90EF90DF90CF90BF90AF90E5
:100160000895FC01538D448D252F30E0842F90E0BD
:10017000821B930B541710F0CF96089501970895A2
:10018000FC01918D828D981761F0A28DAE0FBF2F6B
:10019000B11D5D968C91928D9F5F9F73928F90E0C1
:1001A00008958FEF9FEF0895FC01918D828D981730
:1001B00031F0828DE80FF11D858D90E008958FEF6D
:1001C0009FEF0895FC01918D228D892F90E0805C36
:1001D0009F4F821B91098F739927089583E292E0C4
:1001E0000E94E20021E0892B09F420E0822F08958B
:1001F00080E090E0892B29F00E94EE0081110C94A0
:1002000000000895FC01A48DA80FB92FB11DA35AB9
:10021000BF4F2C91848D90E001968F739927848F26
:10022000A689B7892C93A089B1898C918370806449
:100230008C93938D848D981306C00288F389E02DEA
:1002400080818F7D80830895EF92FF920F931F939B
:10025000CF93DF93EC0181E0888F9B8D8C8D981379
:100260001AC0E889F989808185FF15C09FB7F89485
:10027000EE89FF896083E889F989808183708064D1
:1002800080839FBF81E090E0DF91CF911F910F911C
:10029000FF90EF900895F62E0B8D10E00F5F1F4F2B
:1002A0000F731127E02E8C8D8E110CC00FB607FC3A
:1002B000FACFE889F989808185FFF5CFCE010E94C8
:1002C0000201F1CFEB8DEC0FFD2FF11DE35AFF4F33
:1002D000F0829FB7F8940B8FEA89FB898081806256
:1002E000CFCFCF93DF93EC01888D8823B9F0AA8913
:1002F000BB89E889F9898C9185FD03C0808186FDE1
:100300000DC00FB607FCF7CF8C9185FFF2CF80812F
:1003100085FFEDCFCE010E940201E9CFDF91CF91A1
:10032000089590E0FC01E656FF4F2491FC01EA5746
:10033000FF4F3491FC01EE58FF4FE491EE23C9F0DA
:10034000222339F0233001F1A8F4213019F12230B1
:1003500029F1F0E0EE0FFF1FE859FF4FA591B4918E
:100360008FB7F894EC91611126C030953E233C93F1
:100370008FBF08952730A9F02830C9F0243049F7FD
:10038000809180008F7D03C0809180008F77809363
:100390008000DFCF84B58F7784BDDBCF84B58F7DC0
:1003A000FBCF8091B0008F778093B000D2CF809147
:1003B000B0008F7DF9CF3E2BDACF3FB7F894809114
:1003C000A9019091AA01A091AB01B091AC0126B511
:1003D000A89B05C02F3F19F00196A11DB11D3FBF7D
:1003E000BA2FA92F982F8827BC01CD01620F711D4C
:1003F000811D911D42E0660F771F881F991F4A9546
:10040000D1F708958F929F92AF92BF92CF92DF92D1
:10041000EF92FF924B015C010E94DD016B017C01B8
:100420000E94DD016C197D098E099F09683E7340A9
:1004300081059105A8F321E0821A9108A108B1086D
:1004400088EEC80E83E0D81EE11CF11C81149104D3
:10045000A104B10429F7FF90EF90DF90CF90BF90F7
:10046000AF909F908F90089520918101260F3327A0
:10047000331F21323105ECF42091F901FC0190E0A9
:1004800080E0243069F082E00895A09181012191FB
:10049000AC014F595E4FA40FB52FB11D2C9301969F
:1004A000861798F380918101680F6093810180E045
:1004B000089581E008951092F90181E08093F80198
:1004C0001092D30161E082E10E94910161E083E139
:1004D0000E949101E9EBF0E080818E7F8083808132
:1004E0008D7F808388E48093B80085E48093BC008E
:1004F0000895CF93DF9391E0909360018823B9F042
:10050000C091B800D091BA008091BC008A7B8093E2
:10051000BC0060E082E10E94910160E083E10E9402
:1005200091010E945B02D093BA00C093B800DF91A2
:10053000CF9108958F929F92AF92BF92CF92DF9208
:10054000EF92FF920F931F93CF93DF93D0912202EC
:10055000D13208F0D7C0182FC09121020E94DD01CE
:100560006B017C018091F90181116BC082E0809365
:10057000F9011093F8018FEF8093F7011092F601C3
:10058000D093F501A1E0B2E0E5EDF1E080E0D81311
:1005900091C01092D4018091D401CC0FC82BC0938C
:1005A000D4018091D301813009F088C01092D30129
:1005B0000E94DD016B017C018091D4018093BB001E
:1005C0008091FB019091FC01A091FD01B091FE0191
:1005D000892B8A2B8B2BA1F00E94DD010091FB015E
:1005E0001091FC012091FD013091FE016C197D09F3
:1005F0008E099F09061717072807390708F442C014
:100600008091BC0083FDD8CF85EC8093BC000E9414
:10061000DD016B017C018091F901823009F450C049
:100620008091F7018F3F09F46FC08091F70180320C
:1006300009F46CC08091F701803309F469C084E04B
:1006400026C08091FB019091FC01A091FD01B09129
:10065000FE01892B8A2B8B2B09F484CF0E94DD01AC
:100660008090FB019090FC01A090FD01B090FE01F4
:100670006C197D098E099F0986169706A806B9068A
:1006800008F070CF8091FA010E94790285E0109203
:100690000002109222021092FF01DF91CF911F9170
:1006A0000F91FF90EF90DF90CF90BF90AF909F9011
:1006B0008F9008959D9191938F5F69CF85EEA5CF1F
:1006C0008091FB019091FC01A091FD01B091FE0190
:1006D000892B8A2B8B2B09F49ECF0E94DD01009180
:1006E000FB011091FC012091FD013091FE016C197C
:1006F0007D098E099F09061717072807390708F093
:100700008ACFC0CF81E0C3CF80E0C1CF82E0BFCF2E
:1007100083E0BDCF0895E091D2018091D101E81727
:1007200030F4F0E0E355FE4F808190E008958FEFC4
:100730009FEF08959091D2018091D1012FEF3FEF6B
:10074000981748F4E92FF0E0E355FE4F208130E0A0
:100750009F5F9093D201C90108958091D10190913A
:10076000D201891B990B0895CF92DF92EF92FF92ED
:100770000F931F93CF93DF937C01CB018A012091CC
:10078000FF01222389F0EB016B01C40ED51ECC15AD
:10079000DD0569F06991D701ED91FC910190F0813F
:1007A000E02DC7010995F3CF642F0E943402C801E0
:1007B000DF91CF911F910F91FF90EF90DF90CF903D
:1007C0000895CF93DF931F92CDB7DEB76983209151
:1007D000FF012223F9F020912202203258F021E07B
:1007E00030E0FC013383228390E080E00F90DF91C2
:1007F000CF91089580910002E82FF0E0EF5FFD4F68
:10080000998190838F5F809300028093220281E020
:1008100090E0ECCF61E0CE0101960E943402F7CF68
:10082000682F80EC92E00C94E103CF93C62F909157
:100830000B0321E02093FF0190932102109200020C
:1008400010922202682F80EC92E00E94E1036C2F4C
:1008500080EC92E00E94E10381E0CF910C949A0237
:100860000F931F93CF93DF93042FD52F122FC32FF6
:10087000FC01808191E09093FF018093210210920E
:10088000000210922202F4E06F9FB00111246A5F0F
:100890007F4F80EC92E00E94E103802F9D2F0E9409
:1008A00010048D2F90E00E941004812F9C2F0E9435
:1008B00010048C2F90E00E94100481E0DF91CF9112
:1008C0001F910F910C949A0230E020E050E040E03C
:1008D000CD960C943004FC0180E1689F90011124B6
:1008E0008381948150E040E06081CD960C94300487
:1008F00090E080E00895FC0101900020E9F7319735
:10090000AF01481B590BBC0183E292E00C948400B8
:10091000CF93DF93EC018B819C8130E020E050E0AD
:1009200040E06A81CD960E9430048B819C8130E04A
:1009300020E040E050E16981CD96DF91CF910C94A9
:10094000300485ED8093BC008091FB019091FC0107
:10095000A091FD01B091FE010796A11DB11D23E0FC
:10096000B695A795979587952A95D1F72091BC00C4
:1009700024FD03C01092F90108954091FB015091AC
:10098000FC016091FD017091FE01452B462B472B28
:1009900069F30097A105B10541F025E32A95F1F728
:1009A00000000197A109B109E1CF8091FA010C94EF
:1009B00079021F920F920FB60F9211242F933F933B
:1009C0004F935F936F937F938F939F93AF93BF9357
:1009D000EF93FF9383E292E00E940201FF91EF9177
:1009E000BF91AF919F918F917F916F915F914F9147
:1009F0003F912F910F900FBE0F901F9018951F924F
:100A00000F920FB60F9211242F938F939F93EF9312
:100A1000FF93E0913302F09134028081E09139023A
:100A2000F0913A0282FD1BC0908180913C028F5F61
:100A30008F7320913D02821741F0E0913C02F0E07B
:100A4000ED5DFD4F958F80933C02FF91EF919F915B
:100A50008F912F910F900FBE0F901F90189580814E
:100A6000F4CF1F920F920FB60F9211242F933F9342
:100A70008F939F93AF93BF938091A5019091A6010F
:100A8000A091A701B091A8013091A40123E0230F08
:100A90002D3758F50196A11DB11D2093A401809317
:100AA000A5019093A601A093A701B093A8018091FE
:100AB000A9019091AA01A091AB01B091AC0101965E
:100AC000A11DB11D8093A9019093AA01A093AB0130
:100AD000B093AC01BF91AF919F918F913F912F91B6
:100AE0000F900FBE0F901F90189526E8230F0296C7
:100AF000A11DB11DD2CF1F920F920FB60F921124DC
:100B00002F933F934F935F936F937F938F939F9315
:100B1000AF93BF93EF93FF938091B900887F8036A6
:100B200009F44AC0F0F5883209F4A7C018F58031FD
:100B300009F49BC0B8F4882309F4F9C0883009F49B
:100B400094C0FF91EF91BF91AF919F918F917F9151
:100B50006F915F914F913F912F910F900FBE0F902A
:100B60001F901895883109F488C0803251F780931E
:100B7000F70114C0803409F49DC040F48033B9F308
:100B80008833F9F68093F70185ECB0C0803509F41D
:100B900085C0883509F496C0883499F60E94A1046E
:100BA000D0CF883909F48CC038F5883729F050F453
:100BB000883611F0803729F683E08093F90110928E
:100BC000A30157C0883809F47BC0803919F08038F8
:100BD00009F0B7CF8091A301803208F071C0E09195
:100BE000A30181E08E0F8093A3018091BB00F0E010
:100BF000ED57FE4F80833DC0803B39F0E0F4803AF2
:100C000009F479C0883A09F09CCF84E08093F90117
:100C10001092820110928101E091CD01F091CE01FC
:100C200009958091810181110FC081E0809381013C
:100C30001092610109C0803C09F4A6CF883C09F4F8
:100C4000A3CF883B09F07DCFE091820181E08E0F38
:100C500080938201F0E0EF59FE4F80818093BB00CA
:100C6000909182018091810129C08091D40180936B
:100C7000BB0085EC8093BC0064CF9091F60180911D
:100C8000F501981758F5E091F60181E08E0F8093F9
:100C9000F601F0E0EB52FE4F8081E9CFE091F601E2
:100CA00081E08E0F8093F6018091BB00F0E0EB5263
:100CB000FE4F80839091F6018091F5019817C8F25C
:100CC00085E8D8CFE091F60181E08E0F8093F601A0
:100CD0008091BB00F0E0EB52FE4F80838091F801E1
:100CE00081115CCF81E08093D30184EA8093BC00C2
:100CF0001092F90126CF85EC8093BC001092F90187
:100D00008091A301803230F4E091A301F0E0ED572F
:100D1000FE4F10826091A30170E0E091CF01F0914D
:100D2000D00183E891E009951092A3010ACF1092B7
:100D3000F70134CF109226021092250288EE93E03C
:100D4000A0E0B0E08093270290932802A0932902AC
:100D5000B0932A0224E031E030932402209323024E
:100D600025EC30E03093300220932F0224EC30E069
:100D7000309332022093310220EC30E03093340281
:100D80002093330221EC30E0309336022093350279
:100D900022EC30E0309338022093370226EC30E02A
:100DA00030933A022093390210923C0210923D0295
:100DB00010923E0210923F021092C3021092C202A1
:100DC0008093C4029093C502A093C602B093C70259
:100DD00086E191E09093C1028093C002E3EDF2E0DE
:100DE0008BEE92E01482138215821282118210829D
:100DF00036968E179F07B1F71092F7021092FA02FB
:100E00001092F6021092F5021092070310920A0354
:100E1000109206031092050380E68093D00280931F
:100E20000B038091DE02882339F089ED92E09093E4
:100E3000CD028093CC02089581E08093DE028EEC97
:100E400092E09093DD028093DC028DE08093D902E2
:100E50008BE08093DA028CE08093DB02E6CF78941B
:100E600084B5826084BD84B5816084BD85B58260AF
:100E700085BD85B5816085BD80916E008160809360
:100E80006E001092810080918100826080938100C9
:100E900080918100816080938100809180008160D9
:100EA000809380008091B10084608093B100809134
:100EB000B00081608093B00080917A00846080935C
:100EC0007A0080917A00826080937A0080917A0023
:100ED000816080937A0080917A00806880937A00A4
:100EE0001092C100E0913302F091340282E08083DD
:100EF000E0912F02F09130021082E0913102F091E6
:100F000032028FEC808310923B02E0913702F09125
:100F1000380286E08083E0913502F09136028081CC
:100F200080618083E0913502F09136028081886093
:100F30008083E0913502F091360280818068808361
:100F4000E0913502F091360280818F7D808384E2CA
:100F500091E00E947B048DE491E00E947B0480EC90
:100F600092E09093CF028093CE021092D201109221
:100F7000D10110920002109222020E945B0282E8CC
:100F800090E09093CE018093CD0183E890E0909320
:100F9000D0018093CF010E945B0260E080E00E945C
:100FA000150480E496E09093D2028093D102809160
:100FB0000B0391E09093FF018093210210920002B5
:100FC0001092220260E080EC92E00E94E10381E056
:100FD0000E949A02C0910B030E94DD016B017C010B
:100FE0008091F901811164C081E08093F9018093BF
:100FF000F8019FEF9093F7011092F6011092F5011E
:101000008093D4018091D401CC0FC82BC093D4011C
:101010008091D301813009F034C11092D3010E9434
:10102000DD016B017C018091D4018093BB00809134
:10103000FB019091FC01A091FD01B091FE01892B73
:101040008A2B8B2BA1F00E94DD010091FB011091F6
:10105000FC012091FD013091FE016C197D098E0982
:101060009F09061717072807390708F442C080911F
:10107000BC0083FDD8CF85EC8093BC000E94DD01CD
:101080006B017C018091F901813009F4FCC08091F1
:10109000F60181111AC18091F601A5EDB1E0EDEAEA
:1010A000F1E090E0981751F12D9121939F5FFACFD5
:1010B0008091FB019091FC01A091FD01B091FE0196
:1010C000892B8A2B8B2B09F48BCF0E94DD01009199
:1010D000FB011091FC012091FD013091FE016C1982
:1010E0007D098E099F09061717072807390708F099
:1010F00077CF8091FA010E94790280E01092D201AC
:101100008093D10180EC92E00E949A03C82F682F4F
:101110006F76606180E00E94150463E08EEF0E94AC
:1011200015046C2F80E00E94150465E070E080E0FB
:1011300090E00E9402026C2F616A80E00E94150418
:10114000C0E030E020E050E040E06C2F8BE093E026
:101150000E943004CF5FC031A1F7C091CC02D09182
:10116000CD0266E9CE010E946B04CE010E94880484
:1011700069818B819C810E9464046A818B819C813E
:101180000E94640480E0E82E80E0F82E80E591E083
:101190000E947B040091CC021091CD02C8010E94F4
:1011A0008804C0E06C2FC8010E946B046AE070E004
:1011B00080E090E00E940202CF5FCF3F99F76C2F52
:1011C000C8010E946B046AE070E080E090E00E9439
:1011D0000202C150A1F785E591E00E947B040091D5
:1011E000CC021091CD02F8016181838194810E942B
:1011F0006404F8018381948130E020E040E050E114
:101200006281CD960E9430046C2FC8010E946B044D
:101210006AE070E080E090E00E940202CF5FCF3F82
:1012200099F76C2FC8010E946B046AE070E080E0BF
:1012300090E00E940202C150A1F78AE591E00E946D
:101240007B04C091CC02D091CD0269818B819C81BD
:101250000E9464046A818B819C810E94640468EE10
:1012600073E080E090E00E940202E114F10409F4CE
:101270008DCF0E94EE00882309F488CF0E940000E1
:1012800085CF85EEF9CE8091FB019091FC01A09174
:10129000FD01B091FE01892B8A2B8B2B09F4F2CE34
:1012A0000E94DD010091FB011091FC012091FD01E4
:1012B0003091FE016C197D098E099F0906171707E9
:1012C0002807390708F0DECE14CF81E0E6CEEE0F16
:0E12D000FF1F0590F491E02D0994F894FFCFD4
:1012DE000000000024018400B1007101E200C00092
:1012EE00D40000000000E103B40378048A03AD03C8
:1012FE009A038B034164616672756974204D6F7435
:10130E006F72736869656C64207632202D204443B9
:10131E00204D6F746F72207465737421000D0A0076
:10132E007469636B00746F636B00746563680000AF
:00000001FF
